{
  "address": "0x7359837fb1E8a411f6f85acc3D8620999707e35c",
  "abi": [
    {
      "anonymous": false,
      "inputs": [
        {
          "indexed": false,
          "internalType": "address",
          "name": "target",
          "type": "address"
        }
      ],
      "name": "AddUser",
      "type": "event"
    },
    {
      "anonymous": false,
      "inputs": [
        {
          "indexed": true,
          "internalType": "address",
          "name": "previousOwner",
          "type": "address"
        },
        {
          "indexed": true,
          "internalType": "address",
          "name": "newOwner",
          "type": "address"
        }
      ],
      "name": "OwnershipTransferred",
      "type": "event"
    },
    {
      "anonymous": false,
      "inputs": [
        {
          "indexed": false,
          "internalType": "address",
          "name": "traget",
          "type": "address"
        }
      ],
      "name": "RemoveUser",
      "type": "event"
    },
    {
      "inputs": [
        {
          "internalType": "address",
          "name": "_target",
          "type": "address"
        }
      ],
      "name": "addUser",
      "outputs": [],
      "stateMutability": "nonpayable",
      "type": "function"
    },
    {
      "inputs": [
        {
          "internalType": "address",
          "name": "_target",
          "type": "address"
        }
      ],
      "name": "isUser",
      "outputs": [
        {
          "internalType": "bool",
          "name": "",
          "type": "bool"
        }
      ],
      "stateMutability": "view",
      "type": "function"
    },
    {
      "inputs": [],
      "name": "owner",
      "outputs": [
        {
          "internalType": "address",
          "name": "",
          "type": "address"
        }
      ],
      "stateMutability": "view",
      "type": "function"
    },
    {
      "inputs": [
        {
          "internalType": "address",
          "name": "_target",
          "type": "address"
        }
      ],
      "name": "removeUser",
      "outputs": [],
      "stateMutability": "nonpayable",
      "type": "function"
    },
    {
      "inputs": [],
      "name": "renounceOwnership",
      "outputs": [],
      "stateMutability": "nonpayable",
      "type": "function"
    },
    {
      "inputs": [
        {
          "internalType": "address",
          "name": "newOwner",
          "type": "address"
        }
      ],
      "name": "transferOwnership",
      "outputs": [],
      "stateMutability": "nonpayable",
      "type": "function"
    },
    {
      "inputs": [],
      "name": "userList",
      "outputs": [
        {
          "internalType": "address[]",
          "name": "",
          "type": "address[]"
        }
      ],
      "stateMutability": "view",
      "type": "function"
    }
  ],
  "numDeployments": 2,
  "solcInputHash": "9c1269bebd8ce4e1d6e762b205cac16a",
  "bytecode": "0x608060405234801561001057600080fd5b5061001a3361001f565b61006f565b600080546001600160a01b038381166001600160a01b0319831681178455604051919092169283917f8be0079c531659141344cd1fd0a4f28419497f9722a3daafe3b4186f6b6457e09190a35050565b6106af8061007e6000396000f3fe608060405234801561001057600080fd5b506004361061006d5760003560e01c80630e0f785f146100725780634209fff114610090578063421b2d8b146100b0578063715018a6146100c55780638da5cb5b146100cd57806398575188146100e2578063f2fde38b146100f5575b600080fd5b61007a610108565b6040516100879190610523565b60405180910390f35b6100a361009e366004610553565b610119565b6040516100879190610584565b6100c36100be366004610553565b61012c565b005b6100c361017a565b6100d561018e565b6040516100879190610592565b6100c36100f0366004610553565b61019d565b6100c3610103366004610553565b6101e0565b60606101146001610223565b905090565b6000610126600183610237565b92915050565b61013461024c565b61013f60018261027b565b507f93e8ef53fa1762269961bdc02811e560fa10787f7f2f9c13f74ddad8221614d28160405161016f9190610592565b60405180910390a150565b61018261024c565b61018c6000610290565b565b6000546001600160a01b031690565b6101a561024c565b6101b06001826102e0565b507f0ad8e54ac59bf2d8a7a1474c1af503b593553cf4fcaaffdef04ab5249f89762b8160405161016f9190610592565b6101e861024c565b6001600160a01b0381166102175760405162461bcd60e51b815260040161020e906105a0565b60405180910390fd5b61022081610290565b50565b60606000610230836102f5565b9392505050565b6000610230836001600160a01b038416610351565b3361025561018e565b6001600160a01b03161461018c5760405162461bcd60e51b815260040161020e906105ea565b6000610230836001600160a01b038416610369565b600080546001600160a01b038381166001600160a01b0319831681178455604051919092169283917f8be0079c531659141344cd1fd0a4f28419497f9722a3daafe3b4186f6b6457e09190a35050565b6000610230836001600160a01b0384166103b3565b60608160000180548060200260200160405190810160405280929190818152602001828054801561034557602002820191906000526020600020905b815481526020019060010190808311610331575b50505050509050919050565b60009081526001919091016020526040902054151590565b60006103758383610351565b6103ab57508154600181810184556000848152602080822090930184905584548482528286019093526040902091909155610126565b506000610126565b6000818152600183016020526040812054801561049c5760006103d760018361063a565b85549091506000906103eb9060019061063a565b905081811461045057600086600001828154811061040b5761040b61064d565b906000526020600020015490508087600001848154811061042e5761042e61064d565b6000918252602080832090910192909255918252600188019052604090208390555b855486908061046157610461610663565b600190038181906000526020600020016000905590558560010160008681526020019081526020016000206000905560019350505050610126565b6000915050610126565b60006001600160a01b038216610126565b6104c0816104a6565b82525050565b60006104d283836104b7565b505060200190565b60006104e4825190565b80845260209384019383018060005b8381101561051857815161050788826104c6565b9750602083019250506001016104f3565b509495945050505050565b6020808252810161023081846104da565b61053d816104a6565b811461022057600080fd5b803561012681610534565b60006020828403121561056857610568600080fd5b60006105748484610548565b949350505050565b8015156104c0565b60208101610126828461057c565b6020810161012682846104b7565b6020808252810161012681602681527f4f776e61626c653a206e6577206f776e657220697320746865207a65726f206160208201526564647265737360d01b604082015260600190565b60208082528181019081527f4f776e61626c653a2063616c6c6572206973206e6f7420746865206f776e6572604083015260608201610126565b634e487b7160e01b600052601160045260246000fd5b8181038181111561012657610126610624565b634e487b7160e01b600052603260045260246000fd5b634e487b7160e01b600052603160045260246000fdfea2646970667358221220e96d1313d6884ab8eae5d517ac108f6a51ec3fa115e79f4e0eb2b5d8f1424f9764736f6c63430008130033",
  "devdoc": {
    "kind": "dev",
    "methods": {
      "owner()": {
        "details": "Returns the address of the current owner."
      },
      "renounceOwnership()": {
        "details": "Leaves the contract without owner. It will not be possible to call `onlyOwner` functions. Can only be called by the current owner. NOTE: Renouncing ownership will leave the contract without an owner, thereby disabling any functionality that is only available to the owner."
      },
      "transferOwnership(address)": {
        "details": "Transfers ownership of the contract to a new account (`newOwner`). Can only be called by the current owner."
      }
    },
    "version": 1
  },
  "userdoc": {
    "kind": "user",
    "methods": {},
    "version": 1
  },
  "storageLayout": {
    "storage": [
      {
        "astId": 4622,
        "contract": "contracts/pool/FilmountainUserRegistry.sol:FilmountainUserRegistry",
        "label": "_owner",
        "offset": 0,
        "slot": "0",
        "type": "t_address"
      },
      {
        "astId": 11126,
        "contract": "contracts/pool/FilmountainUserRegistry.sol:FilmountainUserRegistry",
        "label": "userSet",
        "offset": 0,
        "slot": "1",
        "type": "t_struct(AddressSet)8236_storage"
      }
    ],
    "types": {
      "t_address": {
        "encoding": "inplace",
        "label": "address",
        "numberOfBytes": "20"
      },
      "t_array(t_bytes32)dyn_storage": {
        "base": "t_bytes32",
        "encoding": "dynamic_array",
        "label": "bytes32[]",
        "numberOfBytes": "32"
      },
      "t_bytes32": {
        "encoding": "inplace",
        "label": "bytes32",
        "numberOfBytes": "32"
      },
      "t_mapping(t_bytes32,t_uint256)": {
        "encoding": "mapping",
        "key": "t_bytes32",
        "label": "mapping(bytes32 => uint256)",
        "numberOfBytes": "32",
        "value": "t_uint256"
      },
      "t_struct(AddressSet)8236_storage": {
        "encoding": "inplace",
        "label": "struct EnumerableSet.AddressSet",
        "members": [
          {
            "astId": 8235,
            "contract": "contracts/pool/FilmountainUserRegistry.sol:FilmountainUserRegistry",
            "label": "_inner",
            "offset": 0,
            "slot": "0",
            "type": "t_struct(Set)7921_storage"
          }
        ],
        "numberOfBytes": "64"
      },
      "t_struct(Set)7921_storage": {
        "encoding": "inplace",
        "label": "struct EnumerableSet.Set",
        "members": [
          {
            "astId": 7916,
            "contract": "contracts/pool/FilmountainUserRegistry.sol:FilmountainUserRegistry",
            "label": "_values",
            "offset": 0,
            "slot": "0",
            "type": "t_array(t_bytes32)dyn_storage"
          },
          {
            "astId": 7920,
            "contract": "contracts/pool/FilmountainUserRegistry.sol:FilmountainUserRegistry",
            "label": "_indexes",
            "offset": 0,
            "slot": "1",
            "type": "t_mapping(t_bytes32,t_uint256)"
          }
        ],
        "numberOfBytes": "64"
      },
      "t_uint256": {
        "encoding": "inplace",
        "label": "uint256",
        "numberOfBytes": "32"
      }
    }
  }
}