{
  "address": "0xEaBc200EA446B2d6d6ec3d48583793342a39bb7c",
  "abi": [
    {
      "inputs": [],
      "name": "ERC4626Overflow",
      "type": "error"
    },
    {
      "inputs": [],
      "name": "ERC4626ZeroShares",
      "type": "error"
    },
    {
      "inputs": [],
      "name": "InsufficientFunds",
      "type": "error"
    },
    {
      "inputs": [],
      "name": "NotEnoughBalance",
      "type": "error"
    },
    {
      "inputs": [],
      "name": "NotExpired",
      "type": "error"
    },
    {
      "inputs": [
        {
          "internalType": "address",
          "name": "user",
          "type": "address"
        }
      ],
      "name": "OnlyRegisteredUser",
      "type": "error"
    },
    {
      "inputs": [],
      "name": "UnauthorizedVault",
      "type": "error"
    },
    {
      "anonymous": false,
      "inputs": [
        {
          "indexed": false,
          "internalType": "address",
          "name": "previousAdmin",
          "type": "address"
        },
        {
          "indexed": false,
          "internalType": "address",
          "name": "newAdmin",
          "type": "address"
        }
      ],
      "name": "AdminChanged",
      "type": "event"
    },
    {
      "anonymous": false,
      "inputs": [
        {
          "indexed": true,
          "internalType": "address",
          "name": "owner",
          "type": "address"
        },
        {
          "indexed": true,
          "internalType": "address",
          "name": "spender",
          "type": "address"
        },
        {
          "indexed": false,
          "internalType": "uint256",
          "name": "value",
          "type": "uint256"
        }
      ],
      "name": "Approval",
      "type": "event"
    },
    {
      "anonymous": false,
      "inputs": [
        {
          "indexed": true,
          "internalType": "address",
          "name": "beacon",
          "type": "address"
        }
      ],
      "name": "BeaconUpgraded",
      "type": "event"
    },
    {
      "anonymous": false,
      "inputs": [
        {
          "indexed": false,
          "internalType": "address",
          "name": "borrower",
          "type": "address"
        },
        {
          "indexed": false,
          "internalType": "uint256",
          "name": "amount",
          "type": "uint256"
        }
      ],
      "name": "Borrow",
      "type": "event"
    },
    {
      "anonymous": false,
      "inputs": [
        {
          "indexed": false,
          "internalType": "address",
          "name": "depositer",
          "type": "address"
        },
        {
          "indexed": false,
          "internalType": "uint256",
          "name": "amount",
          "type": "uint256"
        }
      ],
      "name": "Deposit",
      "type": "event"
    },
    {
      "anonymous": false,
      "inputs": [
        {
          "indexed": true,
          "internalType": "address",
          "name": "sender",
          "type": "address"
        },
        {
          "indexed": true,
          "internalType": "address",
          "name": "owner",
          "type": "address"
        },
        {
          "indexed": false,
          "internalType": "uint256",
          "name": "assets",
          "type": "uint256"
        },
        {
          "indexed": false,
          "internalType": "uint256",
          "name": "shares",
          "type": "uint256"
        }
      ],
      "name": "Deposit",
      "type": "event"
    },
    {
      "anonymous": false,
      "inputs": [
        {
          "indexed": false,
          "internalType": "uint8",
          "name": "version",
          "type": "uint8"
        }
      ],
      "name": "Initialized",
      "type": "event"
    },
    {
      "anonymous": false,
      "inputs": [
        {
          "indexed": true,
          "internalType": "address",
          "name": "previousOwner",
          "type": "address"
        },
        {
          "indexed": true,
          "internalType": "address",
          "name": "newOwner",
          "type": "address"
        }
      ],
      "name": "OwnershipTransferred",
      "type": "event"
    },
    {
      "anonymous": false,
      "inputs": [
        {
          "indexed": false,
          "internalType": "address",
          "name": "owner",
          "type": "address"
        },
        {
          "indexed": false,
          "internalType": "uint256",
          "name": "amount",
          "type": "uint256"
        },
        {
          "indexed": false,
          "internalType": "uint256",
          "name": "gasFee",
          "type": "uint256"
        }
      ],
      "name": "PayBorrowed",
      "type": "event"
    },
    {
      "anonymous": false,
      "inputs": [
        {
          "indexed": false,
          "internalType": "address",
          "name": "sender",
          "type": "address"
        },
        {
          "indexed": false,
          "internalType": "uint256",
          "name": "amount",
          "type": "uint256"
        }
      ],
      "name": "PayInterest",
      "type": "event"
    },
    {
      "anonymous": false,
      "inputs": [
        {
          "indexed": false,
          "internalType": "address",
          "name": "factory",
          "type": "address"
        }
      ],
      "name": "SetFactory",
      "type": "event"
    },
    {
      "anonymous": false,
      "inputs": [
        {
          "indexed": true,
          "internalType": "address",
          "name": "from",
          "type": "address"
        },
        {
          "indexed": true,
          "internalType": "address",
          "name": "to",
          "type": "address"
        },
        {
          "indexed": false,
          "internalType": "uint256",
          "name": "value",
          "type": "uint256"
        }
      ],
      "name": "Transfer",
      "type": "event"
    },
    {
      "anonymous": false,
      "inputs": [
        {
          "indexed": true,
          "internalType": "address",
          "name": "implementation",
          "type": "address"
        }
      ],
      "name": "Upgraded",
      "type": "event"
    },
    {
      "anonymous": false,
      "inputs": [
        {
          "indexed": false,
          "internalType": "address",
          "name": "from",
          "type": "address"
        },
        {
          "indexed": false,
          "internalType": "address",
          "name": "to",
          "type": "address"
        },
        {
          "indexed": false,
          "internalType": "uint256",
          "name": "amount",
          "type": "uint256"
        },
        {
          "indexed": false,
          "internalType": "uint256",
          "name": "gasFee",
          "type": "uint256"
        }
      ],
      "name": "Withdraw",
      "type": "event"
    },
    {
      "anonymous": false,
      "inputs": [
        {
          "indexed": true,
          "internalType": "address",
          "name": "sender",
          "type": "address"
        },
        {
          "indexed": true,
          "internalType": "address",
          "name": "receiver",
          "type": "address"
        },
        {
          "indexed": true,
          "internalType": "address",
          "name": "owner",
          "type": "address"
        },
        {
          "indexed": false,
          "internalType": "uint256",
          "name": "assets",
          "type": "uint256"
        },
        {
          "indexed": false,
          "internalType": "uint256",
          "name": "shares",
          "type": "uint256"
        }
      ],
      "name": "Withdraw",
      "type": "event"
    },
    {
      "inputs": [],
      "name": "FilmountainAddressRegistry",
      "outputs": [
        {
          "internalType": "contract IFilmountainAddressRegistry",
          "name": "",
          "type": "address"
        }
      ],
      "stateMutability": "view",
      "type": "function"
    },
    {
      "inputs": [],
      "name": "SPVaultFactory",
      "outputs": [
        {
          "internalType": "contract ISPVaultFactory",
          "name": "",
          "type": "address"
        }
      ],
      "stateMutability": "view",
      "type": "function"
    },
    {
      "inputs": [
        {
          "internalType": "address",
          "name": "owner",
          "type": "address"
        },
        {
          "internalType": "address",
          "name": "spender",
          "type": "address"
        }
      ],
      "name": "allowance",
      "outputs": [
        {
          "internalType": "uint256",
          "name": "",
          "type": "uint256"
        }
      ],
      "stateMutability": "view",
      "type": "function"
    },
    {
      "inputs": [
        {
          "internalType": "address",
          "name": "spender",
          "type": "address"
        },
        {
          "internalType": "uint256",
          "name": "amount",
          "type": "uint256"
        }
      ],
      "name": "approve",
      "outputs": [
        {
          "internalType": "bool",
          "name": "",
          "type": "bool"
        }
      ],
      "stateMutability": "nonpayable",
      "type": "function"
    },
    {
      "inputs": [],
      "name": "asset",
      "outputs": [
        {
          "internalType": "address",
          "name": "",
          "type": "address"
        }
      ],
      "stateMutability": "view",
      "type": "function"
    },
    {
      "inputs": [],
      "name": "availableAssets",
      "outputs": [
        {
          "internalType": "uint256",
          "name": "",
          "type": "uint256"
        }
      ],
      "stateMutability": "view",
      "type": "function"
    },
    {
      "inputs": [
        {
          "internalType": "address",
          "name": "account",
          "type": "address"
        }
      ],
      "name": "balanceOf",
      "outputs": [
        {
          "internalType": "uint256",
          "name": "",
          "type": "uint256"
        }
      ],
      "stateMutability": "view",
      "type": "function"
    },
    {
      "inputs": [
        {
          "internalType": "uint256",
          "name": "_amount",
          "type": "uint256"
        }
      ],
      "name": "borrow",
      "outputs": [],
      "stateMutability": "nonpayable",
      "type": "function"
    },
    {
      "inputs": [
        {
          "internalType": "address",
          "name": "_userAddress",
          "type": "address"
        },
        {
          "internalType": "uint256",
          "name": "_index",
          "type": "uint256"
        }
      ],
      "name": "checkPrincipalExpired",
      "outputs": [
        {
          "internalType": "uint256",
          "name": "",
          "type": "uint256"
        }
      ],
      "stateMutability": "view",
      "type": "function"
    },
    {
      "inputs": [
        {
          "internalType": "address",
          "name": "_userAddress",
          "type": "address"
        }
      ],
      "name": "checkUserIndex",
      "outputs": [
        {
          "internalType": "uint256",
          "name": "",
          "type": "uint256"
        }
      ],
      "stateMutability": "view",
      "type": "function"
    },
    {
      "inputs": [
        {
          "internalType": "uint256",
          "name": "shares",
          "type": "uint256"
        }
      ],
      "name": "convertToAssets",
      "outputs": [
        {
          "internalType": "uint256",
          "name": "",
          "type": "uint256"
        }
      ],
      "stateMutability": "view",
      "type": "function"
    },
    {
      "inputs": [
        {
          "internalType": "uint256",
          "name": "assets",
          "type": "uint256"
        }
      ],
      "name": "convertToShares",
      "outputs": [
        {
          "internalType": "uint256",
          "name": "",
          "type": "uint256"
        }
      ],
      "stateMutability": "view",
      "type": "function"
    },
    {
      "inputs": [],
      "name": "decimals",
      "outputs": [
        {
          "internalType": "uint8",
          "name": "",
          "type": "uint8"
        }
      ],
      "stateMutability": "view",
      "type": "function"
    },
    {
      "inputs": [
        {
          "internalType": "address",
          "name": "spender",
          "type": "address"
        },
        {
          "internalType": "uint256",
          "name": "subtractedValue",
          "type": "uint256"
        }
      ],
      "name": "decreaseAllowance",
      "outputs": [
        {
          "internalType": "bool",
          "name": "",
          "type": "bool"
        }
      ],
      "stateMutability": "nonpayable",
      "type": "function"
    },
    {
      "inputs": [
        {
          "internalType": "uint256",
          "name": "assets",
          "type": "uint256"
        },
        {
          "internalType": "address",
          "name": "receiver",
          "type": "address"
        }
      ],
      "name": "deposit",
      "outputs": [
        {
          "internalType": "uint256",
          "name": "",
          "type": "uint256"
        }
      ],
      "stateMutability": "nonpayable",
      "type": "function"
    },
    {
      "inputs": [],
      "name": "deposit",
      "outputs": [
        {
          "internalType": "uint256",
          "name": "shares",
          "type": "uint256"
        }
      ],
      "stateMutability": "payable",
      "type": "function"
    },
    {
      "inputs": [],
      "name": "expireDates",
      "outputs": [
        {
          "internalType": "uint256",
          "name": "",
          "type": "uint256"
        }
      ],
      "stateMutability": "view",
      "type": "function"
    },
    {
      "inputs": [
        {
          "internalType": "address",
          "name": "spender",
          "type": "address"
        },
        {
          "internalType": "uint256",
          "name": "addedValue",
          "type": "uint256"
        }
      ],
      "name": "increaseAllowance",
      "outputs": [
        {
          "internalType": "bool",
          "name": "",
          "type": "bool"
        }
      ],
      "stateMutability": "nonpayable",
      "type": "function"
    },
    {
      "inputs": [
        {
          "internalType": "address",
          "name": "_wFIL",
          "type": "address"
        },
        {
          "internalType": "address",
          "name": "_addrRegistry",
          "type": "address"
        }
      ],
      "name": "initialize",
      "outputs": [],
      "stateMutability": "nonpayable",
      "type": "function"
    },
    {
      "inputs": [
        {
          "internalType": "address",
          "name": "",
          "type": "address"
        }
      ],
      "name": "maxDeposit",
      "outputs": [
        {
          "internalType": "uint256",
          "name": "",
          "type": "uint256"
        }
      ],
      "stateMutability": "view",
      "type": "function"
    },
    {
      "inputs": [
        {
          "internalType": "address",
          "name": "",
          "type": "address"
        }
      ],
      "name": "maxMint",
      "outputs": [
        {
          "internalType": "uint256",
          "name": "",
          "type": "uint256"
        }
      ],
      "stateMutability": "view",
      "type": "function"
    },
    {
      "inputs": [
        {
          "internalType": "address",
          "name": "owner",
          "type": "address"
        }
      ],
      "name": "maxRedeem",
      "outputs": [
        {
          "internalType": "uint256",
          "name": "",
          "type": "uint256"
        }
      ],
      "stateMutability": "view",
      "type": "function"
    },
    {
      "inputs": [
        {
          "internalType": "address",
          "name": "owner",
          "type": "address"
        }
      ],
      "name": "maxWithdraw",
      "outputs": [
        {
          "internalType": "uint256",
          "name": "",
          "type": "uint256"
        }
      ],
      "stateMutability": "view",
      "type": "function"
    },
    {
      "inputs": [
        {
          "internalType": "uint256",
          "name": "shares",
          "type": "uint256"
        },
        {
          "internalType": "address",
          "name": "receiver",
          "type": "address"
        }
      ],
      "name": "mint",
      "outputs": [
        {
          "internalType": "uint256",
          "name": "",
          "type": "uint256"
        }
      ],
      "stateMutability": "nonpayable",
      "type": "function"
    },
    {
      "inputs": [],
      "name": "name",
      "outputs": [
        {
          "internalType": "string",
          "name": "",
          "type": "string"
        }
      ],
      "stateMutability": "view",
      "type": "function"
    },
    {
      "inputs": [],
      "name": "owner",
      "outputs": [
        {
          "internalType": "address",
          "name": "",
          "type": "address"
        }
      ],
      "stateMutability": "view",
      "type": "function"
    },
    {
      "inputs": [
        {
          "internalType": "address",
          "name": "_to",
          "type": "address"
        },
        {
          "internalType": "uint256",
          "name": "_gasFee",
          "type": "uint256"
        }
      ],
      "name": "payBorrowed",
      "outputs": [
        {
          "internalType": "uint256",
          "name": "shares",
          "type": "uint256"
        }
      ],
      "stateMutability": "payable",
      "type": "function"
    },
    {
      "inputs": [],
      "name": "payInterest",
      "outputs": [],
      "stateMutability": "payable",
      "type": "function"
    },
    {
      "inputs": [
        {
          "internalType": "uint256",
          "name": "assets",
          "type": "uint256"
        }
      ],
      "name": "previewDeposit",
      "outputs": [
        {
          "internalType": "uint256",
          "name": "",
          "type": "uint256"
        }
      ],
      "stateMutability": "view",
      "type": "function"
    },
    {
      "inputs": [
        {
          "internalType": "uint256",
          "name": "shares",
          "type": "uint256"
        }
      ],
      "name": "previewMint",
      "outputs": [
        {
          "internalType": "uint256",
          "name": "",
          "type": "uint256"
        }
      ],
      "stateMutability": "view",
      "type": "function"
    },
    {
      "inputs": [
        {
          "internalType": "uint256",
          "name": "shares",
          "type": "uint256"
        }
      ],
      "name": "previewRedeem",
      "outputs": [
        {
          "internalType": "uint256",
          "name": "",
          "type": "uint256"
        }
      ],
      "stateMutability": "view",
      "type": "function"
    },
    {
      "inputs": [
        {
          "internalType": "uint256",
          "name": "assets",
          "type": "uint256"
        }
      ],
      "name": "previewWithdraw",
      "outputs": [
        {
          "internalType": "uint256",
          "name": "",
          "type": "uint256"
        }
      ],
      "stateMutability": "view",
      "type": "function"
    },
    {
      "inputs": [],
      "name": "proxiableUUID",
      "outputs": [
        {
          "internalType": "bytes32",
          "name": "",
          "type": "bytes32"
        }
      ],
      "stateMutability": "view",
      "type": "function"
    },
    {
      "inputs": [
        {
          "internalType": "uint256",
          "name": "shares",
          "type": "uint256"
        },
        {
          "internalType": "address",
          "name": "receiver",
          "type": "address"
        },
        {
          "internalType": "address",
          "name": "owner",
          "type": "address"
        }
      ],
      "name": "redeem",
      "outputs": [
        {
          "internalType": "uint256",
          "name": "",
          "type": "uint256"
        }
      ],
      "stateMutability": "nonpayable",
      "type": "function"
    },
    {
      "inputs": [],
      "name": "renounceOwnership",
      "outputs": [],
      "stateMutability": "nonpayable",
      "type": "function"
    },
    {
      "inputs": [
        {
          "internalType": "uint256",
          "name": "_days",
          "type": "uint256"
        }
      ],
      "name": "setExpireDates",
      "outputs": [
        {
          "internalType": "uint256",
          "name": "",
          "type": "uint256"
        }
      ],
      "stateMutability": "nonpayable",
      "type": "function"
    },
    {
      "inputs": [],
      "name": "symbol",
      "outputs": [
        {
          "internalType": "string",
          "name": "",
          "type": "string"
        }
      ],
      "stateMutability": "view",
      "type": "function"
    },
    {
      "inputs": [],
      "name": "totalAssets",
      "outputs": [
        {
          "internalType": "uint256",
          "name": "",
          "type": "uint256"
        }
      ],
      "stateMutability": "view",
      "type": "function"
    },
    {
      "inputs": [],
      "name": "totalAssetsBorrowed",
      "outputs": [
        {
          "internalType": "uint256",
          "name": "",
          "type": "uint256"
        }
      ],
      "stateMutability": "view",
      "type": "function"
    },
    {
      "inputs": [],
      "name": "totalSupply",
      "outputs": [
        {
          "internalType": "uint256",
          "name": "",
          "type": "uint256"
        }
      ],
      "stateMutability": "view",
      "type": "function"
    },
    {
      "inputs": [
        {
          "internalType": "address",
          "name": "to",
          "type": "address"
        },
        {
          "internalType": "uint256",
          "name": "amount",
          "type": "uint256"
        }
      ],
      "name": "transfer",
      "outputs": [
        {
          "internalType": "bool",
          "name": "",
          "type": "bool"
        }
      ],
      "stateMutability": "nonpayable",
      "type": "function"
    },
    {
      "inputs": [
        {
          "internalType": "address",
          "name": "from",
          "type": "address"
        },
        {
          "internalType": "address",
          "name": "to",
          "type": "address"
        },
        {
          "internalType": "uint256",
          "name": "amount",
          "type": "uint256"
        }
      ],
      "name": "transferFrom",
      "outputs": [
        {
          "internalType": "bool",
          "name": "",
          "type": "bool"
        }
      ],
      "stateMutability": "nonpayable",
      "type": "function"
    },
    {
      "inputs": [
        {
          "internalType": "address",
          "name": "newOwner",
          "type": "address"
        }
      ],
      "name": "transferOwnership",
      "outputs": [],
      "stateMutability": "nonpayable",
      "type": "function"
    },
    {
      "inputs": [
        {
          "internalType": "address",
          "name": "newImplementation",
          "type": "address"
        }
      ],
      "name": "upgradeTo",
      "outputs": [],
      "stateMutability": "nonpayable",
      "type": "function"
    },
    {
      "inputs": [
        {
          "internalType": "address",
          "name": "newImplementation",
          "type": "address"
        },
        {
          "internalType": "bytes",
          "name": "data",
          "type": "bytes"
        }
      ],
      "name": "upgradeToAndCall",
      "outputs": [],
      "stateMutability": "payable",
      "type": "function"
    },
    {
      "inputs": [
        {
          "internalType": "address",
          "name": "",
          "type": "address"
        }
      ],
      "name": "userIndex",
      "outputs": [
        {
          "internalType": "uint256",
          "name": "",
          "type": "uint256"
        }
      ],
      "stateMutability": "view",
      "type": "function"
    },
    {
      "inputs": [],
      "name": "wFIL",
      "outputs": [
        {
          "internalType": "contract IWFIL",
          "name": "",
          "type": "address"
        }
      ],
      "stateMutability": "view",
      "type": "function"
    },
    {
      "inputs": [
        {
          "internalType": "address",
          "name": "_from",
          "type": "address"
        },
        {
          "internalType": "address",
          "name": "_to",
          "type": "address"
        },
        {
          "internalType": "uint256",
          "name": "_amount",
          "type": "uint256"
        },
        {
          "internalType": "uint256",
          "name": "_gasFee",
          "type": "uint256"
        }
      ],
      "name": "withdraw",
      "outputs": [
        {
          "internalType": "uint256",
          "name": "shares",
          "type": "uint256"
        }
      ],
      "stateMutability": "nonpayable",
      "type": "function"
    },
    {
      "inputs": [
        {
          "internalType": "uint256",
          "name": "assets",
          "type": "uint256"
        },
        {
          "internalType": "address",
          "name": "receiver",
          "type": "address"
        },
        {
          "internalType": "address",
          "name": "owner",
          "type": "address"
        }
      ],
      "name": "withdraw",
      "outputs": [
        {
          "internalType": "uint256",
          "name": "",
          "type": "uint256"
        }
      ],
      "stateMutability": "nonpayable",
      "type": "function"
    },
    {
      "stateMutability": "payable",
      "type": "receive"
    }
  ],
  "numDeployments": 14,
  "solcInputHash": "3107c5271b23bf6f6f6c80dffbb60de4",
  "bytecode": "0x60a06040523060805234801561001457600080fd5b506080516137b961004c600039600081816109c801528181610a1101528181610cdc01528181610d1c0152610d9801526137b96000f3fe6080604052600436106102325760003560e01c806301e1d1141461023e57806306bf9d431461026957806306fdde031461028057806307a2d13a146102a2578063095ea7b3146102c25780630a28a477146102ef57806318160ddd1461030f57806320124bce1461032457806323b872dd14610339578063313ce567146103595780633659cfe61461037b57806338d52e0f1461039d57806339509351146103c4578063402d267d146103e4578063485cc955146104045780634bb9a398146104245780634cdad506146102a25780634f1ef2861461044457806352d1902d146104575780635c53ae9a1461046c57806365c965c6146104a35780636e553f65146104d157806370a08231146104f1578063715018a61461051157806371831ba2146105265780637bfe950c146105465780638da5cb5b146105665780639382c5e51461057b57806394bf804d1461059c57806395d89b41146105bc578063a15a211c146105d1578063a38deecf146105d9578063a457c2d7146105f0578063a9059cbb14610610578063b3d7f6b914610630578063b460af9414610650578063ba08765214610670578063bef4425614610690578063c5ebeaec146106b1578063c63d75b6146103e4578063c6e6f592146106d1578063c96679fe146106f1578063ce96cb771461071f578063d0e30db01461073f578063d905777e14610747578063dd62ed3e14610767578063e0f97c3f14610787578063ef8b30f7146106d1578063f2fde38b1461079a57600080fd5b3661023957005b600080fd5b34801561024a57600080fd5b506102536107ba565b6040516102609190612489565b60405180910390f35b34801561027557600080fd5b506102536101635481565b34801561028c57600080fd5b50610295610841565b60405161026091906124f9565b3480156102ae57600080fd5b506102536102bd366004612522565b6108d3565b3480156102ce57600080fd5b506102e26102dd36600461256e565b6108e6565b60405161026091906125b3565b3480156102fb57600080fd5b5061025361030a366004612522565b6108fe565b34801561031b57600080fd5b50603554610253565b34801561033057600080fd5b5061025361090b565b34801561034557600080fd5b506102e26103543660046125c1565b61097e565b34801561036557600080fd5b5061036e6109a4565b604051610260919061261a565b34801561038757600080fd5b5061039b610396366004612628565b6109be565b005b3480156103a957600080fd5b506065546001600160a01b03165b6040516102609190612652565b3480156103d057600080fd5b506102e26103df36600461256e565b610a8f565b3480156103f057600080fd5b506102536103ff366004612628565b610ab1565b34801561041057600080fd5b5061039b61041f366004612660565b610ab8565b34801561043057600080fd5b5061025361043f36600461256e565b610c62565b61039b610452366004612789565b610cd2565b34801561046357600080fd5b50610253610d8b565b34801561047857600080fd5b50610253610487366004612628565b6001600160a01b03166000908152610165602052604090205490565b3480156104af57600080fd5b50610160546104c4906001600160a01b031681565b604051610260919061280b565b3480156104dd57600080fd5b506102536104ec366004612819565b610de9565b3480156104fd57600080fd5b5061025361050c366004612628565b610e2c565b34801561051d57600080fd5b5061039b610e47565b34801561053257600080fd5b50610253610541366004612522565b610e5b565b34801561055257600080fd5b5061025361056136600461283b565b610e73565b34801561057257600080fd5b506103b7611018565b34801561058757600080fd5b50610161546104c4906001600160a01b031681565b3480156105a857600080fd5b506102536105b7366004612819565b611027565b3480156105c857600080fd5b5061029561106a565b61039b611079565b3480156105e557600080fd5b506102536101625481565b3480156105fc57600080fd5b506102e261060b36600461256e565b6111b3565b34801561061c57600080fd5b506102e261062b36600461256e565b6111fb565b34801561063c57600080fd5b5061025361064b366004612522565b611209565b34801561065c57600080fd5b5061025361066b36600461289f565b611216565b34801561067c57600080fd5b5061025361068b36600461289f565b61125a565b34801561069c57600080fd5b5061015f546104c4906001600160a01b031681565b3480156106bd57600080fd5b5061039b6106cc366004612522565b61129e565b3480156106dd57600080fd5b506102536106ec366004612522565b6113f4565b3480156106fd57600080fd5b5061025361070c366004612628565b6101656020526000908152604090205481565b34801561072b57600080fd5b5061025361073a366004612628565b611401565b610253611416565b34801561075357600080fd5b50610253610762366004612628565b611590565b34801561077357600080fd5b50610253610782366004612660565b61159b565b61025361079536600461256e565b6115c6565b3480156107a657600080fd5b5061039b6107b5366004612628565b61165a565b6101625461015f546040516370a0823160e01b8152600092916001600160a01b0316906370a08231906107f1903090600401612652565b602060405180830381865afa15801561080e573d6000803e3d6000fd5b505050506040513d601f19601f8201168201806040525081019061083291906128f0565b61083c9190612927565b905090565b60606036805461085090612950565b80601f016020809104026020016040519081016040528092919081815260200182805461087c90612950565b80156108c95780601f1061089e576101008083540402835291602001916108c9565b820191906000526020600020905b8154815290600101906020018083116108ac57829003601f168201915b5050505050905090565b60006108e0826000611691565b92915050565b6000336108f48185856116cb565b5060019392505050565b60006108e082600161177f565b61015f546040516370a0823160e01b81526000916001600160a01b0316906370a082319061093d903090600401612652565b602060405180830381865afa15801561095a573d6000803e3d6000fd5b505050506040513d601f19601f8201168201806040525081019061083c91906128f0565b60003361098c8582856117af565b6109978585856117f9565b60019150505b9392505050565b60008060655461083c9190600160a01b900460ff1661297c565b6001600160a01b037f0000000000000000000000000000000000000000000000000000000000000000163003610a0f5760405162461bcd60e51b8152600401610a06906129d3565b60405180910390fd5b7f00000000000000000000000000000000000000000000000000000000000000006001600160a01b0316610a416118d7565b6001600160a01b031614610a675760405162461bcd60e51b8152600401610a0690612a1a565b610a70816118f3565b60408051600080825260208201909252610a8c918391906118fb565b50565b6000336108f4818585610aa2838361159b565b610aac9190612927565b6116cb565b5060001990565b600054610100900460ff1615808015610ad85750600054600160ff909116105b80610af95750610ae7306119dd565b158015610af9575060005460ff166001145b610b155760405162461bcd60e51b8152600401610a0690612a75565b6000805460ff191660011790558015610b38576000805461ff0019166101001790555b610b7a604051806040016040528060048152602001631e91925360e21b815250604051806040016040528060048152602001631e91925360e21b8152506119ec565b610b8330611a1d565b610b8b611a4d565b610b93611a7c565b610b9b611aab565b61015f80546001600160a01b038086166001600160a01b0319928316179092556101608054928516929091169190911790556000610be269014542ba12a337c000006113f4565b9050610bee3382611ad2565b69014542ba12a337c000006101626000828254610c0b9190612927565b909155505081159050610c5d576000805461ff00191690556040517f7f26b83ff96e1f2b6a682f133852f6798a09c465da95921460cefb384740249890610c5490600190612a9a565b60405180910390a15b505050565b6001600160a01b0382166000908152610164602090815260408083208484529091528120600101544210610c98575060006108e0565b6001600160a01b038316600090815261016460209081526040808320858452909152902060010154610ccb904290612aa8565b90506108e0565b6001600160a01b037f0000000000000000000000000000000000000000000000000000000000000000163003610d1a5760405162461bcd60e51b8152600401610a06906129d3565b7f00000000000000000000000000000000000000000000000000000000000000006001600160a01b0316610d4c6118d7565b6001600160a01b031614610d725760405162461bcd60e51b8152600401610a0690612a1a565b610d7b826118f3565b610d87828260016118fb565b5050565b6000306001600160a01b037f00000000000000000000000000000000000000000000000000000000000000001614610dd55760405162461bcd60e51b8152600401610a0690612b10565b5060008051602061371d8339815191525b90565b6000610df482610ab1565b831115610e135760405162461bcd60e51b8152600401610a0690612b57565b6000610e1e846113f4565b905061099d33848684611b56565b6001600160a01b031660009081526033602052604090205490565b610e4f611bcb565b610e596000611bfa565b565b6000610e65611bcb565b50610163819055805b919050565b6000610e7d611bcb565b610e85611c4c565b610e8e836108fe565b9050610e9a8582611c75565b61015f546040516370a0823160e01b81526000916001600160a01b0316906370a0823190610ecc903090600401612652565b602060405180830381865afa158015610ee9573d6000803e3d6000fd5b505050506040513d601f19601f82011682018060405250810190610f0d91906128f0565b905083811015610f305760405163356680b760e01b815260040160405180910390fd5b8015610fbf5761015f54604051632e1a7d4d60e01b81526001600160a01b0390911690632e1a7d4d90610f67908790600401612489565b600060405180830381600087803b158015610f8157600080fd5b505af1158015610f95573d6000803e3d6000fd5b50505050610fae858486610fa99190612aa8565b611d1a565b610fbf610fb9611018565b84611d1a565b7ff341246adaac6f497bc2a656f546ab9e182111d630394f0c57c710a59a2cb5678686610fec8688612aa8565b86604051610ffd9493929190612b67565b60405180910390a1506110106001609755565b949350505050565b60c9546001600160a01b031690565b600061103282610ab1565b8311156110515760405162461bcd60e51b8152600401610a0690612bce565b600061105c84611209565b905061099d33848387611b56565b60606037805461085090612950565b610160546040805163fbfa77cf60e01b8152905133926001600160a01b03169163fbfa77cf9160048083019260209291908290030181865afa1580156110c3573d6000803e3d6000fd5b505050506040513d601f19601f820116820180604052508101906110e79190612be9565b6001600160a01b03161461110e5760405163c732d64360e01b815260040160405180910390fd5b61015f60009054906101000a90046001600160a01b03166001600160a01b031663d0e30db0346040518263ffffffff1660e01b81526004016000604051808303818588803b15801561115f57600080fd5b505af1158015611173573d6000803e3d6000fd5b50505050507fe3987e0dbdbf4e59549b9a515a30f3b915efabc9a33f465a6da4db771831efaf33346040516111a9929190612c0a565b60405180910390a1565b600033816111c1828661159b565b9050838110156111e35760405162461bcd60e51b8152600401610a0690612c67565b6111f082868684036116cb565b506001949350505050565b6000336108f48185856117f9565b60006108e0826001611691565b600061122182611401565b8411156112405760405162461bcd60e51b8152600401610a0690612cab565b600061124b856108fe565b90506110103385858885611d4c565b600061126582611590565b8411156112845760405162461bcd60e51b8152600401610a0690612cef565b600061128f856108d3565b90506110103385858489611d4c565b610160546040805163fbfa77cf60e01b8152905133926001600160a01b03169163fbfa77cf9160048083019260209291908290030181865afa1580156112e8573d6000803e3d6000fd5b505050506040513d601f19601f8201168201806040525081019061130c9190612be9565b6001600160a01b0316146113335760405163c732d64360e01b815260040160405180910390fd5b8061016260008282546113469190612927565b909155505061015f54604051632e1a7d4d60e01b81526001600160a01b0390911690632e1a7d4d9061137c908490600401612489565b600060405180830381600087803b15801561139657600080fd5b505af11580156113aa573d6000803e3d6000fd5b505050506113b83382611d1a565b7fcbc04eca7e9da35cb1393a6135a199ca52e450d5e9251cbd99f7847d33a3675033826040516113e9929190612c0a565b60405180910390a150565b60006108e082600061177f565b60006108e061140f83610e2c565b6000611691565b6000611420611c4c565b3461142a33610ab1565b81111561144a57604051630cd8567560e21b815260040160405180910390fd5b611453816113f4565b91508160000361147657604051636646782360e01b815260040160405180910390fd5b33600090815261016560209081526040808320546101648352818420818552909252909120829055610163546114af9062015180612cff565b6114ba4260b4612927565b6114c49190612927565b336000908152610164602090815260408083208584529091528082206001019290925561015f548251630d0e30db60e41b815292516001600160a01b039091169263d0e30db092869260048084019382900301818588803b15801561152857600080fd5b505af115801561153c573d6000803e3d6000fd5b505050505061154b3384611ad2565b7fe1fffcc4923d04b559f4d29a8bfc6cda04eb5b0d3c460751c2402c5c5cc9109c338360405161157c929190612c0a565b60405180910390a15050610de66001609755565b60006108e082610e2c565b6001600160a01b03918216600090815260346020908152604080832093909416825291909152205490565b60006115d0611bcb565b346115da816108fe565b91506115e68483611c75565b8061016260008282546115f99190612aa8565b9091555061160d905084610fa98584612aa8565b611618610fb9611018565b7f0d6766cd8c53d5e23032d2efaf062562cd46711f41929904a00848ed0ce9f8cf84828560405161164b93929190612d1e565b60405180910390a15092915050565b611662611bcb565b6001600160a01b0381166116885760405162461bcd60e51b8152600401610a0690612d89565b610a8c81611bfa565b600061099d61169e6107ba565b6116a9906001612927565b6116b56000600a612ea7565b6035546116c29190612927565b85919085611def565b6001600160a01b0383166116f15760405162461bcd60e51b8152600401610a0690612efd565b6001600160a01b0382166117175760405162461bcd60e51b8152600401610a0690612f4c565b6001600160a01b0380841660008181526034602090815260408083209487168084529490915290819020849055517f8c5be1e5ebec7d5bd14f71427d1e84f3dd0314c0f7b2291e5b200ac8c7c3b92590611772908590612489565b60405180910390a3505050565b600061099d61178f82600a612ea7565b60355461179c9190612927565b6117a46107ba565b6116c2906001612927565b60006117bb848461159b565b905060001981146117f357818110156117e65760405162461bcd60e51b8152600401610a0690612f90565b6117f384848484036116cb565b50505050565b6001600160a01b03831661181f5760405162461bcd60e51b8152600401610a0690612fe2565b6001600160a01b0382166118455760405162461bcd60e51b8152600401610a0690613032565b6001600160a01b0383166000908152603360205260409020548181101561187e5760405162461bcd60e51b8152600401610a0690613085565b6001600160a01b038085166000818152603360205260408082208686039055928616808252908390208054860190559151600080516020613764833981519152906118ca908690612489565b60405180910390a36117f3565b60008051602061371d833981519152546001600160a01b031690565b610a8c611bcb565b7f4910fdfa16fed3260ed0e7147f7cc6da11a60208b5b9406d12a635614ffd91435460ff161561192e57610c5d83611e4c565b826001600160a01b03166352d1902d6040518163ffffffff1660e01b8152600401602060405180830381865afa925050508015611988575060408051601f3d908101601f19168201909252611985918101906128f0565b60015b6119a45760405162461bcd60e51b8152600401610a06906130e0565b60008051602061371d83398151915281146119d15760405162461bcd60e51b8152600401610a0690613136565b50610c5d838383611ea0565b6001600160a01b03163b151590565b600054610100900460ff16611a135760405162461bcd60e51b8152600401610a069061318e565b610d878282611ec5565b600054610100900460ff16611a445760405162461bcd60e51b8152600401610a069061318e565b610a8c81611f05565b600054610100900460ff16611a745760405162461bcd60e51b8152600401610a069061318e565b610e59611f8a565b600054610100900460ff16611aa35760405162461bcd60e51b8152600401610a069061318e565b610e59611fb1565b600054610100900460ff16610e595760405162461bcd60e51b8152600401610a069061318e565b6001600160a01b038216611af85760405162461bcd60e51b8152600401610a06906131d2565b8060356000828254611b0a9190612927565b90915550506001600160a01b0382166000818152603360205260408082208054850190555160008051602061376483398151915290611b4a908590612489565b60405180910390a35050565b606554611b6e906001600160a01b0316853085611fe1565b611b788382611ad2565b826001600160a01b0316846001600160a01b03167fdcbc1c05240f31ff3ad067ef1ee35ce4997762752e3a095284754544f4c709d78484604051611bbd9291906131e2565b60405180910390a350505050565b33611bd4611018565b6001600160a01b031614610e595760405162461bcd60e51b8152600401610a0690613222565b60c980546001600160a01b038381166001600160a01b0319831681179093556040519116919082907f8be0079c531659141344cd1fd0a4f28419497f9722a3daafe3b4186f6b6457e090600090a35050565b600260975403611c6e5760405162461bcd60e51b8152600401610a0690613266565b6002609755565b6001600160a01b038216611c9b5760405162461bcd60e51b8152600401610a06906132b4565b6001600160a01b03821660009081526033602052604090205481811015611cd45760405162461bcd60e51b8152600401610a0690613303565b6001600160a01b03831660008181526033602052604080822085850390556035805486900390555190919060008051602061376483398151915290611772908690612489565b600080600080600085875af1905080610c5d5760405162461bcd60e51b8152600401610a069061333d565b6001609755565b826001600160a01b0316856001600160a01b031614611d7057611d708386836117af565b611d7a8382611c75565b606554611d91906001600160a01b03168584612039565b826001600160a01b0316846001600160a01b0316866001600160a01b03167ffbde797d201c681b91056529119e0b02407c7bb96a4a2c75c01fc9667232c8db8585604051611de09291906131e2565b60405180910390a45050505050565b600080611dfd868686612058565b90506001836002811115611e1357611e1361334d565b148015611e30575060008480611e2b57611e2b613363565b868809115b15611e4357611e40600182612927565b90505b95945050505050565b611e55816119dd565b611e715760405162461bcd60e51b8152600401610a06906133c3565b60008051602061371d83398151915280546001600160a01b0319166001600160a01b0392909216919091179055565b611ea98361211a565b600082511180611eb65750805b15610c5d576117f3838361215a565b600054610100900460ff16611eec5760405162461bcd60e51b8152600401610a069061318e565b6036611ef88382613497565b506037610c5d8282613497565b600054610100900460ff16611f2c5760405162461bcd60e51b8152600401610a069061318e565b600080611f388361217f565b9150915081611f48576012611f4a565b805b606580546001600160a01b039095166001600160a01b031960ff93909316600160a01b02929092166001600160a81b031990951694909417179092555050565b600054610100900460ff16611d455760405162461bcd60e51b8152600401610a069061318e565b600054610100900460ff16611fd85760405162461bcd60e51b8152600401610a069061318e565b610e5933611bfa565b6117f3846323b872dd60e01b85858560405160240161200293929190613555565b60408051601f198184030181529190526020810180516001600160e01b03166001600160e01b03199093169290921790915261225b565b610c5d8363a9059cbb60e01b8484604051602401612002929190612c0a565b60008080600019858709858702925082811083820303915050806000036120925783828161208857612088613363565b049250505061099d565b8084116120b15760405162461bcd60e51b8152600401610a069061359c565b60008486880960026001871981018816978890046003810283188082028403028082028403028082028403028082028403028082028403029081029092039091026000889003889004909101858311909403939093029303949094049190911702949350505050565b61212381611e4c565b6040516001600160a01b038216907fbc7cd75a20ee27fd9adebab32041f755214dbc6bffa90cc0225b39da2e5c2d3b90600090a250565b606061099d838360405180606001604052806027815260200161373d602791396122ed565b60408051600481526024810182526020810180516001600160e01b031663313ce56760e01b17905290516000918291829182916001600160a01b038716916121c6916135ce565b600060405180830381855afa9150503d8060008114612201576040519150601f19603f3d011682016040523d82523d6000602084013e612206565b606091505b509150915081801561221a57506020815110155b1561224e5760008180602001905181019061223591906128f0565b905060ff811161224c576001969095509350505050565b505b5060009485945092505050565b60006122b0826040518060400160405280602081526020017f5361666545524332303a206c6f772d6c6576656c2063616c6c206661696c6564815250856001600160a01b03166123659092919063ffffffff16565b90508051600014806122d15750808060200190518101906122d191906135ed565b610c5d5760405162461bcd60e51b8152600401610a0690613655565b6060600080856001600160a01b03168560405161230a91906135ce565b600060405180830381855af49150503d8060008114612345576040519150601f19603f3d011682016040523d82523d6000602084013e61234a565b606091505b509150915061235b86838387612374565b9695505050505050565b606061101084846000856123bb565b606083156123b15782516000036123aa5761238e856119dd565b6123aa5760405162461bcd60e51b8152600401610a0690613699565b5081611010565b6110108383612457565b6060824710156123dd5760405162461bcd60e51b8152600401610a06906136ec565b600080866001600160a01b031685876040516123f991906135ce565b60006040518083038185875af1925050503d8060008114612436576040519150601f19603f3d011682016040523d82523d6000602084013e61243b565b606091505b509150915061244c87838387612374565b979650505050505050565b8151156124675781518083602001fd5b8060405162461bcd60e51b8152600401610a0691906124f9565b805b82525050565b602081016108e08284612481565b60005b838110156124b257818101518382015260200161249a565b50506000910152565b601f01601f191690565b60006124cf825190565b8084526020840193506124e6818560208601612497565b6124ef816124bb565b9093019392505050565b6020808252810161099d81846124c5565b805b8114610a8c57600080fd5b80356108e08161250a565b60006020828403121561253757612537600080fd5b60006110108484612517565b6001600160a01b031690565b60006108e082612543565b61250c8161254f565b80356108e08161255a565b6000806040838503121561258457612584600080fd5b60006125908585612563565b92505060206125a185828601612517565b9150509250929050565b801515612483565b602081016108e082846125ab565b6000806000606084860312156125d9576125d9600080fd5b60006125e58686612563565b93505060206125f686828701612563565b925050604061260786828701612517565b9150509250925092565b60ff8116612483565b602081016108e08284612611565b60006020828403121561263d5761263d600080fd5b60006110108484612563565b6124838161254f565b602081016108e08284612649565b6000806040838503121561267657612676600080fd5b60006126828585612563565b92505060206125a185828601612563565b634e487b7160e01b600052604160045260246000fd5b6126b2826124bb565b81018181106001600160401b03821117156126cf576126cf612693565b6040525050565b60006126e160405190565b9050610e6e82826126a9565b60006001600160401b0382111561270657612706612693565b61270f826124bb565b60200192915050565b82818337506000910152565b6000612737612732846126ed565b6126d6565b90508281526020810184848401111561275257612752600080fd5b61275d848285612718565b509392505050565b600082601f83011261277957612779600080fd5b8135611010848260208601612724565b6000806040838503121561279f5761279f600080fd5b60006127ab8585612563565b92505060208301356001600160401b038111156127ca576127ca600080fd5b6125a185828601612765565b60006108e06127e7610de684612543565b612543565b60006108e0826127d6565b60006108e0826127ec565b612483816127f7565b602081016108e08284612802565b6000806040838503121561282f5761282f600080fd5b60006126828585612517565b6000806000806080858703121561285457612854600080fd5b60006128608787612563565b945050602061287187828801612563565b935050604061288287828801612517565b925050606061289387828801612517565b91505092959194509250565b6000806000606084860312156128b7576128b7600080fd5b60006128c38686612517565b93505060206128d486828701612563565b925050604061260786828701612563565b80516108e08161250a565b60006020828403121561290557612905600080fd5b600061101084846128e5565b634e487b7160e01b600052601160045260246000fd5b808201808211156108e0576108e0612911565b634e487b7160e01b600052602260045260246000fd5b60028104600182168061296457607f821691505b6020821081036129765761297661293a565b50919050565b60ff9182169190811690828201908111156108e0576108e0612911565b602c81526000602082016000805160206136fd83398151915281526b19195b1959d85d1958d85b1b60a21b602082015291505b5060400190565b602080825281016108e081612999565b602c81526000602082016000805160206136fd83398151915281526b6163746976652070726f787960a01b602082015291506129cc565b602080825281016108e0816129e3565b602e81526000602082017f496e697469616c697a61626c653a20636f6e747261637420697320616c72656181526d191e481a5b9a5d1a585b1a5e995960921b602082015291506129cc565b602080825281016108e081612a2a565b60ff1690565b6124838160006108e082612a85565b602081016108e08284612a8b565b818103818111156108e0576108e0612911565b603881526000602082017f555550535570677261646561626c653a206d757374206e6f742062652063616c8152771b1959081d1a1c9bdd59da0819195b1959d85d1958d85b1b60421b602082015291506129cc565b602080825281016108e081612abb565b601e81526000602082017f455243343632363a206465706f736974206d6f7265207468616e206d61780000815291505b5060200190565b602080825281016108e081612b20565b60808101612b758287612649565b612b826020830186612649565b612b8f6040830185612481565b611e436060830184612481565b601b81526000602082017a08aa486686c646c7440dad2dce840dadee4ca40e8d0c2dc40dac2f602b1b81529150612b50565b602080825281016108e081612b9c565b80516108e08161255a565b600060208284031215612bfe57612bfe600080fd5b60006110108484612bde565b60408101612c188285612649565b61099d6020830184612481565b602581526000602082017f45524332303a2064656372656173656420616c6c6f77616e63652062656c6f77815264207a65726f60d81b602082015291506129cc565b602080825281016108e081612c25565b601f81526000602082017f455243343632363a207769746864726177206d6f7265207468616e206d61780081529150612b50565b602080825281016108e081612c77565b601d81526000602082017f455243343632363a2072656465656d206d6f7265207468616e206d617800000081529150612b50565b602080825281016108e081612cbb565b818102808215838204851417612d1757612d17612911565b5092915050565b60608101612d2c8286612649565b612d396020830185612481565b6110106040830184612481565b602681526000602082017f4f776e61626c653a206e6577206f776e657220697320746865207a65726f206181526564647265737360d01b602082015291506129cc565b602080825281016108e081612d46565b80825b6001851115612dd857808604811115612db757612db7612911565b6001851615612dc557908102905b8002612dd18560011c90565b9450612d9c565b94509492505050565b600082612df05750600161099d565b81612dfd5750600061099d565b8160018114612e135760028114612e1d57612e4a565b600191505061099d565b60ff841115612e2e57612e2e612911565b8360020a915084821115612e4457612e44612911565b5061099d565b5060208310610133831016604e8410600b8410161715612e7d575081810a83811115612e7857612e78612911565b61099d565b612e8a8484846001612d99565b92509050818404811115612ea057612ea0612911565b0292915050565b600060ff8316925061099d6000198484612de1565b602481526000602082017f45524332303a20617070726f76652066726f6d20746865207a65726f206164648152637265737360e01b602082015291506129cc565b602080825281016108e081612ebc565b602281526000602082017f45524332303a20617070726f766520746f20746865207a65726f206164647265815261737360f01b602082015291506129cc565b602080825281016108e081612f0d565b601d81526000602082017f45524332303a20696e73756666696369656e7420616c6c6f77616e636500000081529150612b50565b602080825281016108e081612f5c565b602581526000602082017f45524332303a207472616e736665722066726f6d20746865207a65726f206164815264647265737360d81b602082015291506129cc565b602080825281016108e081612fa0565b602381526000602082017f45524332303a207472616e7366657220746f20746865207a65726f206164647281526265737360e81b602082015291506129cc565b602080825281016108e081612ff2565b602681526000602082017f45524332303a207472616e7366657220616d6f756e7420657863656564732062815265616c616e636560d01b602082015291506129cc565b602080825281016108e081613042565b602e81526000602082017f45524331393637557067726164653a206e657720696d706c656d656e7461746981526d6f6e206973206e6f74205555505360901b602082015291506129cc565b602080825281016108e081613095565b602981526000602082017f45524331393637557067726164653a20756e737570706f727465642070726f788152681a58589b195555525160ba1b602082015291506129cc565b602080825281016108e0816130f0565b602b81526000602082017f496e697469616c697a61626c653a20636f6e7472616374206973206e6f74206981526a6e697469616c697a696e6760a81b602082015291506129cc565b602080825281016108e081613146565b601f81526000602082017f45524332303a206d696e7420746f20746865207a65726f20616464726573730081529150612b50565b602080825281016108e08161319e565b60408101612c188285612481565b60208082527f4f776e61626c653a2063616c6c6572206973206e6f7420746865206f776e657291019081526000612b50565b602080825281016108e0816131f0565b601f81526000602082017f5265656e7472616e637947756172643a207265656e7472616e742063616c6c0081529150612b50565b602080825281016108e081613232565b602181526000602082017f45524332303a206275726e2066726f6d20746865207a65726f206164647265738152607360f81b602082015291506129cc565b602080825281016108e081613276565b602281526000602082017f45524332303a206275726e20616d6f756e7420657863656564732062616c616e815261636560f01b602082015291506129cc565b602080825281016108e0816132c4565b601381526000602082017211551217d514905394d1915497d19052531151606a1b81529150612b50565b602080825281016108e081613313565b634e487b7160e01b600052602160045260246000fd5b634e487b7160e01b600052601260045260246000fd5b602d81526000602082017f455243313936373a206e657720696d706c656d656e746174696f6e206973206e81526c1bdd08184818dbdb9d1c9858dd609a1b602082015291506129cc565b602080825281016108e081613379565b60006108e0610de68381565b6133e8836133d3565b815460001960089490940293841b1916921b91909117905550565b6000610c5d8184846133df565b81811015610d8757613423600082613403565b600101613410565b601f821115610c5d576000818152602090206020601f850104810160208510156134525750805b6134646020601f860104830182613410565b5050505050565b6000196008929092029190911c191690565b6000613489838361346b565b600290930290921792915050565b81516001600160401b038111156134b0576134b0612693565b6134ba8254612950565b6134c582828561342b565b6020601f8311600181146134f357600084156134e15750858201515b6134eb858261347d565b86555061354d565b600085815260208120601f198616915b828110156135235788850151825560209485019460019092019101613503565b86831015613540578489015161353c601f89168261346b565b8355505b6001600288020188555050505b505050505050565b606081016135638286612649565b612d396020830185612649565b60158152600060208201744d6174683a206d756c446976206f766572666c6f7760581b81529150612b50565b602080825281016108e081613570565b60006135b6825190565b6135c4818560208601612497565b9290920192915050565b600061099d82846135ac565b80151561250c565b80516108e0816135da565b60006020828403121561360257613602600080fd5b600061101084846135e2565b602a81526000602082017f5361666545524332303a204552433230206f7065726174696f6e20646964206e8152691bdd081cdd58d8d9595960b21b602082015291506129cc565b602080825281016108e08161360e565b601d81526000602082017f416464726573733a2063616c6c20746f206e6f6e2d636f6e747261637400000081529150612b50565b602080825281016108e081613665565b602681526000602082017f416464726573733a20696e73756666696369656e742062616c616e636520666f8152651c8818d85b1b60d21b602082015291506129cc565b602080825281016108e0816136a956fe46756e6374696f6e206d7573742062652063616c6c6564207468726f75676820360894a13ba1a3210667c828492db98dca3e2076cc3735a920a3ca505d382bbc416464726573733a206c6f772d6c6576656c2064656c65676174652063616c6c206661696c6564ddf252ad1be2c89b69c2b068fc378daa952ba7f163c4a11628f55a4df523b3efa2646970667358221220a7fd63ae21267523e7aa4d2335b89c7c495c2b9a607d42eb1dcd3e4ddca4c7d064736f6c63430008130033",
  "implementation": "0x8f3939642cAEC9d1ad14E34b8cC2A1575c856C79",
  "devdoc": {
    "events": {
      "AdminChanged(address,address)": {
        "details": "Emitted when the admin account has changed."
      },
      "Approval(address,address,uint256)": {
        "details": "Emitted when the allowance of a `spender` for an `owner` is set by a call to {approve}. `value` is the new allowance."
      },
      "BeaconUpgraded(address)": {
        "details": "Emitted when the beacon is changed."
      },
      "Initialized(uint8)": {
        "details": "Triggered when the contract has been initialized or reinitialized."
      },
      "Transfer(address,address,uint256)": {
        "details": "Emitted when `value` tokens are moved from one account (`from`) to another (`to`). Note that `value` may be zero."
      },
      "Upgraded(address)": {
        "details": "Emitted when the implementation is upgraded."
      }
    },
    "kind": "dev",
    "methods": {
      "allowance(address,address)": {
        "details": "See {IERC20-allowance}."
      },
      "approve(address,uint256)": {
        "details": "See {IERC20-approve}. NOTE: If `amount` is the maximum `uint256`, the allowance is not updated on `transferFrom`. This is semantically equivalent to an infinite approval. Requirements: - `spender` cannot be the zero address."
      },
      "asset()": {
        "details": "See {IERC4626-asset}. "
      },
      "balanceOf(address)": {
        "details": "See {IERC20-balanceOf}."
      },
      "convertToAssets(uint256)": {
        "details": "See {IERC4626-convertToAssets}. "
      },
      "convertToShares(uint256)": {
        "details": "See {IERC4626-convertToShares}. "
      },
      "decimals()": {
        "details": "Decimals are computed by adding the decimal offset on top of the underlying asset's decimals. This \"original\" value is cached during construction of the vault contract. If this read operation fails (e.g., the asset has not been created yet), a default of 18 is used to represent the underlying asset's decimals. See {IERC20Metadata-decimals}."
      },
      "decreaseAllowance(address,uint256)": {
        "details": "Atomically decreases the allowance granted to `spender` by the caller. This is an alternative to {approve} that can be used as a mitigation for problems described in {IERC20-approve}. Emits an {Approval} event indicating the updated allowance. Requirements: - `spender` cannot be the zero address. - `spender` must have allowance for the caller of at least `subtractedValue`."
      },
      "deposit(uint256,address)": {
        "details": "See {IERC4626-deposit}. "
      },
      "increaseAllowance(address,uint256)": {
        "details": "Atomically increases the allowance granted to `spender` by the caller. This is an alternative to {approve} that can be used as a mitigation for problems described in {IERC20-approve}. Emits an {Approval} event indicating the updated allowance. Requirements: - `spender` cannot be the zero address."
      },
      "maxDeposit(address)": {
        "details": "See {IERC4626-maxDeposit}. "
      },
      "maxMint(address)": {
        "details": "See {IERC4626-maxMint}. "
      },
      "maxRedeem(address)": {
        "details": "See {IERC4626-maxRedeem}. "
      },
      "maxWithdraw(address)": {
        "details": "See {IERC4626-maxWithdraw}. "
      },
      "mint(uint256,address)": {
        "details": "See {IERC4626-mint}. As opposed to {deposit}, minting is allowed even if the vault is in a state where the price of a share is zero. In this case, the shares will be minted without requiring any assets to be deposited."
      },
      "name()": {
        "details": "Returns the name of the token."
      },
      "owner()": {
        "details": "Returns the address of the current owner."
      },
      "previewDeposit(uint256)": {
        "details": "See {IERC4626-previewDeposit}. "
      },
      "previewMint(uint256)": {
        "details": "See {IERC4626-previewMint}. "
      },
      "previewRedeem(uint256)": {
        "details": "See {IERC4626-previewRedeem}. "
      },
      "previewWithdraw(uint256)": {
        "details": "See {IERC4626-previewWithdraw}. "
      },
      "proxiableUUID()": {
        "details": "Implementation of the ERC1822 {proxiableUUID} function. This returns the storage slot used by the implementation. It is used to validate the implementation's compatibility when performing an upgrade. IMPORTANT: A proxy pointing at a proxiable contract should not be considered proxiable itself, because this risks bricking a proxy that upgrades to it, by delegating to itself until out of gas. Thus it is critical that this function revert if invoked through a proxy. This is guaranteed by the `notDelegated` modifier."
      },
      "redeem(uint256,address,address)": {
        "details": "See {IERC4626-redeem}. "
      },
      "renounceOwnership()": {
        "details": "Leaves the contract without owner. It will not be possible to call `onlyOwner` functions. Can only be called by the current owner. NOTE: Renouncing ownership will leave the contract without an owner, thereby disabling any functionality that is only available to the owner."
      },
      "symbol()": {
        "details": "Returns the symbol of the token, usually a shorter version of the name."
      },
      "totalAssets()": {
        "details": "See {IERC4626-totalAssets}. "
      },
      "totalSupply()": {
        "details": "See {IERC20-totalSupply}."
      },
      "transfer(address,uint256)": {
        "details": "See {IERC20-transfer}. Requirements: - `to` cannot be the zero address. - the caller must have a balance of at least `amount`."
      },
      "transferFrom(address,address,uint256)": {
        "details": "See {IERC20-transferFrom}. Emits an {Approval} event indicating the updated allowance. This is not required by the EIP. See the note at the beginning of {ERC20}. NOTE: Does not update the allowance if the current allowance is the maximum `uint256`. Requirements: - `from` and `to` cannot be the zero address. - `from` must have a balance of at least `amount`. - the caller must have allowance for ``from``'s tokens of at least `amount`."
      },
      "transferOwnership(address)": {
        "details": "Transfers ownership of the contract to a new account (`newOwner`). Can only be called by the current owner."
      },
      "upgradeTo(address)": {
        "custom:oz-upgrades-unsafe-allow-reachable": "delegatecall",
        "details": "Upgrade the implementation of the proxy to `newImplementation`. Calls {_authorizeUpgrade}. Emits an {Upgraded} event."
      },
      "upgradeToAndCall(address,bytes)": {
        "custom:oz-upgrades-unsafe-allow-reachable": "delegatecall",
        "details": "Upgrade the implementation of the proxy to `newImplementation`, and subsequently execute the function call encoded in `data`. Calls {_authorizeUpgrade}. Emits an {Upgraded} event."
      },
      "withdraw(uint256,address,address)": {
        "details": "See {IERC4626-withdraw}. "
      }
    },
    "version": 1
  },
  "userdoc": {
    "kind": "user",
    "methods": {},
    "version": 1
  },
  "storageLayout": {
    "storage": [
      {
        "astId": 673,
        "contract": "contracts/pool/FilmountainPoolV0.sol:FilmountainPoolV0",
        "label": "_initialized",
        "offset": 0,
        "slot": "0",
        "type": "t_uint8"
      },
      {
        "astId": 676,
        "contract": "contracts/pool/FilmountainPoolV0.sol:FilmountainPoolV0",
        "label": "_initializing",
        "offset": 1,
        "slot": "0",
        "type": "t_bool"
      },
      {
        "astId": 3216,
        "contract": "contracts/pool/FilmountainPoolV0.sol:FilmountainPoolV0",
        "label": "__gap",
        "offset": 0,
        "slot": "1",
        "type": "t_array(t_uint256)50_storage"
      },
      {
        "astId": 1077,
        "contract": "contracts/pool/FilmountainPoolV0.sol:FilmountainPoolV0",
        "label": "_balances",
        "offset": 0,
        "slot": "51",
        "type": "t_mapping(t_address,t_uint256)"
      },
      {
        "astId": 1083,
        "contract": "contracts/pool/FilmountainPoolV0.sol:FilmountainPoolV0",
        "label": "_allowances",
        "offset": 0,
        "slot": "52",
        "type": "t_mapping(t_address,t_mapping(t_address,t_uint256))"
      },
      {
        "astId": 1085,
        "contract": "contracts/pool/FilmountainPoolV0.sol:FilmountainPoolV0",
        "label": "_totalSupply",
        "offset": 0,
        "slot": "53",
        "type": "t_uint256"
      },
      {
        "astId": 1087,
        "contract": "contracts/pool/FilmountainPoolV0.sol:FilmountainPoolV0",
        "label": "_name",
        "offset": 0,
        "slot": "54",
        "type": "t_string_storage"
      },
      {
        "astId": 1089,
        "contract": "contracts/pool/FilmountainPoolV0.sol:FilmountainPoolV0",
        "label": "_symbol",
        "offset": 0,
        "slot": "55",
        "type": "t_string_storage"
      },
      {
        "astId": 1669,
        "contract": "contracts/pool/FilmountainPoolV0.sol:FilmountainPoolV0",
        "label": "__gap",
        "offset": 0,
        "slot": "56",
        "type": "t_array(t_uint256)45_storage"
      },
      {
        "astId": 1769,
        "contract": "contracts/pool/FilmountainPoolV0.sol:FilmountainPoolV0",
        "label": "_asset",
        "offset": 0,
        "slot": "101",
        "type": "t_contract(IERC20Upgradeable)1748"
      },
      {
        "astId": 1771,
        "contract": "contracts/pool/FilmountainPoolV0.sol:FilmountainPoolV0",
        "label": "_underlyingDecimals",
        "offset": 20,
        "slot": "101",
        "type": "t_uint8"
      },
      {
        "astId": 2398,
        "contract": "contracts/pool/FilmountainPoolV0.sol:FilmountainPoolV0",
        "label": "__gap",
        "offset": 0,
        "slot": "102",
        "type": "t_array(t_uint256)49_storage"
      },
      {
        "astId": 987,
        "contract": "contracts/pool/FilmountainPoolV0.sol:FilmountainPoolV0",
        "label": "_status",
        "offset": 0,
        "slot": "151",
        "type": "t_uint256"
      },
      {
        "astId": 1056,
        "contract": "contracts/pool/FilmountainPoolV0.sol:FilmountainPoolV0",
        "label": "__gap",
        "offset": 0,
        "slot": "152",
        "type": "t_array(t_uint256)49_storage"
      },
      {
        "astId": 11,
        "contract": "contracts/pool/FilmountainPoolV0.sol:FilmountainPoolV0",
        "label": "_owner",
        "offset": 0,
        "slot": "201",
        "type": "t_address"
      },
      {
        "astId": 131,
        "contract": "contracts/pool/FilmountainPoolV0.sol:FilmountainPoolV0",
        "label": "__gap",
        "offset": 0,
        "slot": "202",
        "type": "t_array(t_uint256)49_storage"
      },
      {
        "astId": 655,
        "contract": "contracts/pool/FilmountainPoolV0.sol:FilmountainPoolV0",
        "label": "__gap",
        "offset": 0,
        "slot": "251",
        "type": "t_array(t_uint256)50_storage"
      },
      {
        "astId": 971,
        "contract": "contracts/pool/FilmountainPoolV0.sol:FilmountainPoolV0",
        "label": "__gap",
        "offset": 0,
        "slot": "301",
        "type": "t_array(t_uint256)50_storage"
      },
      {
        "astId": 5152,
        "contract": "contracts/pool/FilmountainPoolV0.sol:FilmountainPoolV0",
        "label": "wFIL",
        "offset": 0,
        "slot": "351",
        "type": "t_contract(IWFIL)4975"
      },
      {
        "astId": 5155,
        "contract": "contracts/pool/FilmountainPoolV0.sol:FilmountainPoolV0",
        "label": "FilmountainAddressRegistry",
        "offset": 0,
        "slot": "352",
        "type": "t_contract(IFilmountainAddressRegistry)4931"
      },
      {
        "astId": 5158,
        "contract": "contracts/pool/FilmountainPoolV0.sol:FilmountainPoolV0",
        "label": "SPVaultFactory",
        "offset": 0,
        "slot": "353",
        "type": "t_contract(ISPVaultFactory)4956"
      },
      {
        "astId": 5160,
        "contract": "contracts/pool/FilmountainPoolV0.sol:FilmountainPoolV0",
        "label": "totalAssetsBorrowed",
        "offset": 0,
        "slot": "354",
        "type": "t_uint256"
      },
      {
        "astId": 5162,
        "contract": "contracts/pool/FilmountainPoolV0.sol:FilmountainPoolV0",
        "label": "expireDates",
        "offset": 0,
        "slot": "355",
        "type": "t_uint256"
      },
      {
        "astId": 5169,
        "contract": "contracts/pool/FilmountainPoolV0.sol:FilmountainPoolV0",
        "label": "userPrincipalData",
        "offset": 0,
        "slot": "356",
        "type": "t_mapping(t_address,t_mapping(t_uint256,t_struct(userPrincipal)5149_storage))"
      },
      {
        "astId": 5173,
        "contract": "contracts/pool/FilmountainPoolV0.sol:FilmountainPoolV0",
        "label": "userIndex",
        "offset": 0,
        "slot": "357",
        "type": "t_mapping(t_address,t_uint256)"
      }
    ],
    "types": {
      "t_address": {
        "encoding": "inplace",
        "label": "address",
        "numberOfBytes": "20"
      },
      "t_array(t_uint256)45_storage": {
        "base": "t_uint256",
        "encoding": "inplace",
        "label": "uint256[45]",
        "numberOfBytes": "1440"
      },
      "t_array(t_uint256)49_storage": {
        "base": "t_uint256",
        "encoding": "inplace",
        "label": "uint256[49]",
        "numberOfBytes": "1568"
      },
      "t_array(t_uint256)50_storage": {
        "base": "t_uint256",
        "encoding": "inplace",
        "label": "uint256[50]",
        "numberOfBytes": "1600"
      },
      "t_bool": {
        "encoding": "inplace",
        "label": "bool",
        "numberOfBytes": "1"
      },
      "t_contract(IERC20Upgradeable)1748": {
        "encoding": "inplace",
        "label": "contract IERC20Upgradeable",
        "numberOfBytes": "20"
      },
      "t_contract(IFilmountainAddressRegistry)4931": {
        "encoding": "inplace",
        "label": "contract IFilmountainAddressRegistry",
        "numberOfBytes": "20"
      },
      "t_contract(ISPVaultFactory)4956": {
        "encoding": "inplace",
        "label": "contract ISPVaultFactory",
        "numberOfBytes": "20"
      },
      "t_contract(IWFIL)4975": {
        "encoding": "inplace",
        "label": "contract IWFIL",
        "numberOfBytes": "20"
      },
      "t_mapping(t_address,t_mapping(t_address,t_uint256))": {
        "encoding": "mapping",
        "key": "t_address",
        "label": "mapping(address => mapping(address => uint256))",
        "numberOfBytes": "32",
        "value": "t_mapping(t_address,t_uint256)"
      },
      "t_mapping(t_address,t_mapping(t_uint256,t_struct(userPrincipal)5149_storage))": {
        "encoding": "mapping",
        "key": "t_address",
        "label": "mapping(address => mapping(uint256 => struct FilmountainPoolV0.userPrincipal))",
        "numberOfBytes": "32",
        "value": "t_mapping(t_uint256,t_struct(userPrincipal)5149_storage)"
      },
      "t_mapping(t_address,t_uint256)": {
        "encoding": "mapping",
        "key": "t_address",
        "label": "mapping(address => uint256)",
        "numberOfBytes": "32",
        "value": "t_uint256"
      },
      "t_mapping(t_uint256,t_struct(userPrincipal)5149_storage)": {
        "encoding": "mapping",
        "key": "t_uint256",
        "label": "mapping(uint256 => struct FilmountainPoolV0.userPrincipal)",
        "numberOfBytes": "32",
        "value": "t_struct(userPrincipal)5149_storage"
      },
      "t_string_storage": {
        "encoding": "bytes",
        "label": "string",
        "numberOfBytes": "32"
      },
      "t_struct(userPrincipal)5149_storage": {
        "encoding": "inplace",
        "label": "struct FilmountainPoolV0.userPrincipal",
        "members": [
          {
            "astId": 5146,
            "contract": "contracts/pool/FilmountainPoolV0.sol:FilmountainPoolV0",
            "label": "depositPrincipal",
            "offset": 0,
            "slot": "0",
            "type": "t_uint256"
          },
          {
            "astId": 5148,
            "contract": "contracts/pool/FilmountainPoolV0.sol:FilmountainPoolV0",
            "label": "expiredTimestamp",
            "offset": 0,
            "slot": "1",
            "type": "t_uint256"
          }
        ],
        "numberOfBytes": "64"
      },
      "t_uint256": {
        "encoding": "inplace",
        "label": "uint256",
        "numberOfBytes": "32"
      },
      "t_uint8": {
        "encoding": "inplace",
        "label": "uint8",
        "numberOfBytes": "1"
      }
    }
  }
}