{
  "address": "0x8335093c9CFC4d56a0CB24fC15B4FF2a613E38Bc",
  "abi": [
    {
      "inputs": [
        {
          "internalType": "address",
          "name": "_zc",
          "type": "address"
        }
      ],
      "stateMutability": "nonpayable",
      "type": "constructor"
    },
    {
      "anonymous": false,
      "inputs": [
        {
          "indexed": true,
          "internalType": "address",
          "name": "previousOwner",
          "type": "address"
        },
        {
          "indexed": true,
          "internalType": "address",
          "name": "newOwner",
          "type": "address"
        }
      ],
      "name": "OwnershipTransferred",
      "type": "event"
    },
    {
      "inputs": [],
      "name": "owner",
      "outputs": [
        {
          "internalType": "address",
          "name": "",
          "type": "address"
        }
      ],
      "stateMutability": "view",
      "type": "function"
    },
    {
      "inputs": [],
      "name": "pool",
      "outputs": [
        {
          "internalType": "address",
          "name": "",
          "type": "address"
        }
      ],
      "stateMutability": "view",
      "type": "function"
    },
    {
      "inputs": [],
      "name": "renounceOwnership",
      "outputs": [],
      "stateMutability": "nonpayable",
      "type": "function"
    },
    {
      "inputs": [
        {
          "internalType": "address",
          "name": "_pool",
          "type": "address"
        }
      ],
      "name": "setPool",
      "outputs": [],
      "stateMutability": "nonpayable",
      "type": "function"
    },
    {
      "inputs": [
        {
          "internalType": "address",
          "name": "_vault",
          "type": "address"
        }
      ],
      "name": "setVault",
      "outputs": [],
      "stateMutability": "nonpayable",
      "type": "function"
    },
    {
      "inputs": [
        {
          "internalType": "address",
          "name": "_zc",
          "type": "address"
        }
      ],
      "name": "setZC",
      "outputs": [],
      "stateMutability": "nonpayable",
      "type": "function"
    },
    {
      "inputs": [
        {
          "internalType": "address",
          "name": "newOwner",
          "type": "address"
        }
      ],
      "name": "transferOwnership",
      "outputs": [],
      "stateMutability": "nonpayable",
      "type": "function"
    },
    {
      "inputs": [],
      "name": "vault",
      "outputs": [
        {
          "internalType": "address",
          "name": "",
          "type": "address"
        }
      ],
      "stateMutability": "view",
      "type": "function"
    },
    {
      "inputs": [],
      "name": "zc",
      "outputs": [
        {
          "internalType": "address",
          "name": "",
          "type": "address"
        }
      ],
      "stateMutability": "view",
      "type": "function"
    }
  ],
  "numDeployments": 13,
  "solcInputHash": "fbc85d8611f8de5196908802f0cf92eb",
  "bytecode": "0x608060405234801561001057600080fd5b506040516104e43803806104e483398101604081905261002f916100e2565b6100383361005d565b600180546001600160a01b0319166001600160a01b039290921691909117905561010b565b600080546001600160a01b038381166001600160a01b0319831681178455604051919092169283917f8be0079c531659141344cd1fd0a4f28419497f9722a3daafe3b4186f6b6457e09190a35050565b60006001600160a01b0382165b92915050565b6100c9816100ad565b81146100d457600080fd5b50565b80516100ba816100c0565b6000602082840312156100f7576100f7600080fd5b600061010384846100d7565b949350505050565b6103ca8061011a6000396000f3fe608060405234801561001057600080fd5b50600436106100835760003560e01c806316f0115b146100885780634437152a146100b15780636817031b146100c6578063715018a6146100d95780638da5cb5b146100e1578063bd160322146100e9578063f2fde38b146100fc578063f5309a1d1461010f578063fbfa77cf14610122575b600080fd5b60025461009b906001600160a01b031681565b6040516100a891906102ba565b60405180910390f35b6100c46100bf3660046102e7565b610135565b005b6100c46100d43660046102e7565b61015f565b6100c4610189565b61009b61019d565b60015461009b906001600160a01b031681565b6100c461010a3660046102e7565b6101ac565b6100c461011d3660046102e7565b6101ef565b60035461009b906001600160a01b031681565b61013d610219565b600280546001600160a01b0319166001600160a01b0392909216919091179055565b610167610219565b600380546001600160a01b0319166001600160a01b0392909216919091179055565b610191610219565b61019b6000610248565b565b6000546001600160a01b031690565b6101b4610219565b6001600160a01b0381166101e35760405162461bcd60e51b81526004016101da90610310565b60405180910390fd5b6101ec81610248565b50565b6101f7610219565b600180546001600160a01b0319166001600160a01b0392909216919091179055565b3361022261019d565b6001600160a01b03161461019b5760405162461bcd60e51b81526004016101da9061035a565b600080546001600160a01b038381166001600160a01b0319831681178455604051919092169283917f8be0079c531659141344cd1fd0a4f28419497f9722a3daafe3b4186f6b6457e09190a35050565b60006001600160a01b0382165b92915050565b6102b481610298565b82525050565b602081016102a582846102ab565b6102d181610298565b81146101ec57600080fd5b80356102a5816102c8565b6000602082840312156102fc576102fc600080fd5b600061030884846102dc565b949350505050565b602080825281016102a581602681527f4f776e61626c653a206e6577206f776e657220697320746865207a65726f206160208201526564647265737360d01b604082015260600190565b60208082528181019081527f4f776e61626c653a2063616c6c6572206973206e6f7420746865206f776e65726040830152606082016102a556fea2646970667358221220c6176bd65ac69a2f75780583542cc4876fce2a6eaa309bcb1b1c94d98edbfdb864736f6c63430008130033",
  "devdoc": {
    "kind": "dev",
    "methods": {
      "owner()": {
        "details": "Returns the address of the current owner."
      },
      "renounceOwnership()": {
        "details": "Leaves the contract without owner. It will not be possible to call `onlyOwner` functions. Can only be called by the current owner. NOTE: Renouncing ownership will leave the contract without an owner, thereby disabling any functionality that is only available to the owner."
      },
      "transferOwnership(address)": {
        "details": "Transfers ownership of the contract to a new account (`newOwner`). Can only be called by the current owner."
      }
    },
    "version": 1
  },
  "userdoc": {
    "kind": "user",
    "methods": {},
    "version": 1
  },
  "storageLayout": {
    "storage": [
      {
        "astId": 7,
        "contract": "contracts/pool/FilmountainAddressRegistry.sol:FilmountainAddressRegistry",
        "label": "_owner",
        "offset": 0,
        "slot": "0",
        "type": "t_address"
      },
      {
        "astId": 150,
        "contract": "contracts/pool/FilmountainAddressRegistry.sol:FilmountainAddressRegistry",
        "label": "zc",
        "offset": 0,
        "slot": "1",
        "type": "t_address"
      },
      {
        "astId": 152,
        "contract": "contracts/pool/FilmountainAddressRegistry.sol:FilmountainAddressRegistry",
        "label": "pool",
        "offset": 0,
        "slot": "2",
        "type": "t_address"
      },
      {
        "astId": 154,
        "contract": "contracts/pool/FilmountainAddressRegistry.sol:FilmountainAddressRegistry",
        "label": "vault",
        "offset": 0,
        "slot": "3",
        "type": "t_address"
      }
    ],
    "types": {
      "t_address": {
        "encoding": "inplace",
        "label": "address",
        "numberOfBytes": "20"
      }
    }
  }
}