{
  "address": "0x683791072BB8B18f465A679889480e78A00eC298",
  "abi": [
    {
      "inputs": [
        {
          "internalType": "address",
          "name": "_zc",
          "type": "address"
        }
      ],
      "stateMutability": "nonpayable",
      "type": "constructor"
    },
    {
      "anonymous": false,
      "inputs": [
        {
          "indexed": true,
          "internalType": "address",
          "name": "previousOwner",
          "type": "address"
        },
        {
          "indexed": true,
          "internalType": "address",
          "name": "newOwner",
          "type": "address"
        }
      ],
      "name": "OwnershipTransferred",
      "type": "event"
    },
    {
      "inputs": [],
      "name": "owner",
      "outputs": [
        {
          "internalType": "address",
          "name": "",
          "type": "address"
        }
      ],
      "stateMutability": "view",
      "type": "function"
    },
    {
      "inputs": [],
      "name": "pool",
      "outputs": [
        {
          "internalType": "address",
          "name": "",
          "type": "address"
        }
      ],
      "stateMutability": "view",
      "type": "function"
    },
    {
      "inputs": [],
      "name": "renounceOwnership",
      "outputs": [],
      "stateMutability": "nonpayable",
      "type": "function"
    },
    {
      "inputs": [
        {
          "internalType": "address",
          "name": "_pool",
          "type": "address"
        }
      ],
      "name": "setPool",
      "outputs": [],
      "stateMutability": "nonpayable",
      "type": "function"
    },
    {
      "inputs": [
        {
          "internalType": "address",
          "name": "_vault",
          "type": "address"
        }
      ],
      "name": "setVault",
      "outputs": [],
      "stateMutability": "nonpayable",
      "type": "function"
    },
    {
      "inputs": [
        {
          "internalType": "address",
          "name": "_zc",
          "type": "address"
        }
      ],
      "name": "setZC",
      "outputs": [],
      "stateMutability": "nonpayable",
      "type": "function"
    },
    {
      "inputs": [
        {
          "internalType": "address",
          "name": "newOwner",
          "type": "address"
        }
      ],
      "name": "transferOwnership",
      "outputs": [],
      "stateMutability": "nonpayable",
      "type": "function"
    },
    {
      "inputs": [],
      "name": "vault",
      "outputs": [
        {
          "internalType": "address",
          "name": "",
          "type": "address"
        }
      ],
      "stateMutability": "view",
      "type": "function"
    },
    {
      "inputs": [],
      "name": "zc",
      "outputs": [
        {
          "internalType": "address",
          "name": "",
          "type": "address"
        }
      ],
      "stateMutability": "view",
      "type": "function"
    }
  ],
  "numDeployments": 1,
  "solcInputHash": "b8302ad236db625481983845ac32d536",
  "bytecode": "0x608060405234801561001057600080fd5b5060405161057838038061057883398101604081905261002f916100e2565b6100383361005d565b600180546001600160a01b0319166001600160a01b039290921691909117905561010b565b600080546001600160a01b038381166001600160a01b0319831681178455604051919092169283917f8be0079c531659141344cd1fd0a4f28419497f9722a3daafe3b4186f6b6457e09190a35050565b60006001600160a01b0382165b92915050565b6100c9816100ad565b81146100d457600080fd5b50565b80516100ba816100c0565b6000602082840312156100f7576100f7600080fd5b600061010384846100d7565b949350505050565b61045e8061011a6000396000f3fe608060405234801561001057600080fd5b50600436106100835760003560e01c806316f0115b146100885780634437152a146100b15780636817031b146100c6578063715018a6146100d95780638da5cb5b146100e1578063bd160322146100e9578063f2fde38b146100fc578063f5309a1d1461010f578063fbfa77cf14610122575b600080fd5b60025461009b906001600160a01b031681565b6040516100a8919061034e565b60405180910390f35b6100c46100bf36600461037b565b610135565b005b6100c46100d436600461037b565b61018f565b6100c46101e0565b61009b61021b565b60015461009b906001600160a01b031681565b6100c461010a36600461037b565b61022a565b6100c461011d36600461037b565b61028b565b60035461009b906001600160a01b031681565b3361013e61021b565b6001600160a01b03161461016d5760405162461bcd60e51b8152600401610164906103a4565b60405180910390fd5b600280546001600160a01b0319166001600160a01b0392909216919091179055565b3361019861021b565b6001600160a01b0316146101be5760405162461bcd60e51b8152600401610164906103a4565b600380546001600160a01b0319166001600160a01b0392909216919091179055565b336101e961021b565b6001600160a01b03161461020f5760405162461bcd60e51b8152600401610164906103a4565b61021960006102dc565b565b6000546001600160a01b031690565b3361023361021b565b6001600160a01b0316146102595760405162461bcd60e51b8152600401610164906103a4565b6001600160a01b03811661027f5760405162461bcd60e51b8152600401610164906103de565b610288816102dc565b50565b3361029461021b565b6001600160a01b0316146102ba5760405162461bcd60e51b8152600401610164906103a4565b600180546001600160a01b0319166001600160a01b0392909216919091179055565b600080546001600160a01b038381166001600160a01b0319831681178455604051919092169283917f8be0079c531659141344cd1fd0a4f28419497f9722a3daafe3b4186f6b6457e09190a35050565b60006001600160a01b0382165b92915050565b6103488161032c565b82525050565b60208101610339828461033f565b6103658161032c565b811461028857600080fd5b80356103398161035c565b60006020828403121561039057610390600080fd5b600061039c8484610370565b949350505050565b60208082528181019081527f4f776e61626c653a2063616c6c6572206973206e6f7420746865206f776e6572604083015260608201610339565b6020808252810161033981602681527f4f776e61626c653a206e6577206f776e657220697320746865207a65726f206160208201526564647265737360d01b60408201526060019056fea2646970667358221220d6ff481294e675c6d889e3fe6dcd9feafe78f52a385cfa9175deb0a58da1723664736f6c63430008140033",
  "devdoc": {
    "kind": "dev",
    "methods": {
      "owner()": {
        "details": "Returns the address of the current owner."
      },
      "renounceOwnership()": {
        "details": "Leaves the contract without owner. It will not be possible to call `onlyOwner` functions anymore. Can only be called by the current owner. NOTE: Renouncing ownership will leave the contract without an owner, thereby removing any functionality that is only available to the owner."
      },
      "transferOwnership(address)": {
        "details": "Transfers ownership of the contract to a new account (`newOwner`). Can only be called by the current owner."
      }
    },
    "version": 1
  },
  "userdoc": {
    "kind": "user",
    "methods": {},
    "version": 1
  },
  "storageLayout": {
    "storage": [
      {
        "astId": 4623,
        "contract": "contracts/pool/FilmountainAddressRegistry.sol:FilmountainAddressRegistry",
        "label": "_owner",
        "offset": 0,
        "slot": "0",
        "type": "t_address"
      },
      {
        "astId": 8945,
        "contract": "contracts/pool/FilmountainAddressRegistry.sol:FilmountainAddressRegistry",
        "label": "zc",
        "offset": 0,
        "slot": "1",
        "type": "t_address"
      },
      {
        "astId": 8947,
        "contract": "contracts/pool/FilmountainAddressRegistry.sol:FilmountainAddressRegistry",
        "label": "pool",
        "offset": 0,
        "slot": "2",
        "type": "t_address"
      },
      {
        "astId": 8949,
        "contract": "contracts/pool/FilmountainAddressRegistry.sol:FilmountainAddressRegistry",
        "label": "vault",
        "offset": 0,
        "slot": "3",
        "type": "t_address"
      }
    ],
    "types": {
      "t_address": {
        "encoding": "inplace",
        "label": "address",
        "numberOfBytes": "20"
      }
    }
  }
}