{
  "address": "0x7770d5169787ebb140f25cE0a9Ff47F1001663D0",
  "abi": [
    {
      "inputs": [
        {
          "internalType": "int256",
          "name": "",
          "type": "int256"
        }
      ],
      "name": "API_ERROR",
      "type": "error"
    },
    {
      "inputs": [],
      "name": "ActorNotFound",
      "type": "error"
    },
    {
      "inputs": [],
      "name": "FailToCallActor",
      "type": "error"
    },
    {
      "inputs": [],
      "name": "FailToCallActor",
      "type": "error"
    },
    {
      "inputs": [
        {
          "internalType": "CommonTypes.FilActorId",
          "name": "actorId",
          "type": "uint64"
        }
      ],
      "name": "InvalidActorID",
      "type": "error"
    },
    {
      "inputs": [
        {
          "internalType": "uint64",
          "name": "",
          "type": "uint64"
        }
      ],
      "name": "InvalidCodec",
      "type": "error"
    },
    {
      "inputs": [],
      "name": "InvalidResponseLength",
      "type": "error"
    },
    {
      "inputs": [
        {
          "internalType": "uint256",
          "name": "balance",
          "type": "uint256"
        },
        {
          "internalType": "uint256",
          "name": "value",
          "type": "uint256"
        }
      ],
      "name": "NotEnoughBalance",
      "type": "error"
    },
    {
      "inputs": [
        {
          "internalType": "uint64",
          "name": "_minerId",
          "type": "uint64"
        }
      ],
      "name": "getAvailableBalance",
      "outputs": [
        {
          "internalType": "uint256",
          "name": "",
          "type": "uint256"
        }
      ],
      "stateMutability": "view",
      "type": "function"
    },
    {
      "inputs": [
        {
          "internalType": "uint64",
          "name": "_minerId",
          "type": "uint64"
        }
      ],
      "name": "getBeneficiaryAddress",
      "outputs": [
        {
          "internalType": "address",
          "name": "",
          "type": "address"
        }
      ],
      "stateMutability": "view",
      "type": "function"
    },
    {
      "inputs": [
        {
          "internalType": "uint64",
          "name": "_minerId",
          "type": "uint64"
        }
      ],
      "name": "getBeneficiaryQuota",
      "outputs": [
        {
          "internalType": "bytes",
          "name": "",
          "type": "bytes"
        }
      ],
      "stateMutability": "view",
      "type": "function"
    },
    {
      "inputs": [
        {
          "internalType": "uint64",
          "name": "_minerId",
          "type": "uint64"
        }
      ],
      "name": "getMultiaddresses",
      "outputs": [
        {
          "components": [
            {
              "internalType": "bytes",
              "name": "data",
              "type": "bytes"
            }
          ],
          "internalType": "struct CommonTypes.FilAddress[]",
          "name": "addresses",
          "type": "tuple[]"
        }
      ],
      "stateMutability": "view",
      "type": "function"
    },
    {
      "inputs": [
        {
          "internalType": "uint64",
          "name": "_minerId",
          "type": "uint64"
        }
      ],
      "name": "getOwner",
      "outputs": [
        {
          "internalType": "address",
          "name": "",
          "type": "address"
        }
      ],
      "stateMutability": "view",
      "type": "function"
    },
    {
      "inputs": [
        {
          "internalType": "uint64",
          "name": "_minerId",
          "type": "uint64"
        }
      ],
      "name": "getOwnerId",
      "outputs": [
        {
          "internalType": "uint64",
          "name": "",
          "type": "uint64"
        }
      ],
      "stateMutability": "view",
      "type": "function"
    },
    {
      "inputs": [
        {
          "internalType": "uint64",
          "name": "_minerId",
          "type": "uint64"
        }
      ],
      "name": "getPeerId",
      "outputs": [
        {
          "internalType": "bytes",
          "name": "",
          "type": "bytes"
        }
      ],
      "stateMutability": "view",
      "type": "function"
    },
    {
      "inputs": [
        {
          "internalType": "uint64",
          "name": "_minerId",
          "type": "uint64"
        }
      ],
      "name": "getSectorSize",
      "outputs": [
        {
          "internalType": "uint64",
          "name": "size",
          "type": "uint64"
        }
      ],
      "stateMutability": "view",
      "type": "function"
    },
    {
      "inputs": [
        {
          "internalType": "uint64",
          "name": "_minerId",
          "type": "uint64"
        }
      ],
      "name": "getVestingFunds",
      "outputs": [
        {
          "components": [
            {
              "internalType": "CommonTypes.ChainEpoch",
              "name": "epoch",
              "type": "int64"
            },
            {
              "components": [
                {
                  "internalType": "bytes",
                  "name": "val",
                  "type": "bytes"
                },
                {
                  "internalType": "bool",
                  "name": "neg",
                  "type": "bool"
                }
              ],
              "internalType": "struct CommonTypes.BigInt",
              "name": "amount",
              "type": "tuple"
            }
          ],
          "internalType": "struct MinerTypes.VestingFunds[]",
          "name": "funds",
          "type": "tuple[]"
        }
      ],
      "stateMutability": "view",
      "type": "function"
    },
    {
      "inputs": [
        {
          "internalType": "uint64",
          "name": "_minerId",
          "type": "uint64"
        },
        {
          "internalType": "bytes",
          "name": "_addr",
          "type": "bytes"
        }
      ],
      "name": "isControllingAddress",
      "outputs": [
        {
          "internalType": "bool",
          "name": "control",
          "type": "bool"
        }
      ],
      "stateMutability": "view",
      "type": "function"
    }
  ],
  "numDeployments": 4,
  "solcInputHash": "e8347383524c348735038d3f36a58f1c",
  "bytecode": "0x608060405234801561001057600080fd5b50613d58806100206000396000f3fe608060405234801561001057600080fd5b506004361061009e5760003560e01c8063c3a5be4b11610066578063c3a5be4b14610193578063d370a37d146101c3578063db92213e146101f3578063e427010c14610223578063e76c5939146102535761009e565b80630edd02eb146100a35780631527a11e146100d35780632e9458be1461010357806332961332146101335780634fe47a1714610163575b600080fd5b6100bd60048036038101906100b891906129fa565b610283565b6040516100ca9190612ab7565b60405180910390f35b6100ed60048036038101906100e89190612c0e565b6102b2565b6040516100fa9190612c85565b60405180910390f35b61011d600480360381019061011891906129fa565b6102e3565b60405161012a9190612e7d565b60405180910390f35b61014d600480360381019061014891906129fa565b6102ff565b60405161015a9190612eae565b60405180910390f35b61017d600480360381019061017891906129fa565b61031a565b60405161018a9190612f0a565b60405180910390f35b6101ad60048036038101906101a891906129fa565b610350565b6040516101ba9190612f3e565b60405180910390f35b6101dd60048036038101906101d891906129fa565b61037e565b6040516101ea9190612f0a565b60405180910390f35b61020d600480360381019061020891906129fa565b610416565b60405161021a9190612ab7565b60405180910390f35b61023d600480360381019061023891906129fa565b610439565b60405161024a9190612eae565b60405180910390f35b61026d600480360381019061026891906129fa565b6104ab565b60405161027a9190613045565b60405180910390f35b606060008290506000610295826104c7565b915050806000015160200151600001516000015192505050919050565b600080839050600060405180602001604052808581525090506102d58282610571565b905080935050505092915050565b606060008290506102f3816105cc565b90508092505050919050565b60008082905061030e8161066a565b90508092505050919050565b600080829050600061032b826104c7565b91505080600001516000015160000151610344906130c5565b60601c92505050919050565b600080829050600061036182610707565b91505080600001516103729061314b565b60001c92505050919050565b600080829050600080610390836107b1565b91509150600082146103d957816040517fa8d891e60000000000000000000000000000000000000000000000000000000081526004016103d091906131cb565b60405180910390fd5b61040c8160000151600001516103ee906130c5565b60601c73ffffffffffffffffffffffffffffffffffffffff1661085b565b9350505050919050565b606060008290506000610428826108aa565b915050806000015192505050919050565b60008082905060008061044b836107b1565b915091506000821461049457816040517fa8d891e600000000000000000000000000000000000000000000000000000000815260040161048b91906131cb565b60405180910390fd5b6104a18160000151610954565b9350505050919050565b606060008290506104bb81610a35565b90508092505050919050565b60006104d161282c565b60008067ffffffffffffffff8111156104ed576104ec612ae3565b5b6040519080825280601f01601f19166020018201604052801561051f5781602001600182028036833780820191505090505b5090506000806105368663f7e4e299600086610ad3565b915091506000820361055957600061054d82610b40565b9450945050505061056c565b61056161282c565b828195509550505050505b915091565b600080600061057f84610f36565b9050600080610595876314c1cb97605186610ad3565b91509150600082036105b85760006105ac82610f7f565b945094505050506105c5565b6000828195509550505050505b9250929050565b6000606060008067ffffffffffffffff8111156105ec576105eb612ae3565b5b6040519080825280601f01601f19166020018201604052801561061e5781602001600182028036833780820191505090505b509050600080610635866366ee0a90600086610ad3565b915091506000820361065857600061064c82610fa9565b94509450505050610665565b6060828195509550505050505b915091565b60008060008067ffffffffffffffff81111561068957610688612ae3565b5b6040519080825280601f01601f1916602001820160405280156106bb5781602001600182028036833780820191505090505b5090506000806106d28663e5f8de48600086610ad3565b91509150600082036106f55760006106e982611125565b94509450505050610702565b6000828195509550505050505b915091565b6000610711612852565b60008067ffffffffffffffff81111561072d5761072c612ae3565b5b6040519080825280601f01601f19166020018201604052801561075f5781602001600182028036833780820191505090505b5090506000806107768663eff983fa600086610ad3565b915091506000820361079957600061078d82611153565b945094505050506107ac565b6107a1612852565b828195509550505050505b915091565b60006107bb61286e565b60008067ffffffffffffffff8111156107d7576107d6612ae3565b5b6040519080825280601f01601f1916602001820160405280156108095781602001600182028036833780820191505090505b5090506000806108208663c33a1cc6600086610ad3565b91509150600082036108435760006108378261120f565b94509450505050610856565b61084b61286e565b828195509550505050505b915091565b60008060006108698461130a565b915091508161087c5783925050506108a5565b60008061088883611357565b915091508161089d57859450505050506108a5565b809450505050505b919050565b60006108b4612894565b60008067ffffffffffffffff8111156108d0576108cf612ae3565b5b6040519080825280601f01601f1916602001820160405280156109025781602001600182028036833780820191505090505b5090506000806109198663a7a91241600086610ad3565b915091506000820361093c576000610930826113e3565b9450945050505061094f565b610944612894565b828195509550505050505b915091565b600080600073fe0000000000000000000000000000000000000173ffffffffffffffffffffffffffffffffffffffff1684600001516040516109969190613222565b600060405180830381855afa9150503d80600081146109d1576040519150601f19603f3d011682016040523d82523d6000602084013e6109d6565b606091505b509150915081610a12576040517f8a7db5bf00000000000000000000000000000000000000000000000000000000815260040160405180910390fd5b600081806020019051810190610a289190613265565b9050809350505050919050565b6000606060008067ffffffffffffffff811115610a5557610a54612ae3565b5b6040519080825280601f01601f191660200182016040528015610a875781602001600182028036833780820191505090505b509050600080610a9e86634f72955f600086610ad3565b9150915060008203610ac1576000610ab582611472565b94509450505050610ace565b6060828195509550505050505b915091565b6000606060648667ffffffffffffffff161015610b2757856040517fa2928273000000000000000000000000000000000000000000000000000000008152600401610b1e91906132c3565b60405180910390fd5b610b3386868686611573565b9150915094509492505050565b610b4861282c565b6060600080610b6082866115a890919063ffffffff16565b809350819250505060028114610b7957610b786132de565b5b610b8c82866115a890919063ffffffff16565b809350819250505060028114610ba557610ba46132de565b5b610bb8828661162990919063ffffffff16565b8560000151600001516000018194508290525050610bdf82866115a890919063ffffffff16565b809350819250505060038114610bf857610bf76132de565b5b610c0b828661162990919063ffffffff16565b8093508194505050600083511115610c3b57610c2683611805565b84600001516020015160000181905250610cb1565b6040518060400160405280600067ffffffffffffffff811115610c6157610c60612ae3565b5b6040519080825280601f01601f191660200182016040528015610c935781602001600182028036833780820191505090505b50815260200160001515815250846000015160200151600001819052505b610cc4828661162990919063ffffffff16565b8093508194505050600083511115610cf457610cdf83611805565b84600001516020015160200181905250610d6a565b6040518060400160405280600067ffffffffffffffff811115610d1a57610d19612ae3565b5b6040519080825280601f01601f191660200182016040528015610d4c5781602001600182028036833780820191505090505b50815260200160001515815250846000015160200151602001819052505b610d7d82866119ac90919063ffffffff16565b8560000151602001516040018194508260070b60070b8152505050610dab82866119da90919063ffffffff16565b610f2e57610dc282866115a890919063ffffffff16565b809350819250505060058114610ddb57610dda6132de565b5b610dee828661162990919063ffffffff16565b8560200151600001516000018194508290525050610e15828661162990919063ffffffff16565b8093508194505050600083511115610e4157610e3083611805565b846020015160200181905250610eb3565b6040518060400160405280600067ffffffffffffffff811115610e6757610e66612ae3565b5b6040519080825280601f01601f191660200182016040528015610e995781602001600182028036833780820191505090505b508152602001600015158152508460200151602001819052505b610ec682866119ac90919063ffffffff16565b85602001516040018194508260070b60070b8152505050610ef08286611a4690919063ffffffff16565b856020015160600181945082151515158152505050610f188286611a4690919063ffffffff16565b8560200151608001819450821515151581525050505b505050919050565b60606000610f478360000151611af0565b90506000610f5482611b0f565b9050610f6d846000015182611b3690919063ffffffff16565b610f7681611b5f565b92505050919050565b6000806000610f978185611a4690919063ffffffff16565b80925081935050508192505050919050565b60606000610fb5612852565b606060008080610fce83896115a890919063ffffffff16565b809450819350505060018214610fe757610fe66132de565b5b610ffa83896115a890919063ffffffff16565b80945081935050508167ffffffffffffffff81111561101c5761101b612ae3565b5b60405190808252806020026020018201604052801561105557816020015b6110426128a7565b81526020019060019003908161103a5790505b50965060005b8281101561111957611076848a6115a890919063ffffffff16565b80955081935050506002821461108f5761108e6132de565b5b6110a2848a6119ac90919063ffffffff16565b80955081985050506110bd848a61162990919063ffffffff16565b80955081965050506110ce85611805565b955060405180604001604052808860070b8152602001878152508882815181106110fb576110fa61330d565b5b602002602001018190525080806111119061336b565b91505061105b565b50505050505050919050565b6000806000905060006111418285611bb890919063ffffffff16565b80935081925050508092505050919050565b61115b612852565b6060600080845111156111a05761117b818561162990919063ffffffff16565b809250819350505060008251111561119f5761119682611805565b9250505061120a565b5b6040518060400160405280600067ffffffffffffffff8111156111c6576111c5612ae3565b5b6040519080825280601f01601f1916602001820160405280156111f85781602001600182028036833780820191505090505b50815260200160001515815250925050505b919050565b61121761286e565b60008061122d82856115a890919063ffffffff16565b809350819250505060028114611246576112456132de565b5b611259828561162990919063ffffffff16565b8460000151600001819450829052505061127c82856119da90919063ffffffff16565b6112a857611293828561162990919063ffffffff16565b84602001516000018194508290525050611303565b600067ffffffffffffffff8111156112c3576112c2612ae3565b5b6040519080825280601f01601f1916602001820160405280156112f55781602001600182028036833780820191505090505b508360200151600001819052505b5050919050565b60008073ffffffffffffffffffffffff0000000000000000831673ff000000000000000000000000000000000000008103611351576001925067ffffffffffffffff841691505b50915091565b600080826000526016600a6020600073fe000000000000000000000000000000000000025afa91506000518073ffffffffffffffffffffffffffffffffffffffff1691508060a01c61ffff1661040a81146113b55760009350600092505b50508115806113cc575060166113c9611c39565b14155b156113dd57600080915091506113de565b5b915091565b6113eb612894565b60008061140182856115a890919063ffffffff16565b80935081925050506001811461144c576040517f08c379a000000000000000000000000000000000000000000000000000000000815260040161144390613436565b60405180910390fd5b61145f828561162990919063ffffffff16565b8460000181945082905250505050919050565b606060008061148a82856115a890919063ffffffff16565b8093508192505050600181146114a3576114a26132de565b5b6114b682856115a890919063ffffffff16565b80935081925050508067ffffffffffffffff8111156114d8576114d7612ae3565b5b60405190808252806020026020018201604052801561151157816020015b6114fe612894565b8152602001906001900390816114f65790505b50925060005b8181101561156b57611532838661162990919063ffffffff16565b8583815181106115455761154461330d565b5b6020026020010151600001819550829052505080806115639061336b565b915050611517565b505050919050565b600060606128ca6128ca611c41905080915061159988888888600060018863ffffffff16565b93509350505094509492505050565b6000806000806115b88686611d6c565b8167ffffffffffffffff169150809750819350829450505050600460ff168260ff161461161a576040517f08c379a0000000000000000000000000000000000000000000000000000000008152600401611611906134a2565b60405180910390fd5b80859350935050509250929050565b6060600080600061163a8686611d6c565b8167ffffffffffffffff169150809750819350829450505050600660ff168260ff16148061166e5750600260ff168260ff16145b6116ad576040517f08c379a00000000000000000000000000000000000000000000000000000000081526004016116a490613534565b60405180910390fd5b600660ff168260ff16036116f6576116c58686611d6c565b8167ffffffffffffffff169150809750819350829450505050600260ff168260ff16146116f5576116f46132de565b5b5b600081866117049190613554565b905060008267ffffffffffffffff81111561172257611721612ae3565b5b6040519080825280601f01601f1916602001820160405280156117545781602001600182028036833780820191505090505b5090506000808890505b838110156117e7578981815181106117795761177861330d565b5b602001015160f81c60f81b8383815181106117975761179661330d565b5b60200101907effffffffffffffffffffffffffffffffffffffffffffffffffffffffffffff1916908160001a90535081806117d19061336b565b92505080806117df9061336b565b91505061175e565b508184896117f59190613554565b9650965050505050509250929050565b61180d612852565b600082510361184b576040518060400160405280604051806040016040528060018152602001600081525081526020016000151581525090506119a7565b60006001835161185b9190613588565b67ffffffffffffffff81111561187457611873612ae3565b5b6040519080825280601f01601f1916602001820160405280156118a65781602001600182028036833780820191505090505b5090506000600160f81b846000815181106118c4576118c361330d565b5b602001015160f81c60f81b7effffffffffffffffffffffffffffffffffffffffffffffffffffffffffffff1916036118fb57600190505b6000600190505b845181101561198a5784818151811061191e5761191d61330d565b5b602001015160f81c60f81b836001836119379190613588565b815181106119485761194761330d565b5b60200101907effffffffffffffffffffffffffffffffffffffffffffffffffffffffffffff1916908160001a90535080806119829061336b565b915050611902565b506040518060400160405280838152602001821515815250925050505b919050565b60008060006119c48486611f5e90919063ffffffff16565b8095508192505050808492509250509250929050565b60007ff600000000000000000000000000000000000000000000000000000000000000838381518110611a1057611a0f61330d565b5b602001015160f81c60f81b7effffffffffffffffffffffffffffffffffffffffffffffffffffffffffffff191614905092915050565b600080600080611a568686611d6c565b8167ffffffffffffffff169150809750819350829450505050600760ff168260ff1614611ab8576040517f08c379a0000000000000000000000000000000000000000000000000000000008152600401611aaf90613608565b60405180910390fd5b601560ff16811480611acd5750601460ff1681145b611ada57611ad96132de565b5b601460ff16811415859350935050509250929050565b60008151611afe8351611ff0565b611b089190613554565b9050919050565b611b176128d4565b611b25816000015183612044565b506000816020018181525050919050565b611b4382600283516120bd565b611b5a81836000015161226690919063ffffffff16565b505050565b60606000826020015114611ba8576040517f08c379a0000000000000000000000000000000000000000000000000000000008152600401611b9f90613674565b60405180910390fd5b8160000151600001519050919050565b600080600080611bc88686611d6c565b8167ffffffffffffffff169150809750819350829450505050600060ff168260ff1614611c2a576040517f08c379a0000000000000000000000000000000000000000000000000000000008152600401611c2190613706565b60405180910390fd5b80859350935050509250929050565b60003d905090565b60006060611c6373fe0000000000000000000000000000000000000585612282565b60008073fe0000000000000000000000000000000000000573ffffffffffffffffffffffffffffffffffffffff16898787611c9f576000611ca2565b60015b8b8b8f604051602001611cba96959493929190613726565b604051602081830303815290604052604051611cd69190613222565b600060405180830381855af49150503d8060008114611d11576040519150601f19603f3d011682016040523d82523d6000602084013e611d16565b606091505b509150915081611d52576040517f8a7db5bf00000000000000000000000000000000000000000000000000000000815260040160405180910390fd5b611d5b81612318565b935093505050965096945050505050565b600080600080611d7c868661245f565b9050600185611d8b9190613554565b94506000600560e0831660ff16901c90506000601f83169050601c8160ff1610611dea576040517f08c379a0000000000000000000000000000000000000000000000000000000008152600401611de190613800565b60405180910390fd5b60188160ff161015611e0d578181888160ff169150955095509550505050611f57565b60188160ff1603611e94576000611e24898961245f565b9050600188611e339190613554565b975060188160ff161015611e7c576040517f08c379a0000000000000000000000000000000000000000000000000000000008152600401611e739061386c565b60405180910390fd5b8281898160ff16915096509650965050505050611f57565b60198160ff1603611ed5576000611eab89896124da565b9050600288611eba9190613554565b97508281898161ffff16915096509650965050505050611f57565b601a8160ff1603611f18576000611eec8989612544565b9050600488611efb9190613554565b97508281898163ffffffff16915096509650965050505050611f57565b601b8160ff1614611f2c57611f2b6132de565b5b6000611f3889896125ae565b9050600888611f479190613554565b9750828189965096509650505050505b9250925092565b600080600080611f6e8686611d6c565b8167ffffffffffffffff169150809750819350829450505050600160ff168260ff161480611fa25750600060ff168260ff16145b611fe1576040517f08c379a0000000000000000000000000000000000000000000000000000000008152600401611fd8906138fe565b60405180910390fd5b80859350935050509250929050565b600060178211612003576001905061203f565b60ff8211612014576002905061203f565b61ffff8211612026576003905061203f565b63ffffffff821161203a576005905061203f565b600990505b919050565b61204c6128f4565b600060208361205b919061394d565b146120875760208261206d919061394d565b60206120799190613588565b826120849190613554565b91505b8183602001818152505060405180845260008152828101602001818110156120ae57600080fd5b80604052505082905092915050565b60178167ffffffffffffffff16116120f8576120f28160058460ff16901b60ff1617846000015161261890919063ffffffff16565b50612261565b60ff8167ffffffffffffffff16116121565761212b601860058460ff16901b17846000015161261890919063ffffffff16565b506121508167ffffffffffffffff16600185600001516126829092919063ffffffff16565b50612260565b61ffff8167ffffffffffffffff16116121b55761218a601960058460ff16901b17846000015161261890919063ffffffff16565b506121af8167ffffffffffffffff16600285600001516126829092919063ffffffff16565b5061225f565b63ffffffff8167ffffffffffffffff1611612216576121eb601a60058460ff16901b17846000015161261890919063ffffffff16565b506122108167ffffffffffffffff16600485600001516126829092919063ffffffff16565b5061225e565b612237601b60058460ff16901b17846000015161261890919063ffffffff16565b5061225c8167ffffffffffffffff16600885600001516126829092919063ffffffff16565b505b5b5b5b505050565b61226e6128f4565b61227a8383845161270f565b905092915050565b6000479050818110156122ce5780826040517f8f0f42060000000000000000000000000000000000000000000000000000000081526004016122c592919061397e565b60405180910390fd5b60006122d9846127f2565b905080612312576040517f64d954b000000000000000000000000000000000000000000000000000000000815260040160405180910390fd5b50505050565b600060606000806000858060200190518101906123359190613a58565b925092509250600067ffffffffffffffff168267ffffffffffffffff1603612397576000815114612392576040517f0e74990700000000000000000000000000000000000000000000000000000000815260040160405180910390fd5b612451565b605167ffffffffffffffff168267ffffffffffffffff1614806123ce5750607167ffffffffffffffff168267ffffffffffffffff16145b1561241357600081510361240e576040517f0e74990700000000000000000000000000000000000000000000000000000000815260040160405180910390fd5b612450565b816040517ff1f6bced0000000000000000000000000000000000000000000000000000000081526004016124479190612eae565b60405180910390fd5b5b828194509450505050915091565b600060018261246e9190613554565b835110156124b1576040517f08c379a00000000000000000000000000000000000000000000000000000000081526004016124a890613b13565b60405180910390fd5b8282815181106124c4576124c361330d565b5b602001015160f81c60f81b60f81c905092915050565b60006002826124e99190613554565b8351101561252c576040517f08c379a000000000000000000000000000000000000000000000000000000000815260040161252390613b13565b60405180910390fd5b60008260200184015190508060f01c91505092915050565b60006004826125539190613554565b83511015612596576040517f08c379a000000000000000000000000000000000000000000000000000000000815260040161258d90613b13565b60405180910390fd5b60008260200184015190508060e01c91505092915050565b60006008826125bd9190613554565b83511015612600576040517f08c379a00000000000000000000000000000000000000000000000000000000081526004016125f790613b13565b60405180910390fd5b60008260200184015190508060c01c91505092915050565b6126206128f4565b6000836000015151905060006001826126399190613554565b90508460200151821061265d5761265c856002836126579190613b33565b612808565b5b84516020838201018581538151831115612675578282525b5050849250505092915050565b61268a6128f4565b60008460000151519050600081846126a29190613554565b905085602001518111156126c7576126c6866002836126c19190613b33565b612808565b5b60006001856101006126d99190613ca8565b6126e39190613588565b905086518281018783198251161781528151841115612700578382525b50508693505050509392505050565b6127176128f4565b825182111561272557600080fd5b600084600001515190506000838261273d9190613554565b90508560200151811115612762576127618660028361275c9190613b33565b612808565b5b6000808751805185602083010193508085111561277d578482525b60208901925050505b602086106127c4578051825260208261279f9190613554565b91506020816127ae9190613554565b90506020866127bd9190613588565b9550612786565b60006001876020036101000a0390508019825116818451168181178552505050879450505050509392505050565b600080823f90506000801b811415915050919050565b60008260000151905061281b8383612044565b506128268382612266565b50505050565b604051806040016040528061283f61290e565b815260200161284c612934565b81525090565b6040518060400160405280606081526020016000151581525090565b6040518060400160405280612881612894565b815260200161288e612894565b81525090565b6040518060200160405280606081525090565b6040518060400160405280600060070b81526020016128c4612852565b81525090565b6128d2613cf3565b565b60405180604001604052806128e76128f4565b8152602001600081525090565b604051806040016040528060608152602001600081525090565b6040518060400160405280612921612894565b815260200161292e612976565b81525090565b6040518060a00160405280612947612894565b8152602001612954612852565b8152602001600060070b81526020016000151581526020016000151581525090565b6040518060600160405280612989612852565b8152602001612996612852565b8152602001600060070b81525090565b6000604051905090565b600080fd5b600080fd5b600067ffffffffffffffff82169050919050565b6129d7816129ba565b81146129e257600080fd5b50565b6000813590506129f4816129ce565b92915050565b600060208284031215612a1057612a0f6129b0565b5b6000612a1e848285016129e5565b91505092915050565b600081519050919050565b600082825260208201905092915050565b60005b83811015612a61578082015181840152602081019050612a46565b60008484015250505050565b6000601f19601f8301169050919050565b6000612a8982612a27565b612a938185612a32565b9350612aa3818560208601612a43565b612aac81612a6d565b840191505092915050565b60006020820190508181036000830152612ad18184612a7e565b905092915050565b600080fd5b600080fd5b7f4e487b7100000000000000000000000000000000000000000000000000000000600052604160045260246000fd5b612b1b82612a6d565b810181811067ffffffffffffffff82111715612b3a57612b39612ae3565b5b80604052505050565b6000612b4d6129a6565b9050612b598282612b12565b919050565b600067ffffffffffffffff821115612b7957612b78612ae3565b5b612b8282612a6d565b9050602081019050919050565b82818337600083830152505050565b6000612bb1612bac84612b5e565b612b43565b905082815260208101848484011115612bcd57612bcc612ade565b5b612bd8848285612b8f565b509392505050565b600082601f830112612bf557612bf4612ad9565b5b8135612c05848260208601612b9e565b91505092915050565b60008060408385031215612c2557612c246129b0565b5b6000612c33858286016129e5565b925050602083013567ffffffffffffffff811115612c5457612c536129b5565b5b612c6085828601612be0565b9150509250929050565b60008115159050919050565b612c7f81612c6a565b82525050565b6000602082019050612c9a6000830184612c76565b92915050565b600081519050919050565b600082825260208201905092915050565b6000819050602082019050919050565b60008160070b9050919050565b6000819050919050565b6000612cfe612cf9612cf484612ccc565b612cd9565b612ccc565b9050919050565b612d0e81612ce3565b82525050565b600082825260208201905092915050565b6000612d3082612a27565b612d3a8185612d14565b9350612d4a818560208601612a43565b612d5381612a6d565b840191505092915050565b612d6781612c6a565b82525050565b60006040830160008301518482036000860152612d8a8282612d25565b9150506020830151612d9f6020860182612d5e565b508091505092915050565b6000604083016000830151612dc26000860182612d05565b5060208301518482036020860152612dda8282612d6d565b9150508091505092915050565b6000612df38383612daa565b905092915050565b6000602082019050919050565b6000612e1382612ca0565b612e1d8185612cab565b935083602082028501612e2f85612cbc565b8060005b85811015612e6b5784840389528151612e4c8582612de7565b9450612e5783612dfb565b925060208a01995050600181019050612e33565b50829750879550505050505092915050565b60006020820190508181036000830152612e978184612e08565b905092915050565b612ea8816129ba565b82525050565b6000602082019050612ec36000830184612e9f565b92915050565b600073ffffffffffffffffffffffffffffffffffffffff82169050919050565b6000612ef482612ec9565b9050919050565b612f0481612ee9565b82525050565b6000602082019050612f1f6000830184612efb565b92915050565b6000819050919050565b612f3881612f25565b82525050565b6000602082019050612f536000830184612f2f565b92915050565b600081519050919050565b600082825260208201905092915050565b6000819050602082019050919050565b60006020830160008301518482036000860152612fa28282612d25565b9150508091505092915050565b6000612fbb8383612f85565b905092915050565b6000602082019050919050565b6000612fdb82612f59565b612fe58185612f64565b935083602082028501612ff785612f75565b8060005b8581101561303357848403895281516130148582612faf565b945061301f83612fc3565b925060208a01995050600181019050612ffb565b50829750879550505050505092915050565b6000602082019050818103600083015261305f8184612fd0565b905092915050565b6000819050602082019050919050565b60007fffffffffffffffffffffffffffffffffffffffff00000000000000000000000082169050919050565b60006130af8251613077565b80915050919050565b600082821b905092915050565b60006130d082612a27565b826130da84613067565b90506130e5816130a3565b92506014821015613125576131207fffffffffffffffffffffffffffffffffffffffff000000000000000000000000836014036008026130b8565b831692505b5050919050565b6000819050919050565b6000613142825161312c565b80915050919050565b600061315682612a27565b8261316084613067565b905061316b81613136565b925060208210156131ab576131a67fffffffffffffffffffffffffffffffffffffffffffffffffffffffffffffffff836020036008026130b8565b831692505b5050919050565b6000819050919050565b6131c5816131b2565b82525050565b60006020820190506131e060008301846131bc565b92915050565b600081905092915050565b60006131fc82612a27565b61320681856131e6565b9350613216818560208601612a43565b80840191505092915050565b600061322e82846131f1565b915081905092915050565b61324281612f25565b811461324d57600080fd5b50565b60008151905061325f81613239565b92915050565b60006020828403121561327b5761327a6129b0565b5b600061328984828501613250565b91505092915050565b60006132ad6132a86132a3846129ba565b612cd9565b6129ba565b9050919050565b6132bd81613292565b82525050565b60006020820190506132d860008301846132b4565b92915050565b7f4e487b7100000000000000000000000000000000000000000000000000000000600052600160045260246000fd5b7f4e487b7100000000000000000000000000000000000000000000000000000000600052603260045260246000fd5b7f4e487b7100000000000000000000000000000000000000000000000000000000600052601160045260246000fd5b600061337682612f25565b91507fffffffffffffffffffffffffffffffffffffffffffffffffffffffffffffffff82036133a8576133a761333c565b5b600182019050919050565b600082825260208201905092915050565b7f57726f6e67206e756d62657273206f6620706172616d6574657273202873686f60008201527f756c642066696e64203129000000000000000000000000000000000000000000602082015250565b6000613420602b836133b3565b915061342b826133c4565b604082019050919050565b6000602082019050818103600083015261344f81613413565b9050919050565b7f696e76616c6964206d616a20286578706563746564204d616a41727261792900600082015250565b600061348c601f836133b3565b915061349782613456565b602082019050919050565b600060208201905081810360008301526134bb8161347f565b9050919050565b7f696e76616c6964206d616a20286578706563746564204d616a546167206f722060008201527f4d616a42797465537472696e6729000000000000000000000000000000000000602082015250565b600061351e602e836133b3565b9150613529826134c2565b604082019050919050565b6000602082019050818103600083015261354d81613511565b9050919050565b600061355f82612f25565b915061356a83612f25565b92508282019050808211156135825761358161333c565b5b92915050565b600061359382612f25565b915061359e83612f25565b92508282039050818111156135b6576135b561333c565b5b92915050565b7f696e76616c6964206d616a20286578706563746564204d616a4f746865722900600082015250565b60006135f2601f836133b3565b91506135fd826135bc565b602082019050919050565b60006020820190508181036000830152613621816135e5565b9050919050565b7f496e76616c69642043424f520000000000000000000000000000000000000000600082015250565b600061365e600c836133b3565b915061366982613628565b602082019050919050565b6000602082019050818103600083015261368d81613651565b9050919050565b7f696e76616c6964206d616a20286578706563746564204d616a556e7369676e6560008201527f64496e7429000000000000000000000000000000000000000000000000000000602082015250565b60006136f06025836133b3565b91506136fb82613694565b604082019050919050565b6000602082019050818103600083015261371f816136e3565b9050919050565b600060c08201905061373b6000830189612e9f565b6137486020830188612f2f565b6137556040830187612e9f565b6137626060830186612e9f565b81810360808301526137748185612a7e565b905061378360a08301846132b4565b979650505050505050565b7f63616e6e6f742068616e646c652068656164657273207769746820657874726160008201527f203e203237000000000000000000000000000000000000000000000000000000602082015250565b60006137ea6025836133b3565b91506137f58261378e565b604082019050919050565b60006020820190508181036000830152613819816137dd565b9050919050565b7f696e76616c69642063626f720000000000000000000000000000000000000000600082015250565b6000613856600c836133b3565b915061386182613820565b602082019050919050565b6000602082019050818103600083015261388581613849565b9050919050565b7f696e76616c6964206d616a20286578706563746564204d616a5369676e65644960008201527f6e74206f72204d616a556e7369676e6564496e74290000000000000000000000602082015250565b60006138e86035836133b3565b91506138f38261388c565b604082019050919050565b60006020820190508181036000830152613917816138db565b9050919050565b7f4e487b7100000000000000000000000000000000000000000000000000000000600052601260045260246000fd5b600061395882612f25565b915061396383612f25565b9250826139735761397261391e565b5b828206905092915050565b60006040820190506139936000830185612f2f565b6139a06020830184612f2f565b9392505050565b6139b0816131b2565b81146139bb57600080fd5b50565b6000815190506139cd816139a7565b92915050565b6000815190506139e2816129ce565b92915050565b60006139fb6139f684612b5e565b612b43565b905082815260208101848484011115613a1757613a16612ade565b5b613a22848285612a43565b509392505050565b600082601f830112613a3f57613a3e612ad9565b5b8151613a4f8482602086016139e8565b91505092915050565b600080600060608486031215613a7157613a706129b0565b5b6000613a7f868287016139be565b9350506020613a90868287016139d3565b925050604084015167ffffffffffffffff811115613ab157613ab06129b5565b5b613abd86828701613a2a565b9150509250925092565b7f736c6963696e67206f7574206f662072616e6765000000000000000000000000600082015250565b6000613afd6014836133b3565b9150613b0882613ac7565b602082019050919050565b60006020820190508181036000830152613b2c81613af0565b9050919050565b6000613b3e82612f25565b9150613b4983612f25565b9250828202613b5781612f25565b91508282048414831517613b6e57613b6d61333c565b5b5092915050565b60008160011c9050919050565b6000808291508390505b6001851115613bcc57808604811115613ba857613ba761333c565b5b6001851615613bb75780820291505b8081029050613bc585613b75565b9450613b8c565b94509492505050565b600082613be55760019050613ca1565b81613bf35760009050613ca1565b8160018114613c095760028114613c1357613c42565b6001915050613ca1565b60ff841115613c2557613c2461333c565b5b8360020a915084821115613c3c57613c3b61333c565b5b50613ca1565b5060208310610133831016604e8410600b8410161715613c775782820a905083811115613c7257613c7161333c565b5b613ca1565b613c848484846001613b82565b92509050818404811115613c9b57613c9a61333c565b5b81810290505b9392505050565b6000613cb382612f25565b9150613cbe83612f25565b9250613ceb7fffffffffffffffffffffffffffffffffffffffffffffffffffffffffffffffff8484613bd5565b905092915050565b7f4e487b7100000000000000000000000000000000000000000000000000000000600052605160045260246000fdfea264697066735822122013c7abdfa885875a0a3a7037fd6eaafc544893f24d06a93f311164049556aedc64736f6c63430008110033",
  "devdoc": {
    "kind": "dev",
    "methods": {},
    "version": 1
  },
  "userdoc": {
    "errors": {
      "ActorNotFound()": [
        {
          "notice": "the actor is not found"
        }
      ],
      "FailToCallActor()": [
        {
          "notice": "an error happened trying to call the actor"
        },
        {
          "notice": "an error happened trying to call the actor"
        }
      ],
      "InvalidActorID(uint64)": [
        {
          "notice": "the provided actor id is not valid"
        }
      ],
      "InvalidCodec(uint64)": [
        {
          "notice": "the codec received is not valid"
        }
      ],
      "InvalidResponseLength()": [
        {
          "notice": "the response received is not correct. In some case no response is expected and we received one, or a response was indeed expected and we received none."
        }
      ],
      "NotEnoughBalance(uint256,uint256)": [
        {
          "notice": "the smart contract has no enough balance to transfer"
        }
      ]
    },
    "kind": "user",
    "methods": {},
    "version": 1
  },
  "storageLayout": {
    "storage": [],
    "types": null
  }
}