{
  "address": "0x6BAaeA2af76D5E0735f3801d6b93e7AbD4246A9D",
  "abi": [
    {
      "inputs": [
        {
          "internalType": "address[]",
          "name": "owners_",
          "type": "address[]"
        }
      ],
      "stateMutability": "nonpayable",
      "type": "constructor"
    },
    {
      "anonymous": false,
      "inputs": [
        {
          "indexed": true,
          "internalType": "uint256",
          "name": "id",
          "type": "uint256"
        },
        {
          "indexed": false,
          "internalType": "address[]",
          "name": "targes",
          "type": "address[]"
        },
        {
          "indexed": false,
          "internalType": "bytes[]",
          "name": "datas",
          "type": "bytes[]"
        }
      ],
      "name": "Executed",
      "type": "event"
    },
    {
      "inputs": [],
      "name": "DOMAIN_SEPARATOR",
      "outputs": [
        {
          "internalType": "bytes32",
          "name": "",
          "type": "bytes32"
        }
      ],
      "stateMutability": "view",
      "type": "function"
    },
    {
      "inputs": [],
      "name": "EXECUTE_TYPEHASH",
      "outputs": [
        {
          "internalType": "bytes32",
          "name": "",
          "type": "bytes32"
        }
      ],
      "stateMutability": "view",
      "type": "function"
    },
    {
      "inputs": [
        {
          "internalType": "address[]",
          "name": "owners",
          "type": "address[]"
        }
      ],
      "name": "addOwner",
      "outputs": [],
      "stateMutability": "nonpayable",
      "type": "function"
    },
    {
      "inputs": [
        {
          "internalType": "uint256",
          "name": "id",
          "type": "uint256"
        },
        {
          "internalType": "address[]",
          "name": "targets",
          "type": "address[]"
        },
        {
          "internalType": "bytes[]",
          "name": "datas",
          "type": "bytes[]"
        },
        {
          "internalType": "uint256[]",
          "name": "deadlines",
          "type": "uint256[]"
        },
        {
          "internalType": "bytes[]",
          "name": "sigs",
          "type": "bytes[]"
        }
      ],
      "name": "execute",
      "outputs": [],
      "stateMutability": "payable",
      "type": "function"
    },
    {
      "inputs": [],
      "name": "getOwners",
      "outputs": [
        {
          "internalType": "address[]",
          "name": "owners",
          "type": "address[]"
        }
      ],
      "stateMutability": "view",
      "type": "function"
    },
    {
      "inputs": [
        {
          "internalType": "uint256",
          "name": "id",
          "type": "uint256"
        },
        {
          "internalType": "address[]",
          "name": "targets",
          "type": "address[]"
        },
        {
          "internalType": "bytes[]",
          "name": "datas",
          "type": "bytes[]"
        },
        {
          "internalType": "uint256",
          "name": "deadline",
          "type": "uint256"
        }
      ],
      "name": "hashTypeData",
      "outputs": [
        {
          "internalType": "bytes32",
          "name": "digest",
          "type": "bytes32"
        }
      ],
      "stateMutability": "view",
      "type": "function"
    },
    {
      "inputs": [
        {
          "internalType": "address[]",
          "name": "owners",
          "type": "address[]"
        }
      ],
      "name": "removeOwner",
      "outputs": [],
      "stateMutability": "nonpayable",
      "type": "function"
    },
    {
      "inputs": [
        {
          "internalType": "address",
          "name": "receiver",
          "type": "address"
        },
        {
          "internalType": "uint256",
          "name": "amount",
          "type": "uint256"
        }
      ],
      "name": "sweepETH",
      "outputs": [],
      "stateMutability": "nonpayable",
      "type": "function"
    },
    {
      "inputs": [
        {
          "internalType": "contract IERC20",
          "name": "token",
          "type": "address"
        },
        {
          "internalType": "address",
          "name": "receiver",
          "type": "address"
        },
        {
          "internalType": "uint256",
          "name": "amount",
          "type": "uint256"
        }
      ],
      "name": "sweepToken",
      "outputs": [],
      "stateMutability": "nonpayable",
      "type": "function"
    },
    {
      "stateMutability": "payable",
      "type": "receive"
    }
  ],
  "numDeployments": 1,
  "solcInputHash": "546f217c7e971e1401c1faec9faa3e96",
  "bytecode": "0x60a06040523480156200001157600080fd5b506040516200234d3803806200234d833981016040819052620000349162000392565b6200003f8162000110565b60408051808201825260088152674d756c746953696760c01b6020918201528151808301835260018152603160f81b9082015290514691620000ec917f8b73c3c69bb8fe3d512ecc4cf759cc79239f7b179b0ffacaa9a75d522b39400f917fd90d81238fec68b58412fea0ed72a6621ecd31c74022809053834bb75fa1820f917fc89efdaa54c0f20c7adf612882df0950f5a951637e0307cdcb4c672f298b8bc6918691309101620003e5565b60408051601f19818403018152919052805160209091012060805250620004c09050565b60005b8151811015620001bf5760006001600160a01b03168282815181106200013d576200013d6200043b565b60200260200101516001600160a01b031603620001775760405162461bcd60e51b81526004016200016e9062000451565b60405180910390fd5b620001a98282815181106200019057620001906200043b565b60200260200101516000620001c360201b90919060201c565b5080620001b681620004a3565b91505062000113565b5050565b6000620001da836001600160a01b038416620001e3565b90505b92915050565b60008181526001830160205260408120546200022c57508154600181810184556000848152602080822090930184905584548482528286019093526040902091909155620001dd565b506000620001dd565b634e487b7160e01b600052604160045260246000fd5b601f19601f83011681018181106001600160401b038211171562000273576200027362000235565b6040525050565b60006200028660405190565b90506200029482826200024b565b919050565b60006001600160401b03821115620002b557620002b562000235565b5060209081020190565b60006001600160a01b038216620001dd565b620002dc81620002bf565b8114620002e857600080fd5b50565b8051620001dd81620002d1565b60006200030f620003098462000299565b6200027a565b83815290506020808201908402830185811115620003305762000330600080fd5b835b81811015620003585780620003488882620002eb565b8452506020928301920162000332565b5050509392505050565b600082601f830112620003785762000378600080fd5b81516200038a848260208601620002f8565b949350505050565b600060208284031215620003a957620003a9600080fd5b81516001600160401b03811115620003c457620003c4600080fd5b6200038a8482850162000362565b805b82525050565b620003d481620002bf565b60a08101620003f58288620003d2565b620004046020830187620003d2565b620004136040830186620003d2565b620004226060830185620003d2565b620004316080830184620003da565b9695505050505050565b634e487b7160e01b600052603260045260246000fd5b60208082528101620001dd81601e81527f496e76616c6964206f776e657220616464726573732070726f76696465640000602082015260400190565b634e487b7160e01b600052601160045260246000fd5b60006000198203620004b957620004b96200048d565b5060010190565b608051611e6b620004e26000396000818160da01526103ca0152611e6b6000f3fe60806040526004361061007a5760003560e01c80630137abc9146100865780633441e57d146100a85780633644e515146100c85780634fde0e4c146101125780635b116ab81461013257806360d2f33d1461015257806364aff9ec146101745780639b5dd9a614610194578063a0e67e2b146101a757600080fd5b3661008157005b600080fd5b34801561009257600080fd5b506100a66100a13660046111c3565b6101c9565b005b3480156100b457600080fd5b506100a66100c33660046111c3565b6101fd565b3480156100d457600080fd5b506100fc7f000000000000000000000000000000000000000000000000000000000000000081565b6040516101099190611205565b60405180910390f35b34801561011e57600080fd5b506100fc61012d366004611344565b610293565b34801561013e57600080fd5b506100a661014d3660046113dc565b61041d565b34801561015e57600080fd5b506100fc600080516020611e1683398151915281565b34801561018057600080fd5b506100a661018f366004611438565b610477565b6100a66101a23660046114fd565b6104aa565b3480156101b357600080fd5b506101bc6105c4565b6040516101099190611643565b3330146101f15760405162461bcd60e51b81526004016101e890611680565b60405180910390fd5b6101fa8161066f565b50565b33301461021c5760405162461bcd60e51b81526004016101e890611680565b60005b81518110156102685761025582828151811061023d5761023d611690565b6020026020010151600061070a90919063ffffffff16565b5080610260816116bc565b91505061021f565b5060016102756000610728565b10156101fa5760405162461bcd60e51b81526004016101e890611708565b60008083516001600160401b038111156102af576102af611085565b6040519080825280602002602001820160405280156102d8578160200160208202803683370190505b50905060005b8451811015610337578481815181106102f9576102f9611690565b60200260200101518051906020012082828151811061031a5761031a611690565b60209081029190910101528061032f816116bc565b9150506102de565b506000600080516020611e1683398151915260001b878760405160200161035e919061174f565b6040516020818303038152906040528051906020012084604051602001610385919061179e565b60405160208183030381529060405280519060200120876040516020016103b09594939291906117aa565b6040516020818303038152906040528051906020012090507f0000000000000000000000000000000000000000000000000000000000000000816040516020016103fb9291906117fc565b6040516020818303038152906040528051906020012092505050949350505050565b33301461043c5760405162461bcd60e51b81526004016101e890611680565b6040516001600160a01b0383169082156108fc029083906000818181858888f19350505050158015610472573d6000803e3d6000fd5b505050565b3330146104965760405162461bcd60e51b81526004016101e890611680565b6104726001600160a01b0384168383610732565b6104b5600033610788565b6104d15760405162461bcd60e51b81526004016101e890611856565b6104de858585858561079d565b6104fa5760405162461bcd60e51b81526004016101e89061188f565b60005b84518110156105675761055484828151811061051b5761051b611690565b602002602001015186838151811061053557610535611690565b60200260200101516001600160a01b031661098590919063ffffffff16565b508061055f816116bc565b9150506104fd565b5060008581526002602052604090819020805460ff191660011790555185907ff7895055d9d9195b192e92072edf0f7084d4615ce19bf37fa823b1980b283bd6906105b59087908790611969565b60405180910390a25050505050565b606060006105d26000610728565b9050806001600160401b038111156105ec576105ec611085565b604051908082528060200260200182016040528015610615578160200160208202803683370190505b50915060005b8181101561066a5761062e6000826109c7565b83828151811061064057610640611690565b6001600160a01b039092166020928302919091019091015280610662816116bc565b91505061061b565b505090565b60005b81518110156107065760006001600160a01b031682828151811061069857610698611690565b60200260200101516001600160a01b0316036106c65760405162461bcd60e51b81526004016101e8906119c2565b6106f38282815181106106db576106db611690565b602002602001015160006109d390919063ffffffff16565b50806106fe816116bc565b915050610672565b5050565b600061071f836001600160a01b0384166109e8565b90505b92915050565b6000610722825490565b6104728363a9059cbb60e01b84846040516024016107519291906119d2565b60408051601f198184030181529190526020810180516001600160e01b03166001600160e01b031990931692909217909152610adb565b600061071f836001600160a01b038416610b6a565b600085815260026020819052604082205460ff16156107ce5760405162461bcd60e51b81526004016101e890611a12565b80835110156107ef5760405162461bcd60e51b81526004016101e890611a4b565b84518651146108105760405162461bcd60e51b81526004016101e890611a8c565b82518451146108315760405162461bcd60e51b81526004016101e890611a8c565b600083516001600160401b0381111561084c5761084c611085565b604051908082528060200260200182016040528015610875578160200160208202803683370190505b50905060005b845181101561094f574286828151811061089757610897611690565b602002602001015110156108bd5760405162461bcd60e51b81526004016101e890611aba565b60006108e48a8a8a8a86815181106108d7576108d7611690565b6020026020010151610293565b90506109128683815181106108fb576108fb611690565b602002602001015182610b8290919063ffffffff16565b83838151811061092457610924611690565b6001600160a01b03909216602092830291909101909101525080610947816116bc565b91505061087b565b5061095981610ba6565b6109755760405162461bcd60e51b81526004016101e890611af0565b6001925050505b95945050505050565b606061071f83836040518060400160405280601e81526020017f416464726573733a206c6f772d6c6576656c2063616c6c206661696c65640000815250610c96565b600061071f8383610caf565b600061071f836001600160a01b038416610cd9565b60008181526001830160205260408120548015610ad1576000610a0c600183611b00565b8554909150600090610a2090600190611b00565b9050818114610a85576000866000018281548110610a4057610a40611690565b9060005260206000200154905080876000018481548110610a6357610a63611690565b6000918252602080832090910192909255918252600188019052604090208390555b8554869080610a9657610a96611b13565b600190038181906000526020600020016000905590558560010160008681526020019081526020016000206000905560019350505050610722565b6000915050610722565b6000610b30826040518060400160405280602081526020017f5361666545524332303a206c6f772d6c6576656c2063616c6c206661696c6564815250856001600160a01b0316610c969092919063ffffffff16565b8051909150156104725780806020019051810190610b4e9190611b3c565b6104725760405162461bcd60e51b81526004016101e890611ba7565b60009081526001919091016020526040902054151590565b6000806000610b918585610d23565b91509150610b9e81610d91565b509392505050565b6000610bb26000610728565b82511115610bc257506000919050565b60005b8251811015610c8d57610bfb838281518110610be357610be3611690565b6020026020010151600061078890919063ffffffff16565b610c085750600092915050565b60005b81811015610c7a57838181518110610c2557610c25611690565b60200260200101516001600160a01b0316848381518110610c4857610c48611690565b60200260200101516001600160a01b031603610c68575060009392505050565b80610c72816116bc565b915050610c0b565b5080610c85816116bc565b915050610bc5565b50600192915050565b6060610ca58484600085610e71565b90505b9392505050565b6000826000018281548110610cc657610cc6611690565b9060005260206000200154905092915050565b6000610ce58383610b6a565b610d1b57508154600181810184556000848152602080822090930184905584548482528286019093526040902091909155610722565b506000610722565b6000808251604103610d595760208301516040840151606085015160001a610d4d87828585610f33565b94509450505050610d8a565b8251604003610d825760208301516040840151610d77868383611009565b935093505050610d8a565b506000905060025b9250929050565b6000816004811115610da557610da5611bb7565b03610dad5750565b6001816004811115610dc157610dc1611bb7565b03610dde5760405162461bcd60e51b81526004016101e890611bfc565b6002816004811115610df257610df2611bb7565b03610e0f5760405162461bcd60e51b81526004016101e890611c40565b6003816004811115610e2357610e23611bb7565b03610e405760405162461bcd60e51b81526004016101e890611c8f565b6004816004811115610e5457610e54611bb7565b036101fa5760405162461bcd60e51b81526004016101e890611cde565b606082471015610e935760405162461bcd60e51b81526004016101e890611d31565b6001600160a01b0385163b610eba5760405162461bcd60e51b81526004016101e890611d75565b600080866001600160a01b03168587604051610ed69190611da7565b60006040518083038185875af1925050503d8060008114610f13576040519150601f19603f3d011682016040523d82523d6000602084013e610f18565b606091505b5091509150610f28828286611042565b979650505050505050565b6000806fa2a8918ca85bafe22016d0b997e4df60600160ff1b03831115610f605750600090506003611000565b8460ff16601b14158015610f7857508460ff16601c14155b15610f895750600090506004611000565b600060018787878760405160008152602001604052604051610fae9493929190611dbc565b6020604051602081039080840390855afa158015610fd0573d6000803e3d6000fd5b5050604051601f1901519150506001600160a01b038116610ff957600060019250925050611000565b9150600090505b94509492505050565b6000806001600160ff1b0383168161102660ff86901c601b611df1565b905061103487828885610f33565b935093505050935093915050565b60608315611051575081610ca8565b8251156110615782518084602001fd5b8160405162461bcd60e51b81526004016101e89190611e04565b601f01601f191690565b634e487b7160e01b600052604160045260246000fd5b6110a48261107b565b81018181106001600160401b03821117156110c1576110c1611085565b6040525050565b60006110d360405190565b90506110df828261109b565b919050565b60006001600160401b038211156110fd576110fd611085565b5060209081020190565b60006001600160a01b038216610722565b61112181611107565b81146101fa57600080fd5b803561072281611118565b600061114a611145846110e4565b6110c8565b8381529050602080820190840283018581111561116957611169600080fd5b835b8181101561118d578061117e888261112c565b8452506020928301920161116b565b5050509392505050565b600082601f8301126111ab576111ab600080fd5b81356111bb848260208601611137565b949350505050565b6000602082840312156111d8576111d8600080fd5b81356001600160401b038111156111f1576111f1600080fd5b6111bb84828501611197565b805b82525050565b6020810161072282846111fd565b80611121565b803561072281611213565b60006001600160401b0382111561123d5761123d611085565b6112468261107b565b60200192915050565b82818337506000910152565b600061126961114584611224565b90508281526020810184848401111561128457611284600080fd5b610b9e84828561124f565b600082601f8301126112a3576112a3600080fd5b81356111bb84826020860161125b565b60006112c1611145846110e4565b838152905060208082019084028301858111156112e0576112e0600080fd5b835b8181101561118d5780356001600160401b0381111561130357611303600080fd5b808601611310898261128f565b85525050602092830192016112e2565b600082601f83011261133457611334600080fd5b81356111bb8482602086016112b3565b6000806000806080858703121561135d5761135d600080fd5b60006113698787611219565b94505060208501356001600160401b0381111561138857611388600080fd5b61139487828801611197565b93505060408501356001600160401b038111156113b3576113b3600080fd5b6113bf87828801611320565b92505060606113d087828801611219565b91505092959194509250565b600080604083850312156113f2576113f2600080fd5b60006113fe858561112c565b925050602061140f85828601611219565b9150509250929050565b600061072282611107565b61112181611419565b803561072281611424565b60008060006060848603121561145057611450600080fd5b600061145c868661142d565b935050602061146d8682870161112c565b925050604061147e86828701611219565b9150509250925092565b6000611496611145846110e4565b838152905060208082019084028301858111156114b5576114b5600080fd5b835b8181101561118d57806114ca8882611219565b845250602092830192016114b7565b600082601f8301126114ed576114ed600080fd5b81356111bb848260208601611488565b600080600080600060a0868803121561151857611518600080fd5b60006115248888611219565b95505060208601356001600160401b0381111561154357611543600080fd5b61154f88828901611197565b94505060408601356001600160401b0381111561156e5761156e600080fd5b61157a88828901611320565b93505060608601356001600160401b0381111561159957611599600080fd5b6115a5888289016114d9565b92505060808601356001600160401b038111156115c4576115c4600080fd5b6115d088828901611320565b9150509295509295909350565b6111ff81611107565b60006115f283836115dd565b505060200190565b6000611604825190565b80845260209384019383018060005b8381101561163857815161162788826115e6565b975060208301925050600101611613565b509495945050505050565b6020808252810161071f81846115fa565b60128152600060208201711b9bdd081bdddb995c8818dbdb9d1c9858dd60721b815291505b5060200190565b6020808252810161072281611654565b634e487b7160e01b600052603260045260246000fd5b634e487b7160e01b600052601160045260246000fd5b600060001982036116cf576116cf6116a6565b5060010190565b60208082527f636f6e7472616374206174206c65617374206e656564206f6e65206f776e657291019081526000611679565b60208082528101610722816116d6565b6000611722825190565b602083018060005b8381101561163857815161173e88826115e6565b97506020830192505060010161172a565b6000610ca88284611718565b60006115f283836111fd565b6000611771825190565b602083018060005b8381101561163857815161178d888261175b565b975060208301925050600101611779565b6000610ca88284611767565b60a081016117b882886111fd565b6117c560208301876111fd565b6117d260408301866111fd565b6117df60608301856111fd565b6117ec60808301846111fd565b9695505050505050565b806111ff565b61190160f01b8152600201600061181382856117f6565b60208201915061182382846117f6565b5060200192915050565b601281526000602082017131b0b63632b91034b9b713ba1037bbb732b960711b81529150611679565b602080825281016107228161182d565b6012815260006020820171696e76616c6964207369676e61747572657360701b81529150611679565b6020808252810161072281611866565b60005b838110156118ba5781810151838201526020016118a2565b50506000910152565b60006118cd825190565b8084526020840193506118e481856020860161189f565b6118ed8161107b565b9093019392505050565b600061071f83836118c3565b600061190d825190565b808452602084019350836020820285016119278560200190565b8060005b8581101561195c578484038952815161194485826118f7565b94506020830160209a909a019992505060010161192b565b5091979650505050505050565b6040808252810161197a81856115fa565b90508181036020830152610ca58184611903565b601e81526000602082017f496e76616c6964206f776e657220616464726573732070726f7669646564000081529150611679565b602080825281016107228161198e565b604081016119e082856115dd565b610ca860208301846111fd565b600e81526000602082016d1d1e081a5cc8195e1958dd5d195960921b81529150611679565b60208082528101610722816119ed565b60128152600060208201710e6d2ce40dceada40dcdee840cadcdeeaced60731b81529150611679565b6020808252810161072281611a22565b601a8152600060208201790929c869e9ca692a6a88a9ca8bea082a4829aa6be988a9c8ea8960331b81529150611679565b6020808252810161072281611a5b565b6007815260006020820166195e1c1a5c995960ca1b81529150611679565b6020808252810161072281611a9c565b600f81526000602082016e64697374696e6374206f776e65727360881b81529150611679565b6020808252810161072281611aca565b81810381811115610722576107226116a6565b634e487b7160e01b600052603160045260246000fd5b801515611121565b805161072281611b29565b600060208284031215611b5157611b51600080fd5b60006111bb8484611b31565b602a81526000602082017f5361666545524332303a204552433230206f7065726174696f6e20646964206e8152691bdd081cdd58d8d9595960b21b602082015291505b5060400190565b6020808252810161072281611b5d565b634e487b7160e01b600052602160045260246000fd5b601881526000602082017745434453413a20696e76616c6964207369676e617475726560401b81529150611679565b6020808252810161072281611bcd565b601f81526000602082017f45434453413a20696e76616c6964207369676e6174757265206c656e6774680081529150611679565b6020808252810161072281611c0c565b602281526000602082017f45434453413a20696e76616c6964207369676e6174757265202773272076616c815261756560f01b60208201529150611ba0565b6020808252810161072281611c50565b602281526000602082017f45434453413a20696e76616c6964207369676e6174757265202776272076616c815261756560f01b60208201529150611ba0565b6020808252810161072281611c9f565b602681526000602082017f416464726573733a20696e73756666696369656e742062616c616e636520666f8152651c8818d85b1b60d21b60208201529150611ba0565b6020808252810161072281611cee565b601d81526000602082017f416464726573733a2063616c6c20746f206e6f6e2d636f6e747261637400000081529150611679565b6020808252810161072281611d41565b6000611d8f825190565b611d9d81856020860161189f565b9290920192915050565b6000610ca88284611d85565b60ff81166111ff565b60808101611dca82876111fd565b611dd76020830186611db3565b611de460408301856111fd565b61097c60608301846111fd565b80820180821115610722576107226116a6565b6020808252810161071f81846118c356feea2b786765a2a3866619afc64bfb36f8668e4c2afac960ba57000f6a29c79d60a26469706673582212200be8bd7849a9e205331675b46898fe70377b096a5003ce9af81e8746f490d35364736f6c63430008140033",
  "devdoc": {
    "kind": "dev",
    "methods": {
      "addOwner(address[])": {
        "params": {
          "owners": "array of addresses to be added"
        }
      },
      "constructor": {
        "params": {
          "owners_": "Add contract owner"
        }
      },
      "execute(uint256,address[],bytes[],uint256[],bytes[])": {
        "params": {
          "datas": "The method called by the corresponding contract and the abi-encoded array of its parameters",
          "deadlines": "array of valid times for signature",
          "id": "Event ID for signature",
          "sigs": "Array of signatures for multiple transactions",
          "targets": "Array of contract addresses to be called"
        }
      },
      "getOwners()": {
        "returns": {
          "owners": "address array"
        }
      },
      "hashTypeData(uint256,address[],bytes[],uint256)": {
        "params": {
          "datas": "The method called by the corresponding contract and the abi-encoded array of its parameters",
          "deadline": "Valid time for signature",
          "id": "Event ID for signature",
          "targets": "Array of contract addresses to be called"
        },
        "returns": {
          "digest": "Data encrypted according to the EIP712 specification"
        }
      },
      "removeOwner(address[])": {
        "params": {
          "owners": "array of addresses to be removed"
        }
      }
    },
    "version": 1
  },
  "userdoc": {
    "events": {
      "Executed(uint256,address[],bytes[])": {
        "notice": "Emitted when execute task"
      }
    },
    "kind": "user",
    "methods": {
      "EXECUTE_TYPEHASH()": {
        "notice": "keccak256(\"Execute(uint256 id,address[] targets,bytes[] datas,uint256 deadline)\")"
      },
      "addOwner(address[])": {
        "notice": "Add contract owner"
      },
      "constructor": {
        "notice": "Initialize parameters"
      },
      "execute(uint256,address[],bytes[],uint256[],bytes[])": {
        "notice": "Execute multi-transaction signature"
      },
      "getOwners()": {
        "notice": "Get owner list"
      },
      "hashTypeData(uint256,address[],bytes[],uint256)": {
        "notice": "Encrypt data for multisig operation"
      },
      "removeOwner(address[])": {
        "notice": "Remove contract owner"
      }
    },
    "version": 1
  },
  "storageLayout": {
    "storage": [
      {
        "astId": 1834,
        "contract": "contracts/msig/PawnMultiSig.sol:MultiSig",
        "label": "_owners",
        "offset": 0,
        "slot": "0",
        "type": "t_struct(AddressSet)1518_storage"
      },
      {
        "astId": 1838,
        "contract": "contracts/msig/PawnMultiSig.sol:MultiSig",
        "label": "isExecuted",
        "offset": 0,
        "slot": "2",
        "type": "t_mapping(t_uint256,t_bool)"
      }
    ],
    "types": {
      "t_array(t_bytes32)dyn_storage": {
        "base": "t_bytes32",
        "encoding": "dynamic_array",
        "label": "bytes32[]",
        "numberOfBytes": "32"
      },
      "t_bool": {
        "encoding": "inplace",
        "label": "bool",
        "numberOfBytes": "1"
      },
      "t_bytes32": {
        "encoding": "inplace",
        "label": "bytes32",
        "numberOfBytes": "32"
      },
      "t_mapping(t_bytes32,t_uint256)": {
        "encoding": "mapping",
        "key": "t_bytes32",
        "label": "mapping(bytes32 => uint256)",
        "numberOfBytes": "32",
        "value": "t_uint256"
      },
      "t_mapping(t_uint256,t_bool)": {
        "encoding": "mapping",
        "key": "t_uint256",
        "label": "mapping(uint256 => bool)",
        "numberOfBytes": "32",
        "value": "t_bool"
      },
      "t_struct(AddressSet)1518_storage": {
        "encoding": "inplace",
        "label": "struct EnumerableSet.AddressSet",
        "members": [
          {
            "astId": 1517,
            "contract": "contracts/msig/PawnMultiSig.sol:MultiSig",
            "label": "_inner",
            "offset": 0,
            "slot": "0",
            "type": "t_struct(Set)1217_storage"
          }
        ],
        "numberOfBytes": "64"
      },
      "t_struct(Set)1217_storage": {
        "encoding": "inplace",
        "label": "struct EnumerableSet.Set",
        "members": [
          {
            "astId": 1212,
            "contract": "contracts/msig/PawnMultiSig.sol:MultiSig",
            "label": "_values",
            "offset": 0,
            "slot": "0",
            "type": "t_array(t_bytes32)dyn_storage"
          },
          {
            "astId": 1216,
            "contract": "contracts/msig/PawnMultiSig.sol:MultiSig",
            "label": "_indexes",
            "offset": 0,
            "slot": "1",
            "type": "t_mapping(t_bytes32,t_uint256)"
          }
        ],
        "numberOfBytes": "64"
      },
      "t_uint256": {
        "encoding": "inplace",
        "label": "uint256",
        "numberOfBytes": "32"
      }
    }
  }
}