{
  "address": "0xc06DA8a210F2264725fd2d2939a9C1b677f11F7C",
  "abi": [
    {
      "inputs": [],
      "name": "ActorNotFound",
      "type": "error"
    },
    {
      "inputs": [],
      "name": "FailToCallActor",
      "type": "error"
    },
    {
      "inputs": [],
      "name": "IncorrectWithdrawal",
      "type": "error"
    },
    {
      "inputs": [
        {
          "internalType": "uint64",
          "name": "",
          "type": "uint64"
        }
      ],
      "name": "InvalidCodec",
      "type": "error"
    },
    {
      "inputs": [],
      "name": "InvalidResponseLength",
      "type": "error"
    },
    {
      "inputs": [
        {
          "internalType": "uint256",
          "name": "balance",
          "type": "uint256"
        },
        {
          "internalType": "uint256",
          "name": "value",
          "type": "uint256"
        }
      ],
      "name": "NotEnoughBalance",
      "type": "error"
    },
    {
      "anonymous": false,
      "inputs": [
        {
          "indexed": false,
          "internalType": "address",
          "name": "previousAdmin",
          "type": "address"
        },
        {
          "indexed": false,
          "internalType": "address",
          "name": "newAdmin",
          "type": "address"
        }
      ],
      "name": "AdminChanged",
      "type": "event"
    },
    {
      "anonymous": false,
      "inputs": [
        {
          "indexed": true,
          "internalType": "address",
          "name": "beacon",
          "type": "address"
        }
      ],
      "name": "BeaconUpgraded",
      "type": "event"
    },
    {
      "anonymous": false,
      "inputs": [
        {
          "indexed": false,
          "internalType": "uint8",
          "name": "version",
          "type": "uint8"
        }
      ],
      "name": "Initialized",
      "type": "event"
    },
    {
      "anonymous": false,
      "inputs": [
        {
          "indexed": true,
          "internalType": "address",
          "name": "previousOwner",
          "type": "address"
        },
        {
          "indexed": true,
          "internalType": "address",
          "name": "newOwner",
          "type": "address"
        }
      ],
      "name": "OwnershipTransferred",
      "type": "event"
    },
    {
      "anonymous": false,
      "inputs": [
        {
          "indexed": false,
          "internalType": "uint64",
          "name": "minerId",
          "type": "uint64"
        },
        {
          "indexed": false,
          "internalType": "uint256",
          "name": "amount",
          "type": "uint256"
        }
      ],
      "name": "PushFund",
      "type": "event"
    },
    {
      "anonymous": false,
      "inputs": [
        {
          "indexed": true,
          "internalType": "address",
          "name": "implementation",
          "type": "address"
        }
      ],
      "name": "Upgraded",
      "type": "event"
    },
    {
      "inputs": [],
      "name": "FilmountainAddressRegistry",
      "outputs": [
        {
          "internalType": "contract IFilmountainAddressRegistry",
          "name": "",
          "type": "address"
        }
      ],
      "stateMutability": "view",
      "type": "function"
    },
    {
      "inputs": [
        {
          "internalType": "uint256",
          "name": "_amount",
          "type": "uint256"
        }
      ],
      "name": "borrow",
      "outputs": [],
      "stateMutability": "nonpayable",
      "type": "function"
    },
    {
      "inputs": [
        {
          "internalType": "address",
          "name": "_wFIL",
          "type": "address"
        },
        {
          "internalType": "address",
          "name": "_addressRegistry",
          "type": "address"
        }
      ],
      "name": "initialize",
      "outputs": [],
      "stateMutability": "nonpayable",
      "type": "function"
    },
    {
      "inputs": [],
      "name": "owner",
      "outputs": [
        {
          "internalType": "address",
          "name": "",
          "type": "address"
        }
      ],
      "stateMutability": "view",
      "type": "function"
    },
    {
      "inputs": [
        {
          "internalType": "uint256",
          "name": "_amount",
          "type": "uint256"
        }
      ],
      "name": "payInterest",
      "outputs": [],
      "stateMutability": "nonpayable",
      "type": "function"
    },
    {
      "inputs": [],
      "name": "proxiableUUID",
      "outputs": [
        {
          "internalType": "bytes32",
          "name": "",
          "type": "bytes32"
        }
      ],
      "stateMutability": "view",
      "type": "function"
    },
    {
      "inputs": [
        {
          "internalType": "uint64",
          "name": "_minerId",
          "type": "uint64"
        },
        {
          "internalType": "uint256",
          "name": "_amount",
          "type": "uint256"
        }
      ],
      "name": "pushFund",
      "outputs": [],
      "stateMutability": "nonpayable",
      "type": "function"
    },
    {
      "inputs": [],
      "name": "renounceOwnership",
      "outputs": [],
      "stateMutability": "nonpayable",
      "type": "function"
    },
    {
      "inputs": [
        {
          "internalType": "address",
          "name": "newOwner",
          "type": "address"
        }
      ],
      "name": "transferOwnership",
      "outputs": [],
      "stateMutability": "nonpayable",
      "type": "function"
    },
    {
      "inputs": [
        {
          "internalType": "address",
          "name": "newImplementation",
          "type": "address"
        }
      ],
      "name": "upgradeTo",
      "outputs": [],
      "stateMutability": "nonpayable",
      "type": "function"
    },
    {
      "inputs": [
        {
          "internalType": "address",
          "name": "newImplementation",
          "type": "address"
        },
        {
          "internalType": "bytes",
          "name": "data",
          "type": "bytes"
        }
      ],
      "name": "upgradeToAndCall",
      "outputs": [],
      "stateMutability": "payable",
      "type": "function"
    },
    {
      "inputs": [],
      "name": "wFIL",
      "outputs": [
        {
          "internalType": "contract IWFIL",
          "name": "",
          "type": "address"
        }
      ],
      "stateMutability": "view",
      "type": "function"
    },
    {
      "stateMutability": "payable",
      "type": "receive"
    }
  ],
  "numDeployments": 1,
  "solcInputHash": "b1730cd34b9518083c01cdbb4090dddd",
  "bytecode": "0x60a06040523060805234801561001457600080fd5b5060805161184361004c6000396000818161037d015281816103c60152818161055501528181610595015261061101526118436000f3fe60806040526004361061009b5760003560e01c80630200115a146100a75780633659cfe6146100c9578063485cc955146100e95780634f1ef2861461010957806352d1902d1461011c57806365c965c614610147578063715018a6146101745780638da5cb5b14610189578063ad452d75146101ab578063bef44256146101cb578063c5ebeaec146101eb578063f2fde38b1461020b57600080fd5b366100a257005b600080fd5b3480156100b357600080fd5b506100c76100c2366004610ed5565b61022b565b005b3480156100d557600080fd5b506100c76100e4366004610f3d565b610373565b3480156100f557600080fd5b506100c7610104366004610f5e565b610444565b6100c7610117366004611096565b61054b565b34801561012857600080fd5b50610131610604565b60405161013e91906110eb565b60405180910390f35b34801561015357600080fd5b5060c954610167906001600160a01b031681565b60405161013e9190611131565b34801561018057600080fd5b506100c7610661565b34801561019557600080fd5b5061019e610675565b60405161013e9190611148565b3480156101b757600080fd5b506100c76101c6366004611156565b610684565b3480156101d757600080fd5b5060ca54610167906001600160a01b031681565b3480156101f757600080fd5b506100c7610206366004611156565b610751565b34801561021757600080fd5b506100c7610226366004610f3d565b610830565b610233610867565b60ca546040516370a0823160e01b81526000916001600160a01b0316906370a0823190610264903090600401611148565b602060405180830381865afa158015610281573d6000803e3d6000fd5b505050506040513d601f19601f820116820180604052508101906102a59190611182565b9050808211156102c85760405163b4b1515760e01b815260040160405180910390fd5b60ca54604051632e1a7d4d60e01b81526001600160a01b0390911690632e1a7d4d906102f89085906004016110eb565b600060405180830381600087803b15801561031257600080fd5b505af1158015610326573d6000803e3d6000fd5b505050506103348383610896565b507ff50f16c2772bd0abb92c3623c9c7ae7a664cbdbdc340e1e75e1deb323fda84f483836040516103669291906111b2565b60405180910390a1505050565b6001600160a01b037f00000000000000000000000000000000000000000000000000000000000000001630036103c45760405162461bcd60e51b81526004016103bb90611207565b60405180910390fd5b7f00000000000000000000000000000000000000000000000000000000000000006001600160a01b03166103f66108ec565b6001600160a01b03161461041c5760405162461bcd60e51b81526004016103bb9061124e565b61042581610908565b6040805160008082526020820190925261044191839190610910565b50565b600054610100900460ff16158080156104645750600054600160ff909116105b806104855750610473306109f2565b158015610485575060005460ff166001145b6104a15760405162461bcd60e51b81526004016103bb906112a9565b6000805460ff1916600117905580156104c4576000805461ff0019166101001790555b6104cc610a01565b6104d4610a30565b60ca80546001600160a01b038086166001600160a01b03199283161790925560c98054928516929091169190911790558015610546576000805461ff00191690556040517f7f26b83ff96e1f2b6a682f133852f6798a09c465da95921460cefb384740249890610366906001906112cd565b505050565b6001600160a01b037f00000000000000000000000000000000000000000000000000000000000000001630036105935760405162461bcd60e51b81526004016103bb90611207565b7f00000000000000000000000000000000000000000000000000000000000000006001600160a01b03166105c56108ec565b6001600160a01b0316146105eb5760405162461bcd60e51b81526004016103bb9061124e565b6105f482610908565b61060082826001610910565b5050565b6000306001600160a01b037f0000000000000000000000000000000000000000000000000000000000000000161461064e5760405162461bcd60e51b81526004016103bb90611330565b506000805160206117c783398151915290565b610669610867565b6106736000610a57565b565b6033546001600160a01b031690565b60c960009054906101000a90046001600160a01b03166001600160a01b03166316f0115b6040518163ffffffff1660e01b8152600401602060405180830381865afa1580156106d7573d6000803e3d6000fd5b505050506040513d601f19601f820116820180604052508101906106fb919061134b565b6001600160a01b031663a15a211c826040518263ffffffff1660e01b81526004016000604051808303818588803b15801561073557600080fd5b505af1158015610749573d6000803e3d6000fd5b505050505050565b610759610867565b60c960009054906101000a90046001600160a01b03166001600160a01b03166316f0115b6040518163ffffffff1660e01b8152600401602060405180830381865afa1580156107ac573d6000803e3d6000fd5b505050506040513d601f19601f820116820180604052508101906107d0919061134b565b6001600160a01b031663c5ebeaec826040518263ffffffff1660e01b81526004016107fb91906110eb565b600060405180830381600087803b15801561081557600080fd5b505af1158015610829573d6000803e3d6000fd5b5050505050565b610838610867565b6001600160a01b03811661085e5760405162461bcd60e51b81526004016103bb906113af565b61044181610a57565b33610870610675565b6001600160a01b0316146106735760405162461bcd60e51b81526004016103bb906113f4565b60408051600080825260208201909252819081906108bc90869083908190886000610aa9565b9150915080516000146108e257604051630e74990760e01b815260040160405180910390fd5b5090505b92915050565b6000805160206117c7833981519152546001600160a01b031690565b610441610867565b7f4910fdfa16fed3260ed0e7147f7cc6da11a60208b5b9406d12a635614ffd91435460ff16156109435761054683610b89565b826001600160a01b03166352d1902d6040518163ffffffff1660e01b8152600401602060405180830381865afa92505050801561099d575060408051601f3d908101601f1916820190925261099a91810190611182565b60015b6109b95760405162461bcd60e51b81526004016103bb9061144f565b6000805160206117c783398151915281146109e65760405162461bcd60e51b81526004016103bb906114a5565b50610546838383610bdd565b6001600160a01b03163b151590565b600054610100900460ff16610a285760405162461bcd60e51b81526004016103bb906114fd565b610673610c08565b600054610100900460ff166106735760405162461bcd60e51b81526004016103bb906114fd565b603380546001600160a01b038381166001600160a01b0319831681179093556040519116919082907f8be0079c531659141344cd1fd0a4f28419497f9722a3daafe3b4186f6b6457e090600090a35050565b60006060610abe6005607f60991b0185610c38565b6000806005607f60991b01898787610ad7576000610ada565b60015b8b8b8f604051602001610af29695949392919061157f565b60408051601f1981840301815290829052610b0c91611602565b600060405180830381855af49150503d8060008114610b47576040519150601f19603f3d011682016040523d82523d6000602084013e610b4c565b606091505b509150915081610b6f57604051638a7db5bf60e01b815260040160405180910390fd5b610b7881610c80565b935093505050965096945050505050565b610b92816109f2565b610bae5760405162461bcd60e51b81526004016103bb90611658565b6000805160206117c783398151915280546001600160a01b0319166001600160a01b0392909216919091179055565b610be683610d46565b600082511180610bf35750805b1561054657610c028383610d86565b50505050565b600054610100900460ff16610c2f5760405162461bcd60e51b81526004016103bb906114fd565b61067333610a57565b4781811015610c5e578082604051634787a10360e11b81526004016103bb929190611668565b823f151580610c025760405163064d954b60e41b815260040160405180910390fd5b60006060600080600085806020019051810190610c9d91906116d9565b919450925090506001600160401b038216610cd757805115610cd257604051630e74990760e01b815260040160405180910390fd5b610d3a565b6001600160401b03821660511480610cf857506001600160401b0382166071145b15610d1f578051600003610cd257604051630e74990760e01b815260040160405180910390fd5b8160405163f1f6bced60e01b81526004016103bb9190611743565b91959194509092505050565b610d4f81610b89565b6040516001600160a01b038216907fbc7cd75a20ee27fd9adebab32041f755214dbc6bffa90cc0225b39da2e5c2d3b90600090a250565b6060610dab83836040518060600160405280602781526020016117e760279139610db2565b9392505050565b6060600080856001600160a01b031685604051610dcf9190611602565b600060405180830381855af49150503d8060008114610e0a576040519150601f19603f3d011682016040523d82523d6000602084013e610e0f565b606091505b5091509150610e2086838387610e2a565b9695505050505050565b60608315610e67578251600003610e6057610e44856109f2565b610e605760405162461bcd60e51b81526004016103bb90611785565b5081610e71565b610e718383610e79565b949350505050565b815115610e895781518083602001fd5b8060405162461bcd60e51b81526004016103bb9190611795565b6001600160401b0381165b811461044157600080fd5b80356108e681610ea3565b80610eae565b80356108e681610ec4565b60008060408385031215610eeb57610eeb600080fd5b6000610ef78585610eb9565b9250506020610f0885828601610eca565b9150509250929050565b6001600160a01b031690565b60006108e682610f12565b610eae81610f1e565b80356108e681610f29565b600060208284031215610f5257610f52600080fd5b6000610e718484610f32565b60008060408385031215610f7457610f74600080fd5b6000610f808585610f32565b9250506020610f0885828601610f32565b601f01601f191690565b634e487b7160e01b600052604160045260246000fd5b610fba82610f91565b81018181106001600160401b0382111715610fd757610fd7610f9b565b6040525050565b6000610fe960405190565b9050610ff58282610fb1565b919050565b60006001600160401b0382111561101357611013610f9b565b61101c82610f91565b60200192915050565b82818337506000910152565b600061104461103f84610ffa565b610fde565b90508281526020810184848401111561105f5761105f600080fd5b61106a848285611025565b509392505050565b600082601f83011261108657611086600080fd5b8135610e71848260208601611031565b600080604083850312156110ac576110ac600080fd5b60006110b88585610f32565b92505060208301356001600160401b038111156110d7576110d7600080fd5b610f0885828601611072565b805b82525050565b602081016108e682846110e3565b60006108e661110d61110a84610f12565b90565b610f12565b60006108e6826110f9565b60006108e682611112565b6110e58161111d565b602081016108e68284611128565b6110e581610f1e565b602081016108e6828461113f565b60006020828403121561116b5761116b600080fd5b6000610e718484610eca565b80516108e681610ec4565b60006020828403121561119757611197600080fd5b6000610e718484611177565b6001600160401b0381166110e5565b604081016111c082856111a3565b610dab60208301846110e3565b602c81526000602082016000805160206117a783398151915281526b19195b1959d85d1958d85b1b60a21b602082015291505b5060400190565b602080825281016108e6816111cd565b602c81526000602082016000805160206117a783398151915281526b6163746976652070726f787960a01b60208201529150611200565b602080825281016108e681611217565b602e81526000602082017f496e697469616c697a61626c653a20636f6e747261637420697320616c72656181526d191e481a5b9a5d1a585b1a5e995960921b60208201529150611200565b602080825281016108e68161125e565b600060ff82166108e6565b6110e5816112b9565b602081016108e682846112c4565b603881526000602082017f555550535570677261646561626c653a206d757374206e6f742062652063616c8152771b1959081d1a1c9bdd59da0819195b1959d85d1958d85b1b60421b60208201529150611200565b602080825281016108e6816112db565b80516108e681610f29565b60006020828403121561136057611360600080fd5b6000610e718484611340565b602681526000602082017f4f776e61626c653a206e6577206f776e657220697320746865207a65726f206181526564647265737360d01b60208201529150611200565b602080825281016108e68161136c565b60208082527f4f776e61626c653a2063616c6c6572206973206e6f7420746865206f776e6572910190815260005b5060200190565b602080825281016108e6816113bf565b602e81526000602082017f45524331393637557067726164653a206e657720696d706c656d656e7461746981526d6f6e206973206e6f74205555505360901b60208201529150611200565b602080825281016108e681611404565b602981526000602082017f45524331393637557067726164653a20756e737570706f727465642070726f788152681a58589b195555525160ba1b60208201529150611200565b602080825281016108e68161145f565b602b81526000602082017f496e697469616c697a61626c653a20636f6e7472616374206973206e6f74206981526a6e697469616c697a696e6760a81b60208201529150611200565b602080825281016108e6816114b5565b60005b83811015611528578181015183820152602001611510565b50506000910152565b600061153b825190565b80845260208401935061155281856020860161150d565b61155b81610f91565b9093019392505050565b60006001600160401b0382166108e6565b6110e581611565565b60c0810161158d82896111a3565b61159a60208301886110e3565b6115a760408301876111a3565b6115b460608301866111a3565b81810360808301526115c68185611531565b90506115d560a0830184611576565b979650505050505050565b60006115ea825190565b6115f881856020860161150d565b9290920192915050565b6000610dab82846115e0565b602d81526000602082017f455243313936373a206e657720696d706c656d656e746174696f6e206973206e81526c1bdd08184818dbdb9d1c9858dd609a1b60208201529150611200565b602080825281016108e68161160e565b604081016111c082856110e3565b80516108e681610ea3565b600061168f61103f84610ffa565b9050828152602081018484840111156116aa576116aa600080fd5b61106a84828561150d565b600082601f8301126116c9576116c9600080fd5b8151610e71848260208601611681565b6000806000606084860312156116f1576116f1600080fd5b60006116fd8686611177565b935050602061170e86828701611676565b92505060408401516001600160401b0381111561172d5761172d600080fd5b611739868287016116b5565b9150509250925092565b602081016108e682846111a3565b601d81526000602082017f416464726573733a2063616c6c20746f206e6f6e2d636f6e7472616374000000815291506113ed565b602080825281016108e681611751565b60208082528101610dab818461153156fe46756e6374696f6e206d7573742062652063616c6c6564207468726f75676820360894a13ba1a3210667c828492db98dca3e2076cc3735a920a3ca505d382bbc416464726573733a206c6f772d6c6576656c2064656c65676174652063616c6c206661696c6564a2646970667358221220a36ef9e0bd715d99a51c814aebf568df4c9c3f9749d92c11c3353d4c7589b00364736f6c63430008130033",
  "implementation": "0xB74379CA5096437bac2B5B7EefE175A85247b629",
  "devdoc": {
    "events": {
      "AdminChanged(address,address)": {
        "details": "Emitted when the admin account has changed."
      },
      "BeaconUpgraded(address)": {
        "details": "Emitted when the beacon is changed."
      },
      "Initialized(uint8)": {
        "details": "Triggered when the contract has been initialized or reinitialized."
      },
      "Upgraded(address)": {
        "details": "Emitted when the implementation is upgraded."
      }
    },
    "kind": "dev",
    "methods": {
      "owner()": {
        "details": "Returns the address of the current owner."
      },
      "proxiableUUID()": {
        "details": "Implementation of the ERC1822 {proxiableUUID} function. This returns the storage slot used by the implementation. It is used to validate the implementation's compatibility when performing an upgrade. IMPORTANT: A proxy pointing at a proxiable contract should not be considered proxiable itself, because this risks bricking a proxy that upgrades to it, by delegating to itself until out of gas. Thus it is critical that this function revert if invoked through a proxy. This is guaranteed by the `notDelegated` modifier."
      },
      "renounceOwnership()": {
        "details": "Leaves the contract without owner. It will not be possible to call `onlyOwner` functions. Can only be called by the current owner. NOTE: Renouncing ownership will leave the contract without an owner, thereby disabling any functionality that is only available to the owner."
      },
      "transferOwnership(address)": {
        "details": "Transfers ownership of the contract to a new account (`newOwner`). Can only be called by the current owner."
      },
      "upgradeTo(address)": {
        "custom:oz-upgrades-unsafe-allow-reachable": "delegatecall",
        "details": "Upgrade the implementation of the proxy to `newImplementation`. Calls {_authorizeUpgrade}. Emits an {Upgraded} event."
      },
      "upgradeToAndCall(address,bytes)": {
        "custom:oz-upgrades-unsafe-allow-reachable": "delegatecall",
        "details": "Upgrade the implementation of the proxy to `newImplementation`, and subsequently execute the function call encoded in `data`. Calls {_authorizeUpgrade}. Emits an {Upgraded} event."
      }
    },
    "version": 1
  },
  "userdoc": {
    "errors": {
      "ActorNotFound()": [
        {
          "notice": "the actor is not found"
        }
      ],
      "FailToCallActor()": [
        {
          "notice": "an error happened trying to call the actor"
        }
      ],
      "InvalidCodec(uint64)": [
        {
          "notice": "the codec received is not valid"
        }
      ],
      "InvalidResponseLength()": [
        {
          "notice": "the response received is not correct. In some case no response is expected and we received one, or a response was indeed expected and we received none."
        }
      ],
      "NotEnoughBalance(uint256,uint256)": [
        {
          "notice": "the smart contract has no enough balance to transfer"
        }
      ]
    },
    "kind": "user",
    "methods": {},
    "version": 1
  },
  "storageLayout": {
    "storage": [
      {
        "astId": 926,
        "contract": "contracts/sp/SPVaultV0.sol:SPVaultV0",
        "label": "_initialized",
        "offset": 0,
        "slot": "0",
        "type": "t_uint8"
      },
      {
        "astId": 929,
        "contract": "contracts/sp/SPVaultV0.sol:SPVaultV0",
        "label": "_initializing",
        "offset": 1,
        "slot": "0",
        "type": "t_bool"
      },
      {
        "astId": 1605,
        "contract": "contracts/sp/SPVaultV0.sol:SPVaultV0",
        "label": "__gap",
        "offset": 0,
        "slot": "1",
        "type": "t_array(t_uint256)50_storage"
      },
      {
        "astId": 432,
        "contract": "contracts/sp/SPVaultV0.sol:SPVaultV0",
        "label": "_owner",
        "offset": 0,
        "slot": "51",
        "type": "t_address"
      },
      {
        "astId": 552,
        "contract": "contracts/sp/SPVaultV0.sol:SPVaultV0",
        "label": "__gap",
        "offset": 0,
        "slot": "52",
        "type": "t_array(t_uint256)49_storage"
      },
      {
        "astId": 908,
        "contract": "contracts/sp/SPVaultV0.sol:SPVaultV0",
        "label": "__gap",
        "offset": 0,
        "slot": "101",
        "type": "t_array(t_uint256)50_storage"
      },
      {
        "astId": 1224,
        "contract": "contracts/sp/SPVaultV0.sol:SPVaultV0",
        "label": "__gap",
        "offset": 0,
        "slot": "151",
        "type": "t_array(t_uint256)50_storage"
      },
      {
        "astId": 3229,
        "contract": "contracts/sp/SPVaultV0.sol:SPVaultV0",
        "label": "FilmountainAddressRegistry",
        "offset": 0,
        "slot": "201",
        "type": "t_contract(IFilmountainAddressRegistry)3067"
      },
      {
        "astId": 3232,
        "contract": "contracts/sp/SPVaultV0.sol:SPVaultV0",
        "label": "wFIL",
        "offset": 0,
        "slot": "202",
        "type": "t_contract(IWFIL)3104"
      }
    ],
    "types": {
      "t_address": {
        "encoding": "inplace",
        "label": "address",
        "numberOfBytes": "20"
      },
      "t_array(t_uint256)49_storage": {
        "base": "t_uint256",
        "encoding": "inplace",
        "label": "uint256[49]",
        "numberOfBytes": "1568"
      },
      "t_array(t_uint256)50_storage": {
        "base": "t_uint256",
        "encoding": "inplace",
        "label": "uint256[50]",
        "numberOfBytes": "1600"
      },
      "t_bool": {
        "encoding": "inplace",
        "label": "bool",
        "numberOfBytes": "1"
      },
      "t_contract(IFilmountainAddressRegistry)3067": {
        "encoding": "inplace",
        "label": "contract IFilmountainAddressRegistry",
        "numberOfBytes": "20"
      },
      "t_contract(IWFIL)3104": {
        "encoding": "inplace",
        "label": "contract IWFIL",
        "numberOfBytes": "20"
      },
      "t_uint256": {
        "encoding": "inplace",
        "label": "uint256",
        "numberOfBytes": "32"
      },
      "t_uint8": {
        "encoding": "inplace",
        "label": "uint8",
        "numberOfBytes": "1"
      }
    }
  }
}