{
  "address": "0x19f45adc8b080804ea2c1e28a9ecc43336B07bae",
  "abi": [
    {
      "anonymous": false,
      "inputs": [
        {
          "indexed": false,
          "internalType": "address",
          "name": "previousAdmin",
          "type": "address"
        },
        {
          "indexed": false,
          "internalType": "address",
          "name": "newAdmin",
          "type": "address"
        }
      ],
      "name": "AdminChanged",
      "type": "event"
    },
    {
      "anonymous": false,
      "inputs": [
        {
          "indexed": true,
          "internalType": "address",
          "name": "beacon",
          "type": "address"
        }
      ],
      "name": "BeaconUpgraded",
      "type": "event"
    },
    {
      "anonymous": false,
      "inputs": [
        {
          "indexed": false,
          "internalType": "uint8",
          "name": "version",
          "type": "uint8"
        }
      ],
      "name": "Initialized",
      "type": "event"
    },
    {
      "anonymous": false,
      "inputs": [
        {
          "indexed": true,
          "internalType": "address",
          "name": "previousOwner",
          "type": "address"
        },
        {
          "indexed": true,
          "internalType": "address",
          "name": "newOwner",
          "type": "address"
        }
      ],
      "name": "OwnershipTransferred",
      "type": "event"
    },
    {
      "anonymous": false,
      "inputs": [
        {
          "indexed": true,
          "internalType": "address",
          "name": "implementation",
          "type": "address"
        }
      ],
      "name": "Upgraded",
      "type": "event"
    },
    {
      "inputs": [],
      "name": "deposit",
      "outputs": [],
      "stateMutability": "payable",
      "type": "function"
    },
    {
      "inputs": [],
      "name": "initialize",
      "outputs": [],
      "stateMutability": "nonpayable",
      "type": "function"
    },
    {
      "inputs": [],
      "name": "lookAddress",
      "outputs": [
        {
          "internalType": "address",
          "name": "",
          "type": "address"
        }
      ],
      "stateMutability": "view",
      "type": "function"
    },
    {
      "inputs": [],
      "name": "owner",
      "outputs": [
        {
          "internalType": "address",
          "name": "",
          "type": "address"
        }
      ],
      "stateMutability": "view",
      "type": "function"
    },
    {
      "inputs": [],
      "name": "proxiableUUID",
      "outputs": [
        {
          "internalType": "bytes32",
          "name": "",
          "type": "bytes32"
        }
      ],
      "stateMutability": "view",
      "type": "function"
    },
    {
      "inputs": [],
      "name": "renounceOwnership",
      "outputs": [],
      "stateMutability": "nonpayable",
      "type": "function"
    },
    {
      "inputs": [
        {
          "internalType": "address",
          "name": "newOwner",
          "type": "address"
        }
      ],
      "name": "transferOwnership",
      "outputs": [],
      "stateMutability": "nonpayable",
      "type": "function"
    },
    {
      "inputs": [
        {
          "internalType": "address",
          "name": "newImplementation",
          "type": "address"
        }
      ],
      "name": "upgradeTo",
      "outputs": [],
      "stateMutability": "nonpayable",
      "type": "function"
    },
    {
      "inputs": [
        {
          "internalType": "address",
          "name": "newImplementation",
          "type": "address"
        },
        {
          "internalType": "bytes",
          "name": "data",
          "type": "bytes"
        }
      ],
      "name": "upgradeToAndCall",
      "outputs": [],
      "stateMutability": "payable",
      "type": "function"
    }
  ],
  "numDeployments": 2,
  "solcInputHash": "c22eadee1f2b127072c50fc7973532f2",
  "bytecode": "0x60a06040523060805234801561001457600080fd5b50608051610fde61004c600039600081816101b2015281816101fb01528181610283015281816102c3015261033f0152610fde6000f3fe6080604052600436106100765760003560e01c80633659cfe61461007b5780634f1ef2861461009d57806352d1902d146100b0578063715018a6146100db5780638129fc1c146100f05780638da5cb5b14610105578063d0e30db014610127578063f2fde38b14610154578063ff1ee0ad14610174575b600080fd5b34801561008757600080fd5b5061009b6100963660046108f5565b6101a8565b005b61009b6100ab366004610a1b565b610279565b3480156100bc57600080fd5b506100c5610332565b6040516100d29190610a7a565b60405180910390f35b3480156100e757600080fd5b5061009b61038f565b3480156100fc57600080fd5b5061009b6103a3565b34801561011157600080fd5b5061011a610480565b6040516100d29190610a91565b61009b6000805260c9602052600080516020610f8983398151915280546001600160a01b03191633179055565b34801561016057600080fd5b5061009b61016f3660046108f5565b61048f565b34801561018057600080fd5b506000805260c9602052600080516020610f89833981519152546001600160a01b031661011a565b6001600160a01b037f00000000000000000000000000000000000000000000000000000000000000001630036101f95760405162461bcd60e51b81526004016101f090610ad9565b60405180910390fd5b7f00000000000000000000000000000000000000000000000000000000000000006001600160a01b031661022b6104c6565b6001600160a01b0316146102515760405162461bcd60e51b81526004016101f090610b20565b61025a816104e2565b60408051600080825260208201909252610276918391906104ea565b50565b6001600160a01b037f00000000000000000000000000000000000000000000000000000000000000001630036102c15760405162461bcd60e51b81526004016101f090610ad9565b7f00000000000000000000000000000000000000000000000000000000000000006001600160a01b03166102f36104c6565b6001600160a01b0316146103195760405162461bcd60e51b81526004016101f090610b20565b610322826104e2565b61032e828260016104ea565b5050565b6000306001600160a01b037f0000000000000000000000000000000000000000000000000000000000000000161461037c5760405162461bcd60e51b81526004016101f090610b85565b50600080516020610f4283398151915290565b6103976105d1565b6103a16000610600565b565b600054610100900460ff16158080156103c35750600054600160ff909116105b806103e457506103d230610652565b1580156103e4575060005460ff166001145b6104005760405162461bcd60e51b81526004016101f090610be0565b6000805460ff191660011790558015610423576000805461ff0019166101001790555b61042b610661565b610433610688565b8015610276576000805461ff00191690556040517f7f26b83ff96e1f2b6a682f133852f6798a09c465da95921460cefb38474024989061047590600190610c04565b60405180910390a150565b6033546001600160a01b031690565b6104976105d1565b6001600160a01b0381166104bd5760405162461bcd60e51b81526004016101f090610c55565b61027681610600565b600080516020610f42833981519152546001600160a01b031690565b6102766105d1565b7f4910fdfa16fed3260ed0e7147f7cc6da11a60208b5b9406d12a635614ffd91435460ff16156105225761051d836106b7565b505050565b826001600160a01b03166352d1902d6040518163ffffffff1660e01b8152600401602060405180830381865afa92505050801561057c575060408051601f3d908101601f1916820190925261057991810190610c76565b60015b6105985760405162461bcd60e51b81526004016101f090610ce2565b600080516020610f4283398151915281146105c55760405162461bcd60e51b81526004016101f090610d38565b5061051d83838361070b565b336105da610480565b6001600160a01b0316146103a15760405162461bcd60e51b81526004016101f090610d7d565b603380546001600160a01b038381166001600160a01b0319831681179093556040519116919082907f8be0079c531659141344cd1fd0a4f28419497f9722a3daafe3b4186f6b6457e090600090a35050565b6001600160a01b03163b151590565b600054610100900460ff166103a15760405162461bcd60e51b81526004016101f090610dd5565b600054610100900460ff166106af5760405162461bcd60e51b81526004016101f090610dd5565b6103a1610736565b6106c081610652565b6106dc5760405162461bcd60e51b81526004016101f090610e2f565b600080516020610f4283398151915280546001600160a01b0319166001600160a01b0392909216919091179055565b61071483610766565b6000825111806107215750805b1561051d5761073083836107a6565b50505050565b600054610100900460ff1661075d5760405162461bcd60e51b81526004016101f090610dd5565b6103a133610600565b61076f816106b7565b6040516001600160a01b038216907fbc7cd75a20ee27fd9adebab32041f755214dbc6bffa90cc0225b39da2e5c2d3b90600090a250565b60606107cb8383604051806060016040528060278152602001610f62602791396107d4565b90505b92915050565b6060600080856001600160a01b0316856040516107f19190610e85565b600060405180830381855af49150503d806000811461082c576040519150601f19603f3d011682016040523d82523d6000602084013e610831565b606091505b50915091506108428683838761084c565b9695505050505050565b606083156108895782516000036108825761086685610652565b6108825760405162461bcd60e51b81526004016101f090610ecc565b5081610893565b610893838361089b565b949350505050565b8151156108ab5781518083602001fd5b8060405162461bcd60e51b81526004016101f09190610f10565b60006001600160a01b0382166107ce565b6108df816108c5565b811461027657600080fd5b80356107ce816108d6565b60006020828403121561090a5761090a600080fd5b600061089384846108ea565b601f01601f191690565b634e487b7160e01b600052604160045260246000fd5b61093f82610916565b81018181106001600160401b038211171561095c5761095c610920565b6040525050565b600061096e60405190565b905061097a8282610936565b919050565b60006001600160401b0382111561099857610998610920565b6109a182610916565b60200192915050565b82818337506000910152565b60006109c96109c48461097f565b610963565b9050828152602081018484840111156109e4576109e4600080fd5b6109ef8482856109aa565b509392505050565b600082601f830112610a0b57610a0b600080fd5b81356108938482602086016109b6565b60008060408385031215610a3157610a31600080fd5b6000610a3d85856108ea565b92505060208301356001600160401b03811115610a5c57610a5c600080fd5b610a68858286016109f7565b9150509250929050565b805b82525050565b602081016107ce8284610a72565b610a74816108c5565b602081016107ce8284610a88565b602c8152600060208201600080516020610f2283398151915281526b19195b1959d85d1958d85b1b60a21b602082015291505b5060400190565b602080825281016107ce81610a9f565b602c8152600060208201600080516020610f2283398151915281526b6163746976652070726f787960a01b60208201529150610ad2565b602080825281016107ce81610ae9565b603881526000602082017f555550535570677261646561626c653a206d757374206e6f742062652063616c8152771b1959081d1a1c9bdd59da0819195b1959d85d1958d85b1b60421b60208201529150610ad2565b602080825281016107ce81610b30565b602e81526000602082017f496e697469616c697a61626c653a20636f6e747261637420697320616c72656181526d191e481a5b9a5d1a585b1a5e995960921b60208201529150610ad2565b602080825281016107ce81610b95565b600060ff82166107ce565b610a7481610bf0565b602081016107ce8284610bfb565b602681526000602082017f4f776e61626c653a206e6577206f776e657220697320746865207a65726f206181526564647265737360d01b60208201529150610ad2565b602080825281016107ce81610c12565b806108df565b80516107ce81610c65565b600060208284031215610c8b57610c8b600080fd5b60006108938484610c6b565b602e81526000602082017f45524331393637557067726164653a206e657720696d706c656d656e7461746981526d6f6e206973206e6f74205555505360901b60208201529150610ad2565b602080825281016107ce81610c97565b602981526000602082017f45524331393637557067726164653a20756e737570706f727465642070726f788152681a58589b195555525160ba1b60208201529150610ad2565b602080825281016107ce81610cf2565b60208082527f4f776e61626c653a2063616c6c6572206973206e6f7420746865206f776e6572910190815260005b5060200190565b602080825281016107ce81610d48565b602b81526000602082017f496e697469616c697a61626c653a20636f6e7472616374206973206e6f74206981526a6e697469616c697a696e6760a81b60208201529150610ad2565b602080825281016107ce81610d8d565b602d81526000602082017f455243313936373a206e657720696d706c656d656e746174696f6e206973206e81526c1bdd08184818dbdb9d1c9858dd609a1b60208201529150610ad2565b602080825281016107ce81610de5565b60005b83811015610e5a578181015183820152602001610e42565b50506000910152565b6000610e6d825190565b610e7b818560208601610e3f565b9290920192915050565b6000610e918284610e63565b9392505050565b601d81526000602082017f416464726573733a2063616c6c20746f206e6f6e2d636f6e747261637400000081529150610d76565b602080825281016107ce81610e98565b6000610ee6825190565b808452602084019350610efd818560208601610e3f565b610f0681610916565b9093019392505050565b602080825281016107cb8184610edc56fe46756e6374696f6e206d7573742062652063616c6c6564207468726f75676820360894a13ba1a3210667c828492db98dca3e2076cc3735a920a3ca505d382bbc416464726573733a206c6f772d6c6576656c2064656c65676174652063616c6c206661696c656481fe90a866a48a634a12852c1be675b683a22307409932a7443b8029347be756a2646970667358221220692d67d5488b8c7a9f4d6e62b3ae3b8074bbc5a26c549b97e55e2d2083a3b3fa64736f6c63430008130033",
  "implementation": "0x466E661180e74a45D1f16Ddae09A76E782176128",
  "devdoc": {
    "events": {
      "AdminChanged(address,address)": {
        "details": "Emitted when the admin account has changed."
      },
      "BeaconUpgraded(address)": {
        "details": "Emitted when the beacon is changed."
      },
      "Initialized(uint8)": {
        "details": "Triggered when the contract has been initialized or reinitialized."
      },
      "Upgraded(address)": {
        "details": "Emitted when the implementation is upgraded."
      }
    },
    "kind": "dev",
    "methods": {
      "owner()": {
        "details": "Returns the address of the current owner."
      },
      "proxiableUUID()": {
        "details": "Implementation of the ERC1822 {proxiableUUID} function. This returns the storage slot used by the implementation. It is used to validate the implementation's compatibility when performing an upgrade. IMPORTANT: A proxy pointing at a proxiable contract should not be considered proxiable itself, because this risks bricking a proxy that upgrades to it, by delegating to itself until out of gas. Thus it is critical that this function revert if invoked through a proxy. This is guaranteed by the `notDelegated` modifier."
      },
      "renounceOwnership()": {
        "details": "Leaves the contract without owner. It will not be possible to call `onlyOwner` functions. Can only be called by the current owner. NOTE: Renouncing ownership will leave the contract without an owner, thereby disabling any functionality that is only available to the owner."
      },
      "transferOwnership(address)": {
        "details": "Transfers ownership of the contract to a new account (`newOwner`). Can only be called by the current owner."
      },
      "upgradeTo(address)": {
        "custom:oz-upgrades-unsafe-allow-reachable": "delegatecall",
        "details": "Upgrade the implementation of the proxy to `newImplementation`. Calls {_authorizeUpgrade}. Emits an {Upgraded} event."
      },
      "upgradeToAndCall(address,bytes)": {
        "custom:oz-upgrades-unsafe-allow-reachable": "delegatecall",
        "details": "Upgrade the implementation of the proxy to `newImplementation`, and subsequently execute the function call encoded in `data`. Calls {_authorizeUpgrade}. Emits an {Upgraded} event."
      }
    },
    "version": 1
  },
  "userdoc": {
    "kind": "user",
    "methods": {},
    "version": 1
  },
  "storageLayout": {
    "storage": [
      {
        "astId": 505,
        "contract": "contracts/pool/Test.sol:Test",
        "label": "_initialized",
        "offset": 0,
        "slot": "0",
        "type": "t_uint8"
      },
      {
        "astId": 508,
        "contract": "contracts/pool/Test.sol:Test",
        "label": "_initializing",
        "offset": 1,
        "slot": "0",
        "type": "t_bool"
      },
      {
        "astId": 1184,
        "contract": "contracts/pool/Test.sol:Test",
        "label": "__gap",
        "offset": 0,
        "slot": "1",
        "type": "t_array(t_uint256)50_storage"
      },
      {
        "astId": 11,
        "contract": "contracts/pool/Test.sol:Test",
        "label": "_owner",
        "offset": 0,
        "slot": "51",
        "type": "t_address"
      },
      {
        "astId": 131,
        "contract": "contracts/pool/Test.sol:Test",
        "label": "__gap",
        "offset": 0,
        "slot": "52",
        "type": "t_array(t_uint256)49_storage"
      },
      {
        "astId": 487,
        "contract": "contracts/pool/Test.sol:Test",
        "label": "__gap",
        "offset": 0,
        "slot": "101",
        "type": "t_array(t_uint256)50_storage"
      },
      {
        "astId": 803,
        "contract": "contracts/pool/Test.sol:Test",
        "label": "__gap",
        "offset": 0,
        "slot": "151",
        "type": "t_array(t_uint256)50_storage"
      },
      {
        "astId": 1307,
        "contract": "contracts/pool/Test.sol:Test",
        "label": "addrmap",
        "offset": 0,
        "slot": "201",
        "type": "t_mapping(t_uint256,t_address)"
      }
    ],
    "types": {
      "t_address": {
        "encoding": "inplace",
        "label": "address",
        "numberOfBytes": "20"
      },
      "t_array(t_uint256)49_storage": {
        "base": "t_uint256",
        "encoding": "inplace",
        "label": "uint256[49]",
        "numberOfBytes": "1568"
      },
      "t_array(t_uint256)50_storage": {
        "base": "t_uint256",
        "encoding": "inplace",
        "label": "uint256[50]",
        "numberOfBytes": "1600"
      },
      "t_bool": {
        "encoding": "inplace",
        "label": "bool",
        "numberOfBytes": "1"
      },
      "t_mapping(t_uint256,t_address)": {
        "encoding": "mapping",
        "key": "t_uint256",
        "label": "mapping(uint256 => address)",
        "numberOfBytes": "32",
        "value": "t_address"
      },
      "t_uint256": {
        "encoding": "inplace",
        "label": "uint256",
        "numberOfBytes": "32"
      },
      "t_uint8": {
        "encoding": "inplace",
        "label": "uint8",
        "numberOfBytes": "1"
      }
    }
  }
}