{
  "address": "0xc0C9E4A24AaA642491A8583ba381ceb92c2982D6",
  "abi": [
    {
      "inputs": [],
      "stateMutability": "nonpayable",
      "type": "constructor"
    },
    {
      "anonymous": false,
      "inputs": [
        {
          "indexed": false,
          "internalType": "address",
          "name": "msgSender",
          "type": "address"
        },
        {
          "indexed": false,
          "internalType": "address",
          "name": "otherSigner",
          "type": "address"
        },
        {
          "indexed": false,
          "internalType": "bytes32",
          "name": "operation",
          "type": "bytes32"
        }
      ],
      "name": "BatchTransacted",
      "type": "event"
    },
    {
      "anonymous": false,
      "inputs": [
        {
          "indexed": false,
          "internalType": "address",
          "name": "sender",
          "type": "address"
        },
        {
          "indexed": false,
          "internalType": "address",
          "name": "recipient",
          "type": "address"
        },
        {
          "indexed": false,
          "internalType": "uint256",
          "name": "value",
          "type": "uint256"
        }
      ],
      "name": "BatchTransfer",
      "type": "event"
    },
    {
      "anonymous": false,
      "inputs": [
        {
          "indexed": false,
          "internalType": "address",
          "name": "from",
          "type": "address"
        },
        {
          "indexed": false,
          "internalType": "uint256",
          "name": "value",
          "type": "uint256"
        },
        {
          "indexed": false,
          "internalType": "bytes",
          "name": "data",
          "type": "bytes"
        }
      ],
      "name": "Deposited",
      "type": "event"
    },
    {
      "anonymous": false,
      "inputs": [
        {
          "indexed": false,
          "internalType": "address",
          "name": "msgSender",
          "type": "address"
        }
      ],
      "name": "SafeModeActivated",
      "type": "event"
    },
    {
      "anonymous": false,
      "inputs": [
        {
          "indexed": false,
          "internalType": "address",
          "name": "msgSender",
          "type": "address"
        },
        {
          "indexed": false,
          "internalType": "address",
          "name": "otherSigner",
          "type": "address"
        },
        {
          "indexed": false,
          "internalType": "bytes32",
          "name": "operation",
          "type": "bytes32"
        },
        {
          "indexed": false,
          "internalType": "address",
          "name": "toAddress",
          "type": "address"
        },
        {
          "indexed": false,
          "internalType": "uint256",
          "name": "value",
          "type": "uint256"
        },
        {
          "indexed": false,
          "internalType": "bytes",
          "name": "data",
          "type": "bytes"
        }
      ],
      "name": "Transacted",
      "type": "event"
    },
    {
      "stateMutability": "payable",
      "type": "fallback"
    },
    {
      "inputs": [],
      "name": "activateSafeMode",
      "outputs": [],
      "stateMutability": "nonpayable",
      "type": "function"
    },
    {
      "inputs": [
        {
          "internalType": "address payable",
          "name": "forwarderAddress",
          "type": "address"
        },
        {
          "internalType": "address",
          "name": "tokenContractAddress",
          "type": "address"
        },
        {
          "internalType": "uint256[]",
          "name": "tokenIds",
          "type": "uint256[]"
        }
      ],
      "name": "batchFlushERC1155ForwarderTokens",
      "outputs": [],
      "stateMutability": "nonpayable",
      "type": "function"
    },
    {
      "inputs": [
        {
          "internalType": "address payable",
          "name": "forwarderAddress",
          "type": "address"
        },
        {
          "internalType": "address",
          "name": "tokenContractAddress",
          "type": "address"
        },
        {
          "internalType": "uint256",
          "name": "tokenId",
          "type": "uint256"
        }
      ],
      "name": "flushERC1155ForwarderTokens",
      "outputs": [],
      "stateMutability": "nonpayable",
      "type": "function"
    },
    {
      "inputs": [
        {
          "internalType": "address payable",
          "name": "forwarderAddress",
          "type": "address"
        },
        {
          "internalType": "address",
          "name": "tokenContractAddress",
          "type": "address"
        },
        {
          "internalType": "uint256",
          "name": "tokenId",
          "type": "uint256"
        }
      ],
      "name": "flushERC721ForwarderTokens",
      "outputs": [],
      "stateMutability": "nonpayable",
      "type": "function"
    },
    {
      "inputs": [
        {
          "internalType": "address payable",
          "name": "forwarderAddress",
          "type": "address"
        },
        {
          "internalType": "address",
          "name": "tokenContractAddress",
          "type": "address"
        }
      ],
      "name": "flushForwarderTokens",
      "outputs": [],
      "stateMutability": "nonpayable",
      "type": "function"
    },
    {
      "inputs": [],
      "name": "getNextSequenceId",
      "outputs": [
        {
          "internalType": "uint256",
          "name": "",
          "type": "uint256"
        }
      ],
      "stateMutability": "view",
      "type": "function"
    },
    {
      "inputs": [
        {
          "internalType": "address[]",
          "name": "allowedSigners",
          "type": "address[]"
        }
      ],
      "name": "init",
      "outputs": [],
      "stateMutability": "nonpayable",
      "type": "function"
    },
    {
      "inputs": [],
      "name": "initialized",
      "outputs": [
        {
          "internalType": "bool",
          "name": "",
          "type": "bool"
        }
      ],
      "stateMutability": "view",
      "type": "function"
    },
    {
      "inputs": [
        {
          "internalType": "address",
          "name": "_operator",
          "type": "address"
        },
        {
          "internalType": "address",
          "name": "_from",
          "type": "address"
        },
        {
          "internalType": "uint256[]",
          "name": "ids",
          "type": "uint256[]"
        },
        {
          "internalType": "uint256[]",
          "name": "values",
          "type": "uint256[]"
        },
        {
          "internalType": "bytes",
          "name": "data",
          "type": "bytes"
        }
      ],
      "name": "onERC1155BatchReceived",
      "outputs": [
        {
          "internalType": "bytes4",
          "name": "",
          "type": "bytes4"
        }
      ],
      "stateMutability": "nonpayable",
      "type": "function"
    },
    {
      "inputs": [
        {
          "internalType": "address",
          "name": "_operator",
          "type": "address"
        },
        {
          "internalType": "address",
          "name": "_from",
          "type": "address"
        },
        {
          "internalType": "uint256",
          "name": "id",
          "type": "uint256"
        },
        {
          "internalType": "uint256",
          "name": "value",
          "type": "uint256"
        },
        {
          "internalType": "bytes",
          "name": "data",
          "type": "bytes"
        }
      ],
      "name": "onERC1155Received",
      "outputs": [
        {
          "internalType": "bytes4",
          "name": "",
          "type": "bytes4"
        }
      ],
      "stateMutability": "nonpayable",
      "type": "function"
    },
    {
      "inputs": [
        {
          "internalType": "address",
          "name": "_operator",
          "type": "address"
        },
        {
          "internalType": "address",
          "name": "_from",
          "type": "address"
        },
        {
          "internalType": "uint256",
          "name": "_tokenId",
          "type": "uint256"
        },
        {
          "internalType": "bytes",
          "name": "_data",
          "type": "bytes"
        }
      ],
      "name": "onERC721Received",
      "outputs": [
        {
          "internalType": "bytes4",
          "name": "",
          "type": "bytes4"
        }
      ],
      "stateMutability": "nonpayable",
      "type": "function"
    },
    {
      "inputs": [],
      "name": "safeMode",
      "outputs": [
        {
          "internalType": "bool",
          "name": "",
          "type": "bool"
        }
      ],
      "stateMutability": "view",
      "type": "function"
    },
    {
      "inputs": [
        {
          "internalType": "address",
          "name": "toAddress",
          "type": "address"
        },
        {
          "internalType": "uint256",
          "name": "value",
          "type": "uint256"
        },
        {
          "internalType": "bytes",
          "name": "data",
          "type": "bytes"
        },
        {
          "internalType": "uint256",
          "name": "expireTime",
          "type": "uint256"
        },
        {
          "internalType": "uint256",
          "name": "sequenceId",
          "type": "uint256"
        },
        {
          "internalType": "bytes",
          "name": "signature",
          "type": "bytes"
        }
      ],
      "name": "sendMultiSig",
      "outputs": [],
      "stateMutability": "nonpayable",
      "type": "function"
    },
    {
      "inputs": [
        {
          "internalType": "address[]",
          "name": "recipients",
          "type": "address[]"
        },
        {
          "internalType": "uint256[]",
          "name": "values",
          "type": "uint256[]"
        },
        {
          "internalType": "uint256",
          "name": "expireTime",
          "type": "uint256"
        },
        {
          "internalType": "uint256",
          "name": "sequenceId",
          "type": "uint256"
        },
        {
          "internalType": "bytes",
          "name": "signature",
          "type": "bytes"
        }
      ],
      "name": "sendMultiSigBatch",
      "outputs": [],
      "stateMutability": "nonpayable",
      "type": "function"
    },
    {
      "inputs": [
        {
          "internalType": "address",
          "name": "toAddress",
          "type": "address"
        },
        {
          "internalType": "uint256",
          "name": "value",
          "type": "uint256"
        },
        {
          "internalType": "address",
          "name": "tokenContractAddress",
          "type": "address"
        },
        {
          "internalType": "uint256",
          "name": "expireTime",
          "type": "uint256"
        },
        {
          "internalType": "uint256",
          "name": "sequenceId",
          "type": "uint256"
        },
        {
          "internalType": "bytes",
          "name": "signature",
          "type": "bytes"
        }
      ],
      "name": "sendMultiSigToken",
      "outputs": [],
      "stateMutability": "nonpayable",
      "type": "function"
    },
    {
      "inputs": [
        {
          "internalType": "address",
          "name": "forwarderAddress",
          "type": "address"
        },
        {
          "internalType": "bool",
          "name": "autoFlush",
          "type": "bool"
        }
      ],
      "name": "setAutoFlush1155",
      "outputs": [],
      "stateMutability": "nonpayable",
      "type": "function"
    },
    {
      "inputs": [
        {
          "internalType": "address",
          "name": "forwarderAddress",
          "type": "address"
        },
        {
          "internalType": "bool",
          "name": "autoFlush",
          "type": "bool"
        }
      ],
      "name": "setAutoFlush721",
      "outputs": [],
      "stateMutability": "nonpayable",
      "type": "function"
    },
    {
      "inputs": [
        {
          "internalType": "address",
          "name": "",
          "type": "address"
        }
      ],
      "name": "signers",
      "outputs": [
        {
          "internalType": "bool",
          "name": "",
          "type": "bool"
        }
      ],
      "stateMutability": "view",
      "type": "function"
    },
    {
      "inputs": [
        {
          "internalType": "bytes4",
          "name": "interfaceId",
          "type": "bytes4"
        }
      ],
      "name": "supportsInterface",
      "outputs": [
        {
          "internalType": "bool",
          "name": "",
          "type": "bool"
        }
      ],
      "stateMutability": "view",
      "type": "function"
    },
    {
      "stateMutability": "payable",
      "type": "receive"
    }
  ],
  "numDeployments": 15,
  "solcInputHash": "f9abee4397892ec267ee16b72ea5ceb2",
  "bytecode": "0x6101406040526001805461ffff191690553480156200001d57600080fd5b50604080518082018252600c81526b57616c6c657453696d706c6560a01b6020808301918252835180850190945260018452603160f81b908401528151902060e08190527fc89efdaa54c0f20c7adf612882df0950f5a951637e0307cdcb4c672f298b8bc66101008190524660a0529192917f8b73c3c69bb8fe3d512ecc4cf759cc79239f7b179b0ffacaa9a75d522b39400f620000bd818484620000d3565b6080523060c05261012052506200017d92505050565b60008383834630604051602001620000f095949392919062000127565b6040516020818303038152906040528051906020012090509392505050565b805b82525050565b6001600160a01b03811662000111565b60a081016200013782886200010f565b6200014660208301876200010f565b6200015560408301866200010f565b6200016460608301856200010f565b62000173608083018462000117565b9695505050505050565b60805160a05160c05160e0516101005161012051612a7e620001cd600039600061115b0152600061119d0152600061117c015260006110e00152600061110a015260006111340152612a7e6000f3fe6080604052600436106100e85760003560e01c806301ffc9a7146101475780630dcd7a6c1461017d578063150b7a021461019d578063158ef93e146101ca5780632da03409146101e957806334f940471461020957806339125215146102295780635a953d0a14610249578063736c0d5b146102695780639246777614610299578063a0b7967b146102b9578063abe3219c146102db578063ad3ad709146102f5578063bc197c8114610315578063c137878414610335578063c6044c4614610355578063e6bd0aa414610375578063f23a6e6114610395578063fc0f392d146103c15761011d565b3661011d57341561011b57600080516020612a298339815191523334604051610112929190611645565b60405180910390a15b005b341561011b57600080516020612a29833981519152333460003660405161011294939291906116b4565b34801561015357600080fd5b5061016761016236600461170e565b6103d6565b6040516101749190611737565b60405180910390f35b34801561018957600080fd5b5061011b6101983660046117b4565b61040d565b3480156101a957600080fd5b506101bd6101b8366004611945565b6104e4565b60405161017491906119cc565b3480156101d657600080fd5b5060015461016790610100900460ff1681565b3480156101f557600080fd5b5061011b6102043660046119da565b6104f5565b34801561021557600080fd5b5061011b610224366004611a61565b610589565b34801561023557600080fd5b5061011b610244366004611ace565b610623565b34801561025557600080fd5b5061011b610264366004611b96565b6107a8565b34801561027557600080fd5b50610167610284366004611be6565b60006020819052908152604090205460ff1681565b3480156102a557600080fd5b5061011b6102b4366004611c1a565b610835565b3480156102c557600080fd5b506102ce610892565b6040516101749190611c4d565b3480156102e757600080fd5b506001546101679060ff1681565b34801561030157600080fd5b5061011b610310366004611c5b565b6108f8565b34801561032157600080fd5b506101bd610330366004611db1565b610ac0565b34801561034157600080fd5b5061011b610350366004611c1a565b610ad2565b34801561036157600080fd5b5061011b610370366004611e77565b610b2f565b34801561038157600080fd5b5061011b610390366004611b96565b610c54565b3480156103a157600080fd5b506101bd6103b0366004611ebe565b63f23a6e6160e01b95945050505050565b3480156103cd57600080fd5b5061011b610cb3565b60006001600160e01b03198216630271189760e51b148061040757506301ffc9a760e01b6001600160e01b03198316145b92915050565b3360009081526020819052604090205460ff166104455760405162461bcd60e51b815260040161043c90611f4f565b60405180910390fd5b60006104be6040518060a00160405280607181526020016129b8607191396040516020016104739190611fa5565b6040516020818303038152906040528051906020012089898989896040516020016104a396959493929190611fb1565b60405160208183030381529060405280519060200120610d28565b90506104ce888285858989610d3b565b506104da868989610e5d565b5050505050505050565b630a85bd0160e11b5b949350505050565b3360009081526020819052604090205460ff166105245760405162461bcd60e51b815260040161043c90611f4f565b604051633ef1336760e01b815282906001600160a01b03821690633ef133679061055290859060040161200b565b600060405180830381600087803b15801561056c57600080fd5b505af1158015610580573d6000803e3d6000fd5b50505050505050565b3360009081526020819052604090205460ff166105b85760405162461bcd60e51b815260040161043c90611f4f565b6040516331a8b74960e21b815284906001600160a01b0382169063c6a2dd24906105ea9087908790879060040161205c565b600060405180830381600087803b15801561060457600080fd5b505af1158015610618573d6000803e3d6000fd5b505050505050505050565b3360009081526020819052604090205460ff166106525760405162461bcd60e51b815260040161043c90611f4f565b60006106c46040518060800160405280605e8152602001612900605e91396040516020016106809190611fa5565b604051602081830303815290604052805190602001208a8a8a8a6040516106a892919061208a565b6040519081900381206104a3949392918b908b90602001612097565b905060006106d68a8386868a8a610d3b565b90507f59bed9ab5d78073465dd642a9e3e76dfdb7d53bcae9d09df7d0b8f5234d5a8063382848d8d8d8d60405161071397969594939291906120cc565b60405180910390a160008a6001600160a01b03168a8a8a60405161073892919061208a565b60006040518083038185875af1925050503d8060008114610775576040519150601f19603f3d011682016040523d82523d6000602084013e61077a565b606091505b505090508061079b5760405162461bcd60e51b815260040161043c9061215a565b5050505050505050505050565b3360009081526020819052604090205460ff166107d75760405162461bcd60e51b815260040161043c90611f4f565b60405163159e44d760e01b815283906001600160a01b0382169063159e44d790610807908690869060040161216a565b600060405180830381600087803b15801561082157600080fd5b505af11580156104da573d6000803e3d6000fd5b3360009081526020819052604090205460ff166108645760405162461bcd60e51b815260040161043c90611f4f565b60405163456600df60e11b815282906001600160a01b03821690638acc01be90610552908590600401611737565b600080805b600a8110156108e65781600282600a81106108b4576108b4612185565b015411156108d457600281600a81106108cf576108cf612185565b015491505b806108de816121b1565b915050610897565b506108f28160016121cb565b91505090565b3360009081526020819052604090205460ff166109275760405162461bcd60e51b815260040161043c90611f4f565b60008790036109485760405162461bcd60e51b815260040161043c9061220a565b8685146109675760405162461bcd60e51b815260040161043c9061224e565b61010087106109885760405162461bcd60e51b815260040161043c90612291565b6000610a346040518060800160405280605a815260200161295e605a91396040516020016109b69190611fa5565b604051602081830303815290604052805190602001208a8a6040516020016109df929190612303565b604051602081830303815290604052805190602001208989604051602001610a08929190612318565b6040516020818303038152906040528051906020012088886040516020016104a3959493929190612325565b60015490915060ff1615610a5a5760405162461bcd60e51b815260040161043c90612390565b6000610a6b60008386868a8a610d3b565b90507fe4c9047a729726b729cf4fa62c95ef9a434bbaf206a7ea0c7c77515db1584022338284604051610aa0939291906123a0565b60405180910390a1610ab48a8a8a8a610f4a565b50505050505050505050565b63bc197c8160e01b5b95945050505050565b3360009081526020819052604090205460ff16610b015760405162461bcd60e51b815260040161043c90611f4f565b60405163c59f9f1960e01b815282906001600160a01b0382169063c59f9f1990610552908590600401611737565b600154610100900460ff1615610b575760405162461bcd60e51b815260040161043c906123fb565b60048114610b775760405162461bcd60e51b815260040161043c9061243b565b60005b60ff8116821115610c40576000838360ff8416818110610b9c57610b9c612185565b9050602002016020810190610bb19190611be6565b6001600160a01b031603610bd75760405162461bcd60e51b815260040161043c90612470565b600160008085858560ff16818110610bf157610bf1612185565b9050602002016020810190610c069190611be6565b6001600160a01b031681526020810191909152604001600020805460ff191691151591909117905580610c3881612480565b915050610b7a565b50506001805461ff00191661010017905550565b3360009081526020819052604090205460ff16610c835760405162461bcd60e51b815260040161043c90611f4f565b60405163225cb05f60e21b815283906001600160a01b03821690638972c17c90610807908690869060040161216a565b3360009081526020819052604090205460ff16610ce25760405162461bcd60e51b815260040161043c90611f4f565b6001805460ff1916811790556040517f0909e8f76a4fd3e970f2eaef56c0ee6dfaf8b87c5b8d3f56ffce78e825a9115790610d1e90339061200b565b60405180910390a1565b6000610407610d356110d3565b836111c6565b600080610d7e8787878080601f0160208091040260200160405190810160405280939291908181526020018383808284376000920191909152506111f992505050565b60015490915060ff161580610dab57506001600160a01b03881660009081526020819052604090205460ff165b610dc75760405162461bcd60e51b815260040161043c906124ca565b42841015610de75760405162461bcd60e51b815260040161043c90612504565b610df08361120c565b6001600160a01b03811660009081526020819052604090205460ff16610e285760405162461bcd60e51b815260040161043c90612470565b336001600160a01b03821603610e505760405162461bcd60e51b815260040161043c90612542565b90505b9695505050505050565b600080846001600160a01b031663a9059cbb8585604051602401610e8292919061216a565b6040516020818303038152906040529060e01b6020820180516001600160e01b038381831617835250505050604051610ebb9190611fa5565b6000604051808303816000865af19150503d8060008114610ef8576040519150601f19603f3d011682016040523d82523d6000602084013e610efd565b606091505b5091509150818015610f27575080511580610f27575080806020019051810190610f27919061255d565b610f435760405162461bcd60e51b815260040161043c906125cb565b5050505050565b60005b83811015610f4357828282818110610f6757610f67612185565b90506020020135471015610f8d5760405162461bcd60e51b815260040161043c90612604565b7fc42fa155158786a1dd6ccc3a785f35845467353c3cc700e0e31a79f90e22227d33868684818110610fc157610fc1612185565b9050602002016020810190610fd69190611be6565b858585818110610fe857610fe8612185565b90506020020135604051610ffe939291906123a0565b60405180910390a1600085858381811061101a5761101a612185565b905060200201602081019061102f9190611be6565b6001600160a01b031684848481811061104a5761104a612185565b9050602002013560405161105d9061261c565b60006040518083038185875af1925050503d806000811461109a576040519150601f19603f3d011682016040523d82523d6000602084013e61109f565b606091505b50509050806110c05760405162461bcd60e51b815260040161043c90612649565b50806110cb816121b1565b915050610f4d565b6000306001600160a01b037f00000000000000000000000000000000000000000000000000000000000000001614801561112c57507f000000000000000000000000000000000000000000000000000000000000000046145b1561115657507f000000000000000000000000000000000000000000000000000000000000000090565b6111c17f00000000000000000000000000000000000000000000000000000000000000007f00000000000000000000000000000000000000000000000000000000000000007f0000000000000000000000000000000000000000000000000000000000000000611361565b905090565b600082826040516020016111db929190612659565b60405160208183030381529060405280519060200120905092915050565b6000611205838361139b565b9392505050565b60408051610140810191829052600091829190600290600a9082845b815481526020019060010190808311611228575050505050905060005b600a8110156112cd57838282600a811061126157611261612185565b6020020151036112835760405162461bcd60e51b815260040161043c906126b9565b8183600a811061129557611295612185565b60200201518282600a81106112ac576112ac612185565b602002015110156112bb578092505b806112c5816121b1565b915050611245565b508082600a81106112e0576112e0612185565b602002015183116113035760405162461bcd60e51b815260040161043c906126f8565b6127108183600a811061131857611318612185565b602002015161132791906121cb565b8311156113465760405162461bcd60e51b815260040161043c90612738565b82600283600a811061135a5761135a612185565b0155505050565b6000838383463060405160200161137c959493929190612748565b6040516020818303038152906040528051906020012090509392505050565b60008060006113aa85856113bf565b915091506113b78161142d565b509392505050565b60008082516041036113f55760208301516040840151606085015160001a6113e987828585611510565b94509450505050611426565b825160400361141e57602083015160408401516114138683836115e6565b935093505050611426565b506000905060025b9250929050565b60008160048111156114415761144161278a565b036114495750565b600181600481111561145d5761145d61278a565b0361147a5760405162461bcd60e51b815260040161043c906127cf565b600281600481111561148e5761148e61278a565b036114ab5760405162461bcd60e51b815260040161043c90612813565b60038160048111156114bf576114bf61278a565b036114dc5760405162461bcd60e51b815260040161043c90612862565b60048160048111156114f0576114f061278a565b0361150d5760405162461bcd60e51b815260040161043c906128b1565b50565b6000806fa2a8918ca85bafe22016d0b997e4df60600160ff1b0383111561153d57506000905060036115dd565b8460ff16601b1415801561155557508460ff16601c14155b1561156657506000905060046115dd565b60006001878787876040516000815260200160405260405161158b94939291906128ca565b6020604051602081039080840390855afa1580156115ad573d6000803e3d6000fd5b5050604051601f1901519150506001600160a01b0381166115d6576000600192509250506115dd565b9150600090505b94509492505050565b6000806001600160ff1b0383168161160360ff86901c601b6121cb565b905061161187828885611510565b935093505050935093915050565b60006001600160a01b038216610407565b6116398161161f565b82525050565b80611639565b606081016116538285611630565b611660602083018461163f565b818103604083015260008152602081016104ed565b82818337506000910152565b601f01601f191690565b81835260006020840193506116a1838584611675565b6116aa83611681565b9093019392505050565b606081016116c28287611630565b6116cf602083018661163f565b8181036040830152610e5381848661168b565b6001600160e01b03191690565b6116f8816116e2565b811461150d57600080fd5b8035610407816116ef565b60006020828403121561172357611723600080fd5b60006104ed8484611703565b801515611639565b60208101610407828461172f565b6116f88161161f565b803561040781611745565b806116f8565b803561040781611759565b60008083601f84011261177f5761177f600080fd5b5081356001600160401b0381111561179957611799600080fd5b60208301915083600182028301111561142657611426600080fd5b600080600080600080600060c0888a0312156117d2576117d2600080fd5b60006117de8a8a61174e565b97505060206117ef8a828b0161175f565b96505060406118008a828b0161174e565b95505060606118118a828b0161175f565b94505060806118228a828b0161175f565b93505060a08801356001600160401b0381111561184157611841600080fd5b61184d8a828b0161176a565b925092505092959891949750929550565b634e487b7160e01b600052604160045260246000fd5b61187d82611681565b81018181106001600160401b038211171561189a5761189a61185e565b6040525050565b60006118ac60405190565b90506118b88282611874565b919050565b60006001600160401b038211156118d6576118d661185e565b6118df82611681565b60200192915050565b60006118fb6118f6846118bd565b6118a1565b90508281526020810184848401111561191657611916600080fd5b6113b7848285611675565b600082601f83011261193557611935600080fd5b81356104ed8482602086016118e8565b6000806000806080858703121561195e5761195e600080fd5b600061196a878761174e565b945050602061197b8782880161174e565b935050604061198c8782880161175f565b92505060608501356001600160401b038111156119ab576119ab600080fd5b6119b787828801611921565b91505092959194509250565b611639816116e2565b6020810161040782846119c3565b600080604083850312156119f0576119f0600080fd5b60006119fc858561174e565b9250506020611a0d8582860161174e565b9150509250929050565b60008083601f840112611a2c57611a2c600080fd5b5081356001600160401b03811115611a4657611a46600080fd5b60208301915083602082028301111561142657611426600080fd5b60008060008060608587031215611a7a57611a7a600080fd5b6000611a86878761174e565b9450506020611a978782880161174e565b93505060408501356001600160401b03811115611ab657611ab6600080fd5b611ac287828801611a17565b95989497509550505050565b60008060008060008060008060c0898b031215611aed57611aed600080fd5b6000611af98b8b61174e565b9850506020611b0a8b828c0161175f565b97505060408901356001600160401b03811115611b2957611b29600080fd5b611b358b828c0161176a565b96509650506060611b488b828c0161175f565b9450506080611b598b828c0161175f565b93505060a08901356001600160401b03811115611b7857611b78600080fd5b611b848b828c0161176a565b92509250509295985092959890939650565b600080600060608486031215611bae57611bae600080fd5b6000611bba868661174e565b9350506020611bcb8682870161174e565b9250506040611bdc8682870161175f565b9150509250925092565b600060208284031215611bfb57611bfb600080fd5b60006104ed848461174e565b8015156116f8565b803561040781611c07565b60008060408385031215611c3057611c30600080fd5b6000611c3c858561174e565b9250506020611a0d85828601611c0f565b60208101610407828461163f565b60008060008060008060008060a0898b031215611c7a57611c7a600080fd5b88356001600160401b03811115611c9357611c93600080fd5b611c9f8b828c01611a17565b985098505060208901356001600160401b03811115611cc057611cc0600080fd5b611ccc8b828c01611a17565b96509650506040611cdf8b828c0161175f565b9450506060611cf08b828c0161175f565b93505060808901356001600160401b03811115611b7857611b78600080fd5b60006001600160401b03821115611d2857611d2861185e565b5060209081020190565b6000611d406118f684611d0f565b83815290506020808201908402830185811115611d5f57611d5f600080fd5b835b81811015611d835780611d74888261175f565b84525060209283019201611d61565b5050509392505050565b600082601f830112611da157611da1600080fd5b81356104ed848260208601611d32565b600080600080600060a08688031215611dcc57611dcc600080fd5b6000611dd8888861174e565b9550506020611de98882890161174e565b94505060408601356001600160401b03811115611e0857611e08600080fd5b611e1488828901611d8d565b93505060608601356001600160401b03811115611e3357611e33600080fd5b611e3f88828901611d8d565b92505060808601356001600160401b03811115611e5e57611e5e600080fd5b611e6a88828901611921565b9150509295509295909350565b60008060208385031215611e8d57611e8d600080fd5b82356001600160401b03811115611ea657611ea6600080fd5b611eb285828601611a17565b92509250509250929050565b600080600080600060a08688031215611ed957611ed9600080fd5b6000611ee5888861174e565b9550506020611ef68882890161174e565b9450506040611f078882890161175f565b9350506060611e3f8882890161175f565b601f81526000602082017f4e6f6e2d7369676e657220696e206f6e6c795369676e6572206d6574686f6400815291505b5060200190565b6020808252810161040781611f18565b60005b83811015611f7a578181015183820152602001611f62565b50506000910152565b6000611f8d825190565b611f9b818560208601611f5f565b9290920192915050565b60006112058284611f83565b60c08101611fbf828961163f565b611fcc6020830188611630565b611fd9604083018761163f565b611fe66060830186611630565b611ff3608083018561163f565b61200060a083018461163f565b979650505050505050565b602081016104078284611630565b82818337505050565b8183526000602084015b93506001600160fb1b0383111561204557612045600080fd5b602083029250612056838584612019565b50500190565b6040810161206a8286611630565b8181036020830152610ac9818486612022565b6000612056838584611675565b60006104ed82848661207d565b60c081016120a5828961163f565b6120b26020830188611630565b6120bf604083018761163f565b611fe6606083018661163f565b60c081016120da828a611630565b6120e76020830189611630565b6120f4604083018861163f565b6121016060830187611630565b61210e608083018661163f565b81810360a083015261212181848661168b565b9998505050505050505050565b601581526000602082017410d85b1b08195e1958dd5d1a5bdb8819985a5b1959605a1b81529150611f48565b602080825281016104078161212e565b604081016121788285611630565b611205602083018461163f565b634e487b7160e01b600052603260045260246000fd5b634e487b7160e01b600052601160045260246000fd5b600060001982036121c4576121c461219b565b5060010190565b808201808211156104075761040761219b565b60158152600060208201744e6f7420656e6f75676820726563697069656e747360581b81529150611f48565b60208082528101610407816121de565b601d81526000602082017f556e657175616c20726563697069656e747320616e642076616c75657300000081529150611f48565b602080825281016104078161221a565b601c81526000602082017b546f6f206d616e7920726563697069656e74732c206d61782032353560201b81529150611f48565b602080825281016104078161225e565b60006122ad8383611630565b505060200190565b6000611205602084018461174e565b6000818060005b858110156122f8576122dd82846122b5565b6122e788826122a1565b9750602083019250506001016122cb565b509495945050505050565b60006104ed8284866122c4565b60008361202c565b60006104ed828486612310565b60a08101612333828861163f565b612340602083018761163f565b61234d604083018661163f565b61235a606083018561163f565b610e53608083018461163f565b6012815260006020820171426174636820696e2073616665206d6f646560701b81529150611f48565b6020808252810161040781612367565b606081016123ae8286611630565b6123bb6020830185611630565b6104ed604083018461163f565b601c81526000602082017b10dbdb9d1c9858dd08185b1c9958591e481a5b9a5d1a585b1a5e995960221b81529150611f48565b60208082528101610407816123c8565b6019815260006020820178496e76616c6964206e756d626572206f66207369676e65727360381b81529150611f48565b602080825281016104078161240b565b600e81526000602082016d24b73b30b634b21039b4b3b732b960911b81529150611f48565b602080825281016104078161244b565b60ff16600060fe1982016121c4576121c461219b565b601e81526000602082017f45787465726e616c207472616e7366657220696e2073616665206d6f6465000081529150611f48565b6020808252810161040781612496565b6013815260006020820172151c985b9cd858dd1a5bdb88195e1c1a5c9959606a1b81529150611f48565b60208082528101610407816124da565b601781526000602082017614da59db995c9cc818d85b9b9bdd08189948195c5d585b604a1b81529150611f48565b6020808252810161040781612514565b805161040781611c07565b60006020828403121561257257612572600080fd5b60006104ed8484612552565b602d81526000602082017f5472616e7366657248656c7065723a3a736166655472616e736665723a20747281526c185b9cd9995c8819985a5b1959609a1b602082015291505b5060400190565b602080825281016104078161257e565b6012815260006020820171496e73756666696369656e742066756e647360701b81529150611f48565b60208082528101610407816125db565b6000816108f2565b600061040782612614565b600b81526000602082016a10d85b1b0819985a5b195960aa1b81529150611f48565b6020808252810161040781612627565b61190160f01b81526002016000612670828561163f565b602082019150612680828461163f565b5060200192915050565b601881526000602082017714d95c5d595b98d948125108185b1c9958591e481d5cd95960421b81529150611f48565b602080825281016104078161268a565b601881526000602082017753657175656e63652049442062656c6f772077696e646f7760401b81529150611f48565b60208082528101610407816126c9565b601981526000602082017853657175656e63652049442061626f7665206d6178696d756d60381b81529150611f48565b6020808252810161040781612708565b60a08101612756828861163f565b612763602083018761163f565b612770604083018661163f565b61277d606083018561163f565b610e536080830184611630565b634e487b7160e01b600052602160045260246000fd5b601881526000602082017745434453413a20696e76616c6964207369676e617475726560401b81529150611f48565b60208082528101610407816127a0565b601f81526000602082017f45434453413a20696e76616c6964207369676e6174757265206c656e6774680081529150611f48565b60208082528101610407816127df565b602281526000602082017f45434453413a20696e76616c6964207369676e6174757265202773272076616c815261756560f01b602082015291506125c4565b6020808252810161040781612823565b602281526000602082017f45434453413a20696e76616c6964207369676e6174757265202776272076616c815261756560f01b602082015291506125c4565b6020808252810161040781612872565b60ff8116611639565b608081016128d8828761163f565b6128e560208301866128c1565b6128f2604083018561163f565b610ac9606083018461163f56fe57616c6c657453696d706c65286164647265737320746f416464726573732c75696e743235362076616c75652c627974657320646174612c75696e743235362065787069726554696d652c75696e743235362073657175656e636549642942617463685472616e7366657228616464726573735b5d20726563697069656e74732c75696e743235365b5d2076616c7565732c75696e743235362065787069726554696d652c75696e743235362073657175656e6365496429546f6b656e5472616e73666572286164647265737320746f416464726573732c75696e743235362076616c75652c6164647265737320746f6b656e436f6e7472616374416464726573732c75696e743235362065787069726554696d652c75696e743235362073657175656e63654964296e89d517057028190560dd200cf6bf792842861353d1173761dfa362e1c133f0a264697066735822122084b87a3520ddaaaeddfc19a4aaa404f6c12fd8d3f92b6a6d673f11179772589164736f6c63430008140033",
  "devdoc": {
    "kind": "dev",
    "methods": {
      "batchFlushERC1155ForwarderTokens(address,address,uint256[])": {
        "params": {
          "forwarderAddress": "the address of the forwarder address to flush the tokens from",
          "tokenContractAddress": "the address of the erc1155 token contract"
        }
      },
      "flushERC1155ForwarderTokens(address,address,uint256)": {
        "params": {
          "forwarderAddress": "the address of the forwarder address to flush the tokens from",
          "tokenContractAddress": "the address of the erc1155 token contract",
          "tokenId": "the token id associated with the ERC1155"
        }
      },
      "flushERC721ForwarderTokens(address,address,uint256)": {
        "params": {
          "forwarderAddress": "the address of the forwarder address to flush the tokens from",
          "tokenContractAddress": "the address of the erc20 token contract"
        }
      },
      "flushForwarderTokens(address,address)": {
        "params": {
          "forwarderAddress": "the address of the forwarder address to flush the tokens from",
          "tokenContractAddress": "the address of the erc20 token contract"
        }
      },
      "init(address[])": {
        "params": {
          "allowedSigners": "An array of signers on the wallet"
        }
      },
      "onERC721Received(address,address,uint256,bytes)": {
        "params": {
          "_data": "Additional data with no specified format, sent in call to `_to`",
          "_from": "The address of the sender",
          "_operator": "The address of the nft contract",
          "_tokenId": "The token id of the nft"
        }
      },
      "sendMultiSig(address,uint256,bytes,uint256,uint256,bytes)": {
        "params": {
          "data": "the data to send to the toAddress when invoking the transaction",
          "expireTime": "the number of seconds since 1970 for which this transaction is valid",
          "sequenceId": "the unique sequence id obtainable from getNextSequenceId",
          "signature": "see Data Formats",
          "toAddress": "the destination address to send an outgoing transaction",
          "value": "the amount in Wei to be sent"
        }
      },
      "sendMultiSigBatch(address[],uint256[],uint256,uint256,bytes)": {
        "params": {
          "expireTime": "the number of seconds since 1970 for which this transaction is valid",
          "recipients": "The list of recipients to send to",
          "sequenceId": "the unique sequence id obtainable from getNextSequenceId",
          "signature": "see Data Formats",
          "values": "The list of values to send to"
        }
      },
      "sendMultiSigToken(address,uint256,address,uint256,uint256,bytes)": {
        "params": {
          "expireTime": "the number of seconds since 1970 for which this transaction is valid",
          "sequenceId": "the unique sequence id obtainable from getNextSequenceId",
          "signature": "see Data Formats",
          "toAddress": "the destination address to send an outgoing transaction",
          "tokenContractAddress": "the address of the erc20 token contract",
          "value": "the amount in tokens to be sent"
        }
      },
      "setAutoFlush1155(address,bool)": {
        "params": {
          "autoFlush": "whether to autoflush erc1155 tokens",
          "forwarderAddress": "the address of the forwarder to toggle."
        }
      },
      "setAutoFlush721(address,bool)": {
        "params": {
          "autoFlush": "whether to autoflush erc721 tokens",
          "forwarderAddress": "the address of the forwarder to toggle."
        }
      },
      "supportsInterface(bytes4)": {
        "details": "See {IERC165-supportsInterface}."
      }
    },
    "version": 1
  },
  "userdoc": {
    "kind": "user",
    "methods": {
      "activateSafeMode()": {
        "notice": "Irrevocably puts contract into safe mode. When in this mode, transactions may only be sent to signing addresses."
      },
      "batchFlushERC1155ForwarderTokens(address,address,uint256[])": {
        "notice": "Execute a ERC1155 batch token flush from one of the forwarder addresses. This transfer needs only a single signature and can be done by any signer."
      },
      "flushERC1155ForwarderTokens(address,address,uint256)": {
        "notice": "Execute a ERC1155 token flush from one of the forwarder addresses. This transfer needs only a single signature and can be done by any signer."
      },
      "flushERC721ForwarderTokens(address,address,uint256)": {
        "notice": "Execute a ERC721 token flush from one of the forwarder addresses. This transfer needs only a single signature and can be done by any signer"
      },
      "flushForwarderTokens(address,address)": {
        "notice": "Execute a token flush from one of the forwarder addresses. This transfer needs only a single signature and can be done by any signer"
      },
      "getNextSequenceId()": {
        "notice": "Gets the next available sequence ID for signing when using executeAndConfirm returns the sequenceId one higher than the highest currently stored"
      },
      "init(address[])": {
        "notice": "Set up a simple multi-sig wallet by specifying the signers allowed to be used on this wallet. 2 signers will be required to send a transaction from this wallet. Note: The sender is NOT automatically added to the list of signers. Signers CANNOT be changed once they are set"
      },
      "onERC721Received(address,address,uint256,bytes)": {
        "notice": "ERC721 standard callback function for when a ERC721 is transfered."
      },
      "sendMultiSig(address,uint256,bytes,uint256,uint256,bytes)": {
        "notice": "Execute a multi-signature transaction from this wallet using 2 signers: one from msg.sender and the other from ecrecover. Sequence IDs are numbers starting from 1. They are used to prevent replay attacks and may not be repeated."
      },
      "sendMultiSigBatch(address[],uint256[],uint256,uint256,bytes)": {
        "notice": "Execute a batched multi-signature transaction from this wallet using 2 signers: one from msg.sender and the other from ecrecover. Sequence IDs are numbers starting from 1. They are used to prevent replay attacks and may not be repeated. The recipients and values to send are encoded in two arrays, where for index i, recipients[i] will be sent values[i]."
      },
      "sendMultiSigToken(address,uint256,address,uint256,uint256,bytes)": {
        "notice": "Execute a multi-signature token transfer from this wallet using 2 signers: one from msg.sender and the other from ecrecover. Sequence IDs are numbers starting from 1. They are used to prevent replay attacks and may not be repeated."
      },
      "setAutoFlush1155(address,bool)": {
        "notice": "Sets the autoflush 721 parameter on the forwarder."
      },
      "setAutoFlush721(address,bool)": {
        "notice": "Sets the autoflush 721 parameter on the forwarder."
      }
    },
    "notice": "WalletSimple ============ Basic multi-signer wallet designed for use in a co-signing environment where 2 signatures are required to move funds. Typically used in a 2-of-3 signing configuration. Uses ecrecover to allow for 2 signatures in a single transaction. The first signature is created on the operation hash (see Data Formats) and passed to sendMultiSig/sendMultiSigToken The signer is determined by verifyMultiSig(). The second signature is created by the submitter of the transaction and determined by msg.signer. Data Formats ============ The signature is created with ethereumjs-util.ecsign(operationHash). Like the eth_sign RPC call, it packs the values as a 65-byte array of [r, s, v]. Unlike eth_sign, the message is not prefixed. The operationHash the result of keccak256(prefix, toAddress, value, data, expireTime). For ether transactions, `prefix` is chain id of the coin i.e. for eth mainnet it is \"1\". For token transaction, `prefix` is chain id + \"-ERC20\" i.e. for mainnet it is \"1-ERC20\" and `data` is the tokenContractAddress.",
    "version": 1
  },
  "storageLayout": {
    "storage": [
      {
        "astId": 1365,
        "contract": "contracts/msig/WalletSimple.sol:WalletSimple",
        "label": "signers",
        "offset": 0,
        "slot": "0",
        "type": "t_mapping(t_address,t_bool)"
      },
      {
        "astId": 1368,
        "contract": "contracts/msig/WalletSimple.sol:WalletSimple",
        "label": "safeMode",
        "offset": 0,
        "slot": "1",
        "type": "t_bool"
      },
      {
        "astId": 1371,
        "contract": "contracts/msig/WalletSimple.sol:WalletSimple",
        "label": "initialized",
        "offset": 1,
        "slot": "1",
        "type": "t_bool"
      },
      {
        "astId": 1381,
        "contract": "contracts/msig/WalletSimple.sol:WalletSimple",
        "label": "recentSequenceIds",
        "offset": 0,
        "slot": "2",
        "type": "t_array(t_uint256)10_storage"
      }
    ],
    "types": {
      "t_address": {
        "encoding": "inplace",
        "label": "address",
        "numberOfBytes": "20"
      },
      "t_array(t_uint256)10_storage": {
        "base": "t_uint256",
        "encoding": "inplace",
        "label": "uint256[10]",
        "numberOfBytes": "320"
      },
      "t_bool": {
        "encoding": "inplace",
        "label": "bool",
        "numberOfBytes": "1"
      },
      "t_mapping(t_address,t_bool)": {
        "encoding": "mapping",
        "key": "t_address",
        "label": "mapping(address => bool)",
        "numberOfBytes": "32",
        "value": "t_bool"
      },
      "t_uint256": {
        "encoding": "inplace",
        "label": "uint256",
        "numberOfBytes": "32"
      }
    }
  }
}