{
  "address": "0xAb0Dd7da44a8223c4A2637E070e8dfA563AB0cD1",
  "abi": [
    {
      "inputs": [
        {
          "internalType": "address[]",
          "name": "allowedSigners",
          "type": "address[]"
        }
      ],
      "stateMutability": "nonpayable",
      "type": "constructor"
    },
    {
      "inputs": [],
      "name": "InvalidShortString",
      "type": "error"
    },
    {
      "inputs": [
        {
          "internalType": "string",
          "name": "str",
          "type": "string"
        }
      ],
      "name": "StringTooLong",
      "type": "error"
    },
    {
      "anonymous": false,
      "inputs": [
        {
          "indexed": false,
          "internalType": "address",
          "name": "",
          "type": "address"
        },
        {
          "indexed": false,
          "internalType": "uint256",
          "name": "",
          "type": "uint256"
        },
        {
          "indexed": false,
          "internalType": "bytes",
          "name": "",
          "type": "bytes"
        }
      ],
      "name": "Deposited",
      "type": "event"
    },
    {
      "anonymous": false,
      "inputs": [],
      "name": "EIP712DomainChanged",
      "type": "event"
    },
    {
      "stateMutability": "payable",
      "type": "fallback"
    },
    {
      "inputs": [
        {
          "internalType": "address payable",
          "name": "forwarderAddress",
          "type": "address"
        },
        {
          "internalType": "address",
          "name": "tokenContractAddress",
          "type": "address"
        },
        {
          "internalType": "uint256[]",
          "name": "tokenIds",
          "type": "uint256[]"
        }
      ],
      "name": "batchFlushERC1155ForwarderTokens",
      "outputs": [],
      "stateMutability": "nonpayable",
      "type": "function"
    },
    {
      "inputs": [],
      "name": "domainSeparatorV4",
      "outputs": [
        {
          "internalType": "bytes32",
          "name": "",
          "type": "bytes32"
        }
      ],
      "stateMutability": "view",
      "type": "function"
    },
    {
      "inputs": [],
      "name": "eip712Domain",
      "outputs": [
        {
          "internalType": "bytes1",
          "name": "fields",
          "type": "bytes1"
        },
        {
          "internalType": "string",
          "name": "name",
          "type": "string"
        },
        {
          "internalType": "string",
          "name": "version",
          "type": "string"
        },
        {
          "internalType": "uint256",
          "name": "chainId",
          "type": "uint256"
        },
        {
          "internalType": "address",
          "name": "verifyingContract",
          "type": "address"
        },
        {
          "internalType": "bytes32",
          "name": "salt",
          "type": "bytes32"
        },
        {
          "internalType": "uint256[]",
          "name": "extensions",
          "type": "uint256[]"
        }
      ],
      "stateMutability": "view",
      "type": "function"
    },
    {
      "inputs": [
        {
          "internalType": "address payable",
          "name": "forwarderAddress",
          "type": "address"
        },
        {
          "internalType": "address",
          "name": "tokenContractAddress",
          "type": "address"
        },
        {
          "internalType": "uint256",
          "name": "tokenId",
          "type": "uint256"
        }
      ],
      "name": "flushERC1155ForwarderTokens",
      "outputs": [],
      "stateMutability": "nonpayable",
      "type": "function"
    },
    {
      "inputs": [
        {
          "internalType": "address payable",
          "name": "forwarderAddress",
          "type": "address"
        },
        {
          "internalType": "address",
          "name": "tokenContractAddress",
          "type": "address"
        },
        {
          "internalType": "uint256",
          "name": "tokenId",
          "type": "uint256"
        }
      ],
      "name": "flushERC721ForwarderTokens",
      "outputs": [],
      "stateMutability": "nonpayable",
      "type": "function"
    },
    {
      "inputs": [
        {
          "internalType": "address payable",
          "name": "forwarderAddress",
          "type": "address"
        },
        {
          "internalType": "address",
          "name": "tokenContractAddress",
          "type": "address"
        }
      ],
      "name": "flushForwarderTokens",
      "outputs": [],
      "stateMutability": "nonpayable",
      "type": "function"
    },
    {
      "inputs": [],
      "name": "getNextSequenceId",
      "outputs": [
        {
          "internalType": "uint256",
          "name": "",
          "type": "uint256"
        }
      ],
      "stateMutability": "view",
      "type": "function"
    },
    {
      "inputs": [
        {
          "internalType": "address",
          "name": "toAddress",
          "type": "address"
        },
        {
          "internalType": "uint256",
          "name": "value",
          "type": "uint256"
        },
        {
          "internalType": "bytes",
          "name": "data",
          "type": "bytes"
        },
        {
          "internalType": "uint256",
          "name": "expireTime",
          "type": "uint256"
        },
        {
          "internalType": "uint256",
          "name": "sequenceId",
          "type": "uint256"
        },
        {
          "internalType": "bytes",
          "name": "signature",
          "type": "bytes"
        }
      ],
      "name": "sendMultiSig",
      "outputs": [],
      "stateMutability": "nonpayable",
      "type": "function"
    },
    {
      "inputs": [
        {
          "internalType": "address",
          "name": "toAddress",
          "type": "address"
        },
        {
          "internalType": "uint256",
          "name": "value",
          "type": "uint256"
        },
        {
          "internalType": "address",
          "name": "tokenContractAddress",
          "type": "address"
        },
        {
          "internalType": "uint256",
          "name": "expireTime",
          "type": "uint256"
        },
        {
          "internalType": "uint256",
          "name": "sequenceId",
          "type": "uint256"
        },
        {
          "internalType": "bytes",
          "name": "signature",
          "type": "bytes"
        }
      ],
      "name": "sendMultiSigToken",
      "outputs": [],
      "stateMutability": "nonpayable",
      "type": "function"
    },
    {
      "inputs": [
        {
          "internalType": "address",
          "name": "forwarderAddress",
          "type": "address"
        },
        {
          "internalType": "bool",
          "name": "autoFlush",
          "type": "bool"
        }
      ],
      "name": "setAutoFlush1155",
      "outputs": [],
      "stateMutability": "nonpayable",
      "type": "function"
    },
    {
      "inputs": [
        {
          "internalType": "address",
          "name": "forwarderAddress",
          "type": "address"
        },
        {
          "internalType": "bool",
          "name": "autoFlush",
          "type": "bool"
        }
      ],
      "name": "setAutoFlush721",
      "outputs": [],
      "stateMutability": "nonpayable",
      "type": "function"
    },
    {
      "inputs": [
        {
          "internalType": "address",
          "name": "",
          "type": "address"
        }
      ],
      "name": "signers",
      "outputs": [
        {
          "internalType": "bool",
          "name": "",
          "type": "bool"
        }
      ],
      "stateMutability": "view",
      "type": "function"
    },
    {
      "inputs": [
        {
          "internalType": "bytes32",
          "name": "operationHash",
          "type": "bytes32"
        },
        {
          "internalType": "bytes",
          "name": "signature",
          "type": "bytes"
        },
        {
          "internalType": "uint256",
          "name": "expireTime",
          "type": "uint256"
        },
        {
          "internalType": "uint256",
          "name": "sequenceId",
          "type": "uint256"
        }
      ],
      "name": "verifyMultiSig",
      "outputs": [
        {
          "internalType": "address",
          "name": "",
          "type": "address"
        }
      ],
      "stateMutability": "nonpayable",
      "type": "function"
    },
    {
      "stateMutability": "payable",
      "type": "receive"
    }
  ],
  "numDeployments": 21,
  "solcInputHash": "97d1907190480a78daba5c6cfe572f6a",
  "bytecode": "0x6101606040523480156200001257600080fd5b506040516200254b3803806200254b833981016040819052620000359162000405565b604080518082018252600c81526b57616c6c657453696d706c6560a01b602080830191909152825180840190935260018352603160f81b90830152906200007e826000620001c0565b610120526200008f816001620001c0565b61014052815160208084019190912060e052815190820120610100524660a052620000b9620001f9565b60805250503060c0528051600414620000ef5760405162461bcd60e51b8152600401620000e6906200047c565b60405180910390fd5b60005b81518160ff161015620001b85760006001600160a01b0316828260ff16815181106200012257620001226200048e565b60200260200101516001600160a01b031603620001535760405162461bcd60e51b8152600401620000e690620004ca565b600160026000848460ff16815181106200017157620001716200048e565b6020908102919091018101516001600160a01b03168252810191909152604001600020805460ff191691151591909117905580620001af81620004f2565b915050620000f2565b505062000835565b6000602083511015620001e057620001d88362000255565b9050620001f3565b81620001ed848262000635565b5060ff90505b92915050565b60e051610100516040516000926200023a927f8b73c3c69bb8fe3d512ecc4cf759cc79239f7b179b0ffacaa9a75d522b39400f924690309060200162000717565b60405160208183030381529060405280519060200120905090565b600080829050601f8151111562000283578260405163305a27a960e01b8152600401620000e69190620007cc565b80516200029082620007f1565b179392505050565b90565b601f01601f191690565b634e487b7160e01b600052604160045260246000fd5b620002c6826200029b565b81018181106001600160401b0382111715620002e657620002e6620002a5565b6040525050565b6000620002f960405190565b9050620003078282620002bb565b919050565b60006001600160401b03821115620003285762000328620002a5565b5060209081020190565b60006001600160a01b038216620001f3565b6200034f8162000332565b81146200035b57600080fd5b50565b8051620001f38162000344565b6000620003826200037c846200030c565b620002ed565b83815290506020808201908402830185811115620003a357620003a3600080fd5b835b81811015620003cb5780620003bb88826200035e565b84525060209283019201620003a5565b5050509392505050565b600082601f830112620003eb57620003eb600080fd5b8151620003fd8482602086016200036b565b949350505050565b6000602082840312156200041c576200041c600080fd5b81516001600160401b03811115620004375762000437600080fd5b620003fd84828501620003d5565b601981526000602082017f496e76616c6964206e756d626572206f66207369676e65727300000000000000815291505b5060200190565b60208082528101620001f38162000445565b634e487b7160e01b600052603260045260246000fd5b600e81526000602082016d24b73b30b634b21039b4b3b732b960911b8152915062000475565b60208082528101620001f381620004a4565b634e487b7160e01b600052601160045260246000fd5b60ff16600060fe1982016200050b576200050b620004dc565b5060010190565b634e487b7160e01b600052602260045260246000fd5b6002810460018216806200053d57607f821691505b60208210810362000552576200055262000512565b50919050565b6000620001f3620002988381565b620005718362000558565b815460001960089490940293841b1916921b91909117905550565b60006200059b81848462000566565b505050565b81811015620005bf57620005b66000826200058c565b600101620005a0565b5050565b601f8211156200059b576000818152602090206020601f85010481016020851015620005ec5750805b620006006020601f860104830182620005a0565b5050505050565b6000196008929092029190911c191690565b600062000627838362000607565b600290930290921792915050565b81516001600160401b03811115620006515762000651620002a5565b6200065d825462000528565b6200066a828285620005c3565b6020601f8311600181146200069d5760008415620006885750858201515b62000694858262000619565b865550620006fc565b600085815260208120601f198616915b82811015620006cf5788850151825560209485019460019092019101620006ad565b86831015620006ef5784890151620006eb601f89168262000607565b8355505b6001600288020188555050505b505050505050565b805b82525050565b620007068162000332565b60a0810162000727828862000704565b62000736602083018762000704565b62000745604083018662000704565b62000754606083018562000704565b6200076360808301846200070c565b9695505050505050565b60005b838110156200078a57818101518382015260200162000770565b50506000910152565b60006200079e825190565b808452602084019350620007b78185602086016200076d565b620007c2816200029b565b9093019392505050565b60208082528101620007df818462000793565b9392505050565b6000620001f3825190565b6000620007fc825190565b602083016200080b81620007e6565b925060208210156200082e5762000829600019836020036008021b90565b831692505b5050919050565b60805160a05160c05160e051610100516101205161014051611cbb6200089060003960006107690152600061073f01526000610d4d01526000610d2c01526000610a6501526000610a8f01526000610ab90152611cbb6000f3fe6080604052600436106100a65760003560e01c80630dcd7a6c146101055780632da034091461012557806334f940471461014557806339125215146101655780635a953d0a14610185578063736c0d5b146101a557806378e890ba146101eb578063813565b81461020d57806384b0196e1461023a5780639246777614610262578063a0b7967b14610282578063c137878414610297578063e6bd0aa4146102b7576100db565b366100db5734156100d957600080516020611c6683398151915233346040516100d0929190610fce565b60405180910390a15b005b34156100d957600080516020611c6683398151915233346000366040516100d09493929190611041565b34801561011157600080fd5b506100d96101203660046110f3565b6102d7565b34801561013157600080fd5b506100d961014036600461119d565b6103ad565b34801561015157600080fd5b506100d9610160366004611224565b610441565b34801561017157600080fd5b506100d9610180366004611291565b6104db565b34801561019157600080fd5b506100d96101a0366004611359565b6105bb565b3480156101b157600080fd5b506101d56101c03660046113a9565b60026020526000908152604090205460ff1681565b6040516101e291906113d2565b60405180910390f35b3480156101f757600080fd5b50610200610648565b6040516101e291906113e0565b34801561021957600080fd5b5061022d6102283660046113ee565b610657565b6040516101e29190611471565b34801561024657600080fd5b5061024f610731565b6040516101e2979695949392919061153a565b34801561026e57600080fd5b506100d961027d3660046115c9565b6107b9565b34801561028e57600080fd5b50610200610816565b3480156102a357600080fd5b506100d96102b23660046115c9565b61087c565b3480156102c357600080fd5b506100d96102d2366004611359565b6108d9565b3360009081526002602052604090205460ff1661030f5760405162461bcd60e51b815260040161030690611633565b60405180910390fd5b60006103886040518060a0016040528060718152602001611bf56071913960405160200161033d9190611665565b60405160208183030381529060405280519060200120898989898960405160200161036d96959493929190611678565b60405160208183030381529060405280519060200120610938565b90506103978184848888610657565b506103a386898961096b565b5050505050505050565b3360009081526002602052604090205460ff166103dc5760405162461bcd60e51b815260040161030690611633565b604051633ef1336760e01b815282906001600160a01b03821690633ef133679061040a908590600401611471565b600060405180830381600087803b15801561042457600080fd5b505af1158015610438573d6000803e3d6000fd5b50505050505050565b3360009081526002602052604090205460ff166104705760405162461bcd60e51b815260040161030690611633565b6040516331a8b74960e21b815284906001600160a01b0382169063c6a2dd24906104a290879087908790600401611714565b600060405180830381600087803b1580156104bc57600080fd5b505af11580156104d0573d6000803e3d6000fd5b505050505050505050565b3360009081526002602052604090205460ff1661050a5760405162461bcd60e51b815260040161030690611633565b60006040518060800160405280605e8152602001611b97605e91396040516020016105359190611665565b604051602081830303815290604052805190602001208989898960405161055d929190611742565b604051908190038120610579949392918a908a9060200161174f565b604051602081830303815290604052805190602001209050600061059c82610938565b905060006105ad8286868a8a610657565b505050505050505050505050565b3360009081526002602052604090205460ff166105ea5760405162461bcd60e51b815260040161030690611633565b60405163159e44d760e01b815283906001600160a01b0382169063159e44d79061061a9086908690600401611784565b600060405180830381600087803b15801561063457600080fd5b505af11580156103a3573d6000803e3d6000fd5b6000610652610a58565b905090565b60008061069a8787878080601f016020809104026020016040519081016040528093929190818152602001838380828437600092019190915250610ae392505050565b9050428410156106bc5760405162461bcd60e51b8152600401610306906117c9565b6106c583610b07565b6001600160a01b03811660009081526002602052604090205460ff166106fd5760405162461bcd60e51b8152600401610306906117fe565b336001600160a01b038216036107255760405162461bcd60e51b81526004016103069061183c565b90505b95945050505050565b6000606080828080836107647f000000000000000000000000000000000000000000000000000000000000000083610c5c565b61078f7f00000000000000000000000000000000000000000000000000000000000000006001610c5c565b60408051600080825260208201909252600f60f81b9b939a50919850469750309650945092509050565b3360009081526002602052604090205460ff166107e85760405162461bcd60e51b815260040161030690611633565b60405163456600df60e11b815282906001600160a01b03821690638acc01be9061040a9085906004016113d2565b600080805b600a81101561086a5781600382600a81106108385761083861184c565b0154111561085857600381600a81106108535761085361184c565b015491505b8061086281611878565b91505061081b565b50610876816001611892565b91505090565b3360009081526002602052604090205460ff166108ab5760405162461bcd60e51b815260040161030690611633565b60405163c59f9f1960e01b815282906001600160a01b0382169063c59f9f199061040a9085906004016113d2565b3360009081526002602052604090205460ff166109085760405162461bcd60e51b815260040161030690611633565b60405163225cb05f60e21b815283906001600160a01b03821690638972c17c9061061a9086908690600401611784565b6000610965610945610a58565b8360405161190160f01b8152600281019290925260228201526042902090565b92915050565b600080846001600160a01b031663a9059cbb8585604051602401610990929190611784565b6040516020818303038152906040529060e01b6020820180516001600160e01b0383818316178352505050506040516109c99190611665565b6000604051808303816000865af19150503d8060008114610a06576040519150601f19603f3d011682016040523d82523d6000602084013e610a0b565b606091505b5091509150818015610a35575080511580610a35575080806020019051810190610a3591906118b0565b610a515760405162461bcd60e51b81526004016103069061191e565b5050505050565b6000306001600160a01b037f000000000000000000000000000000000000000000000000000000000000000016148015610ab157507f000000000000000000000000000000000000000000000000000000000000000046145b15610adb57507f000000000000000000000000000000000000000000000000000000000000000090565b610652610d07565b6000806000610af28585610d9d565b91509150610aff81610de2565b509392505050565b60408051610140810191829052600091829190600390600a9082845b815481526020019060010190808311610b23575050505050905060005b600a811015610bc857838282600a8110610b5c57610b5c61184c565b602002015103610b7e5760405162461bcd60e51b81526004016103069061195d565b8183600a8110610b9057610b9061184c565b60200201518282600a8110610ba757610ba761184c565b60200201511015610bb6578092505b80610bc081611878565b915050610b40565b508082600a8110610bdb57610bdb61184c565b60200201518311610bfe5760405162461bcd60e51b81526004016103069061199c565b6127108183600a8110610c1357610c1361184c565b6020020151610c229190611892565b831115610c415760405162461bcd60e51b8152600401610306906119dc565b82600383600a8110610c5557610c5561184c565b0155505050565b606060ff8314610c7657610c6f83610e94565b9050610965565b818054610c8290611a02565b80601f0160208091040260200160405190810160405280929190818152602001828054610cae90611a02565b8015610cfb5780601f10610cd057610100808354040283529160200191610cfb565b820191906000526020600020905b815481529060010190602001808311610cde57829003601f168201915b50505050509050610965565b60007f8b73c3c69bb8fe3d512ecc4cf759cc79239f7b179b0ffacaa9a75d522b39400f7f00000000000000000000000000000000000000000000000000000000000000007f00000000000000000000000000000000000000000000000000000000000000004630604051602001610d82959493929190611a2e565b60405160208183030381529060405280519060200120905090565b6000808251604103610dd35760208301516040840151606085015160001a610dc787828585610ed3565b94509450505050610ddb565b506000905060025b9250929050565b6000816004811115610df657610df6611a70565b03610dfe5750565b6001816004811115610e1257610e12611a70565b03610e2f5760405162461bcd60e51b815260040161030690611ab5565b6002816004811115610e4357610e43611a70565b03610e605760405162461bcd60e51b815260040161030690611af9565b6003816004811115610e7457610e74611a70565b03610e915760405162461bcd60e51b815260040161030690611b48565b50565b60606000610ea183610f80565b604080516020808252818301909252919250600091906020820181803683375050509182525060208101929092525090565b6000806fa2a8918ca85bafe22016d0b997e4df60600160ff1b03831115610f005750600090506003610f77565b600060018787878760405160008152602001604052604051610f259493929190611b61565b6020604051602081039080840390855afa158015610f47573d6000803e3d6000fd5b5050604051601f1901519150506001600160a01b038116610f7057600060019250925050610f77565b9150600090505b94509492505050565b600060ff8216601f81111561096557604051632cd44ac360e21b815260040160405180910390fd5b60006001600160a01b038216610965565b610fc281610fa8565b82525050565b80610fc2565b60608101610fdc8285610fb9565b610fe96020830184610fc8565b818103604083015260008152602081015b949350505050565b82818337506000910152565b601f01601f191690565b818352600060208401935061102e838584611002565b6110378361100e565b9093019392505050565b6060810161104f8287610fb9565b61105c6020830186610fc8565b818103604083015261106f818486611018565b9695505050505050565b61108281610fa8565b8114610e9157600080fd5b803561096581611079565b80611082565b803561096581611098565b60008083601f8401126110be576110be600080fd5b5081356001600160401b038111156110d8576110d8600080fd5b602083019150836001820283011115610ddb57610ddb600080fd5b600080600080600080600060c0888a03121561111157611111600080fd5b600061111d8a8a61108d565b975050602061112e8a828b0161109e565b965050604061113f8a828b0161108d565b95505060606111508a828b0161109e565b94505060806111618a828b0161109e565b93505060a08801356001600160401b0381111561118057611180600080fd5b61118c8a828b016110a9565b925092505092959891949750929550565b600080604083850312156111b3576111b3600080fd5b60006111bf858561108d565b92505060206111d08582860161108d565b9150509250929050565b60008083601f8401126111ef576111ef600080fd5b5081356001600160401b0381111561120957611209600080fd5b602083019150836020820283011115610ddb57610ddb600080fd5b6000806000806060858703121561123d5761123d600080fd5b6000611249878761108d565b945050602061125a8782880161108d565b93505060408501356001600160401b0381111561127957611279600080fd5b611285878288016111da565b95989497509550505050565b60008060008060008060008060c0898b0312156112b0576112b0600080fd5b60006112bc8b8b61108d565b98505060206112cd8b828c0161109e565b97505060408901356001600160401b038111156112ec576112ec600080fd5b6112f88b828c016110a9565b9650965050606061130b8b828c0161109e565b945050608061131c8b828c0161109e565b93505060a08901356001600160401b0381111561133b5761133b600080fd5b6113478b828c016110a9565b92509250509295985092959890939650565b60008060006060848603121561137157611371600080fd5b600061137d868661108d565b935050602061138e8682870161108d565b925050604061139f8682870161109e565b9150509250925092565b6000602082840312156113be576113be600080fd5b6000610ffa848461108d565b801515610fc2565b6020810161096582846113ca565b602081016109658284610fc8565b60008060008060006080868803121561140957611409600080fd5b6000611415888861109e565b95505060208601356001600160401b0381111561143457611434600080fd5b611440888289016110a9565b945094505060406114538882890161109e565b92505060606114648882890161109e565b9150509295509295909350565b602081016109658284610fb9565b6001600160f81b03198116610fc2565b60005b838110156114aa578181015183820152602001611492565b50506000910152565b60006114bd825190565b8084526020840193506114d481856020860161148f565b6110378161100e565b60006114e98383610fc8565b505060200190565b60006114fb825190565b80845260209384019383018060005b8381101561152f57815161151e88826114dd565b97506020830192505060010161150a565b509495945050505050565b60e08101611548828a61147f565b818103602083015261155a81896114b3565b9050818103604083015261156e81886114b3565b905061157d6060830187610fc8565b61158a6080830186610fb9565b61159760a0830185610fc8565b81810360c08301526115a981846114f1565b9998505050505050505050565b801515611082565b8035610965816115b6565b600080604083850312156115df576115df600080fd5b60006115eb858561108d565b92505060206111d0858286016115be565b601f81526000602082017f4e6f6e2d7369676e657220696e206f6e6c795369676e6572206d6574686f6400815291505b5060200190565b60208082528101610965816115fc565b600061164d825190565b61165b81856020860161148f565b9290920192915050565b60006116718284611643565b9392505050565b60c081016116868289610fc8565b6116936020830188610fb9565b6116a06040830187610fc8565b6116ad6060830186610fb9565b6116ba6080830185610fc8565b6116c760a0830184610fc8565b979650505050505050565b82818337505050565b81835260006020840193506001600160fb1b038311156116fd576116fd600080fd5b60208302925061170e8385846116d2565b50500190565b604081016117228286610fb9565b81810360208301526107288184866116db565b600061170e838584611002565b6000610ffa828486611735565b60c0810161175d8289610fc8565b61176a6020830188610fb9565b6117776040830187610fc8565b6116ad6060830186610fc8565b604081016117928285610fb9565b6116716020830184610fc8565b6013815260006020820172151c985b9cd858dd1a5bdb88195e1c1a5c9959606a1b8152915061162c565b602080825281016109658161179f565b600e81526000602082016d24b73b30b634b21039b4b3b732b960911b8152915061162c565b60208082528101610965816117d9565b601781526000602082017614da59db995c9cc818d85b9b9bdd08189948195c5d585b604a1b8152915061162c565b602080825281016109658161180e565b634e487b7160e01b600052603260045260246000fd5b634e487b7160e01b600052601160045260246000fd5b6000600019820361188b5761188b611862565b5060010190565b8082018082111561096557610965611862565b8051610965816115b6565b6000602082840312156118c5576118c5600080fd5b6000610ffa84846118a5565b602d81526000602082017f5472616e7366657248656c7065723a3a736166655472616e736665723a20747281526c185b9cd9995c8819985a5b1959609a1b602082015291505b5060400190565b60208082528101610965816118d1565b601881526000602082017714d95c5d595b98d948125108185b1c9958591e481d5cd95960421b8152915061162c565b602080825281016109658161192e565b601881526000602082017753657175656e63652049442062656c6f772077696e646f7760401b8152915061162c565b602080825281016109658161196d565b601981526000602082017853657175656e63652049442061626f7665206d6178696d756d60381b8152915061162c565b60208082528101610965816119ac565b634e487b7160e01b600052602260045260246000fd5b600281046001821680611a1657607f821691505b602082108103611a2857611a286119ec565b50919050565b60a08101611a3c8288610fc8565b611a496020830187610fc8565b611a566040830186610fc8565b611a636060830185610fc8565b61106f6080830184610fb9565b634e487b7160e01b600052602160045260246000fd5b601881526000602082017745434453413a20696e76616c6964207369676e617475726560401b8152915061162c565b6020808252810161096581611a86565b601f81526000602082017f45434453413a20696e76616c6964207369676e6174757265206c656e677468008152915061162c565b6020808252810161096581611ac5565b602281526000602082017f45434453413a20696e76616c6964207369676e6174757265202773272076616c815261756560f01b60208201529150611917565b6020808252810161096581611b09565b60ff8116610fc2565b60808101611b6f8287610fc8565b611b7c6020830186611b58565b611b896040830185610fc8565b6107286060830184610fc856fe53656e644d756c7469536967286164647265737320746f416464726573732c75696e743235362076616c75652c627974657320646174612c75696e743235362065787069726554696d652c75696e743235362073657175656e6365496429546f6b656e5472616e73666572286164647265737320746f416464726573732c75696e743235362076616c75652c6164647265737320746f6b656e436f6e7472616374416464726573732c75696e743235362065787069726554696d652c75696e743235362073657175656e63654964296e89d517057028190560dd200cf6bf792842861353d1173761dfa362e1c133f0a2646970667358221220809b16dacb7830b0a649b0bd9c12c16080b56b548555953762996eda4cf60d5864736f6c63430008140033",
  "devdoc": {
    "events": {
      "EIP712DomainChanged()": {
        "details": "MAY be emitted to signal that the domain could have changed."
      }
    },
    "kind": "dev",
    "methods": {
      "batchFlushERC1155ForwarderTokens(address,address,uint256[])": {
        "params": {
          "forwarderAddress": "the address of the forwarder address to flush the tokens from",
          "tokenContractAddress": "the address of the erc1155 token contract"
        }
      },
      "eip712Domain()": {
        "details": "See {EIP-5267}. _Available since v4.9._"
      },
      "flushERC1155ForwarderTokens(address,address,uint256)": {
        "params": {
          "forwarderAddress": "the address of the forwarder address to flush the tokens from",
          "tokenContractAddress": "the address of the erc1155 token contract",
          "tokenId": "the token id associated with the ERC1155"
        }
      },
      "flushERC721ForwarderTokens(address,address,uint256)": {
        "params": {
          "forwarderAddress": "the address of the forwarder address to flush the tokens from",
          "tokenContractAddress": "the address of the erc20 token contract"
        }
      },
      "flushForwarderTokens(address,address)": {
        "params": {
          "forwarderAddress": "the address of the forwarder address to flush the tokens from",
          "tokenContractAddress": "the address of the erc20 token contract"
        }
      },
      "sendMultiSigToken(address,uint256,address,uint256,uint256,bytes)": {
        "params": {
          "expireTime": "the number of seconds since 1970 for which this transaction is valid",
          "sequenceId": "the unique sequence id obtainable from getNextSequenceId",
          "signature": "see Data Formats",
          "toAddress": "the destination address to send an outgoing transaction",
          "tokenContractAddress": "the address of the erc20 token contract",
          "value": "the amount in tokens to be sent"
        }
      },
      "setAutoFlush1155(address,bool)": {
        "params": {
          "autoFlush": "whether to autoflush erc1155 tokens",
          "forwarderAddress": "the address of the forwarder to toggle."
        }
      },
      "setAutoFlush721(address,bool)": {
        "params": {
          "autoFlush": "whether to autoflush erc721 tokens",
          "forwarderAddress": "the address of the forwarder to toggle."
        }
      }
    },
    "version": 1
  },
  "userdoc": {
    "kind": "user",
    "methods": {
      "batchFlushERC1155ForwarderTokens(address,address,uint256[])": {
        "notice": "Execute a ERC1155 batch token flush from one of the forwarder addresses. This transfer needs only a single signature and can be done by any signer."
      },
      "flushERC1155ForwarderTokens(address,address,uint256)": {
        "notice": "Execute a ERC1155 token flush from one of the forwarder addresses. This transfer needs only a single signature and can be done by any signer."
      },
      "flushERC721ForwarderTokens(address,address,uint256)": {
        "notice": "Execute a ERC721 token flush from one of the forwarder addresses. This transfer needs only a single signature and can be done by any signer"
      },
      "flushForwarderTokens(address,address)": {
        "notice": "Execute a token flush from one of the forwarder addresses. This transfer needs only a single signature and can be done by any signer"
      },
      "getNextSequenceId()": {
        "notice": "Gets the next available sequence ID for signing when using executeAndConfirm returns the sequenceId one higher than the highest currently stored"
      },
      "sendMultiSigToken(address,uint256,address,uint256,uint256,bytes)": {
        "notice": "Execute a multi-signature token transfer from this wallet using 2 signers: one from msg.sender and the other from ecrecover. Sequence IDs are numbers starting from 1. They are used to prevent replay attacks and may not be repeated."
      },
      "setAutoFlush1155(address,bool)": {
        "notice": "Sets the autoflush 721 parameter on the forwarder."
      },
      "setAutoFlush721(address,bool)": {
        "notice": "Sets the autoflush 721 parameter on the forwarder."
      }
    },
    "version": 1
  },
  "storageLayout": {
    "storage": [
      {
        "astId": 1308,
        "contract": "contracts/msig/WalletSimple.sol:WalletSimple",
        "label": "_nameFallback",
        "offset": 0,
        "slot": "0",
        "type": "t_string_storage"
      },
      {
        "astId": 1310,
        "contract": "contracts/msig/WalletSimple.sol:WalletSimple",
        "label": "_versionFallback",
        "offset": 0,
        "slot": "1",
        "type": "t_string_storage"
      },
      {
        "astId": 2482,
        "contract": "contracts/msig/WalletSimple.sol:WalletSimple",
        "label": "signers",
        "offset": 0,
        "slot": "2",
        "type": "t_mapping(t_address,t_bool)"
      },
      {
        "astId": 2492,
        "contract": "contracts/msig/WalletSimple.sol:WalletSimple",
        "label": "recentSequenceIds",
        "offset": 0,
        "slot": "3",
        "type": "t_array(t_uint256)10_storage"
      }
    ],
    "types": {
      "t_address": {
        "encoding": "inplace",
        "label": "address",
        "numberOfBytes": "20"
      },
      "t_array(t_uint256)10_storage": {
        "base": "t_uint256",
        "encoding": "inplace",
        "label": "uint256[10]",
        "numberOfBytes": "320"
      },
      "t_bool": {
        "encoding": "inplace",
        "label": "bool",
        "numberOfBytes": "1"
      },
      "t_mapping(t_address,t_bool)": {
        "encoding": "mapping",
        "key": "t_address",
        "label": "mapping(address => bool)",
        "numberOfBytes": "32",
        "value": "t_bool"
      },
      "t_string_storage": {
        "encoding": "bytes",
        "label": "string",
        "numberOfBytes": "32"
      },
      "t_uint256": {
        "encoding": "inplace",
        "label": "uint256",
        "numberOfBytes": "32"
      }
    }
  }
}