{
  "address": "0xE19420E4Faeb42c0da508B462e36D490099917ad",
  "abi": [
    {
      "inputs": [
        {
          "internalType": "address",
          "name": "_owner",
          "type": "address"
        }
      ],
      "stateMutability": "nonpayable",
      "type": "constructor"
    },
    {
      "inputs": [],
      "name": "CallFailed",
      "type": "error"
    },
    {
      "inputs": [],
      "name": "InsufficientFunds",
      "type": "error"
    },
    {
      "inputs": [],
      "name": "InvalidAddress",
      "type": "error"
    },
    {
      "inputs": [],
      "name": "TimelockActive",
      "type": "error"
    },
    {
      "inputs": [],
      "name": "Unauthorized",
      "type": "error"
    },
    {
      "anonymous": false,
      "inputs": [
        {
          "indexed": true,
          "internalType": "address",
          "name": "owner",
          "type": "address"
        },
        {
          "indexed": true,
          "internalType": "address",
          "name": "spender",
          "type": "address"
        },
        {
          "indexed": false,
          "internalType": "uint256",
          "name": "amount",
          "type": "uint256"
        }
      ],
      "name": "Approval",
      "type": "event"
    },
    {
      "anonymous": false,
      "inputs": [
        {
          "indexed": true,
          "internalType": "address",
          "name": "from",
          "type": "address"
        },
        {
          "indexed": false,
          "internalType": "uint256",
          "name": "amount",
          "type": "uint256"
        }
      ],
      "name": "Deposit",
      "type": "event"
    },
    {
      "anonymous": false,
      "inputs": [
        {
          "indexed": true,
          "internalType": "address",
          "name": "currentOwner",
          "type": "address"
        },
        {
          "indexed": true,
          "internalType": "address",
          "name": "pendingOwner",
          "type": "address"
        }
      ],
      "name": "OwnershipPending",
      "type": "event"
    },
    {
      "anonymous": false,
      "inputs": [
        {
          "indexed": true,
          "internalType": "address",
          "name": "oldOwner",
          "type": "address"
        },
        {
          "indexed": true,
          "internalType": "address",
          "name": "newOwner",
          "type": "address"
        }
      ],
      "name": "OwnershipTransferred",
      "type": "event"
    },
    {
      "anonymous": false,
      "inputs": [
        {
          "indexed": true,
          "internalType": "address",
          "name": "from",
          "type": "address"
        },
        {
          "indexed": true,
          "internalType": "address",
          "name": "to",
          "type": "address"
        },
        {
          "indexed": false,
          "internalType": "uint256",
          "name": "amount",
          "type": "uint256"
        }
      ],
      "name": "Transfer",
      "type": "event"
    },
    {
      "anonymous": false,
      "inputs": [
        {
          "indexed": true,
          "internalType": "address",
          "name": "to",
          "type": "address"
        },
        {
          "indexed": false,
          "internalType": "uint256",
          "name": "amount",
          "type": "uint256"
        }
      ],
      "name": "Withdrawal",
      "type": "event"
    },
    {
      "inputs": [],
      "name": "acceptOwnership",
      "outputs": [],
      "stateMutability": "nonpayable",
      "type": "function"
    },
    {
      "inputs": [
        {
          "internalType": "address",
          "name": "_owner",
          "type": "address"
        },
        {
          "internalType": "address",
          "name": "_spender",
          "type": "address"
        }
      ],
      "name": "allowance",
      "outputs": [
        {
          "internalType": "uint256",
          "name": "",
          "type": "uint256"
        }
      ],
      "stateMutability": "view",
      "type": "function"
    },
    {
      "inputs": [
        {
          "internalType": "address",
          "name": "_spender",
          "type": "address"
        },
        {
          "internalType": "uint256",
          "name": "_amount",
          "type": "uint256"
        }
      ],
      "name": "approve",
      "outputs": [
        {
          "internalType": "bool",
          "name": "",
          "type": "bool"
        }
      ],
      "stateMutability": "nonpayable",
      "type": "function"
    },
    {
      "inputs": [
        {
          "internalType": "address",
          "name": "_a",
          "type": "address"
        }
      ],
      "name": "balanceOf",
      "outputs": [
        {
          "internalType": "uint256",
          "name": "",
          "type": "uint256"
        }
      ],
      "stateMutability": "view",
      "type": "function"
    },
    {
      "inputs": [],
      "name": "decimals",
      "outputs": [
        {
          "internalType": "uint8",
          "name": "",
          "type": "uint8"
        }
      ],
      "stateMutability": "view",
      "type": "function"
    },
    {
      "inputs": [],
      "name": "deposit",
      "outputs": [],
      "stateMutability": "payable",
      "type": "function"
    },
    {
      "inputs": [],
      "name": "name",
      "outputs": [
        {
          "internalType": "string",
          "name": "",
          "type": "string"
        }
      ],
      "stateMutability": "view",
      "type": "function"
    },
    {
      "inputs": [],
      "name": "owner",
      "outputs": [
        {
          "internalType": "address",
          "name": "",
          "type": "address"
        }
      ],
      "stateMutability": "view",
      "type": "function"
    },
    {
      "inputs": [
        {
          "internalType": "address",
          "name": "_depositor",
          "type": "address"
        },
        {
          "internalType": "uint256",
          "name": "_amount",
          "type": "uint256"
        }
      ],
      "name": "recoverDeposit",
      "outputs": [],
      "stateMutability": "nonpayable",
      "type": "function"
    },
    {
      "inputs": [],
      "name": "recoveryTimelock",
      "outputs": [
        {
          "internalType": "uint256",
          "name": "",
          "type": "uint256"
        }
      ],
      "stateMutability": "view",
      "type": "function"
    },
    {
      "inputs": [],
      "name": "revokeOwnership",
      "outputs": [],
      "stateMutability": "nonpayable",
      "type": "function"
    },
    {
      "inputs": [],
      "name": "symbol",
      "outputs": [
        {
          "internalType": "string",
          "name": "",
          "type": "string"
        }
      ],
      "stateMutability": "view",
      "type": "function"
    },
    {
      "inputs": [],
      "name": "totalSupply",
      "outputs": [
        {
          "internalType": "uint256",
          "name": "",
          "type": "uint256"
        }
      ],
      "stateMutability": "view",
      "type": "function"
    },
    {
      "inputs": [
        {
          "internalType": "address",
          "name": "_to",
          "type": "address"
        },
        {
          "internalType": "uint256",
          "name": "_amount",
          "type": "uint256"
        }
      ],
      "name": "transfer",
      "outputs": [
        {
          "internalType": "bool",
          "name": "",
          "type": "bool"
        }
      ],
      "stateMutability": "nonpayable",
      "type": "function"
    },
    {
      "inputs": [
        {
          "internalType": "address",
          "name": "_owner",
          "type": "address"
        },
        {
          "internalType": "address",
          "name": "_to",
          "type": "address"
        },
        {
          "internalType": "uint256",
          "name": "_amount",
          "type": "uint256"
        }
      ],
      "name": "transferFrom",
      "outputs": [
        {
          "internalType": "bool",
          "name": "",
          "type": "bool"
        }
      ],
      "stateMutability": "nonpayable",
      "type": "function"
    },
    {
      "inputs": [
        {
          "internalType": "address",
          "name": "_newOwner",
          "type": "address"
        }
      ],
      "name": "transferOwnership",
      "outputs": [],
      "stateMutability": "nonpayable",
      "type": "function"
    },
    {
      "inputs": [
        {
          "internalType": "uint256",
          "name": "_amount",
          "type": "uint256"
        }
      ],
      "name": "withdraw",
      "outputs": [],
      "stateMutability": "nonpayable",
      "type": "function"
    },
    {
      "stateMutability": "payable",
      "type": "receive"
    }
  ],
  "numDeployments": 1,
  "solcInputHash": "9c1269bebd8ce4e1d6e762b205cac16a",
  "bytecode": "0x60a0604052620000134262dd7c006200025d565b6080523480156200002357600080fd5b506040516200143f3803806200143f8339810160408190526200004691620002b2565b806040518060400160405280600b81526020016a15dc985c1c19590811925360aa1b8152506040518060400160405280600481526020016315d1925360e21b815250601282600090816200009b91906200041b565b506001620000aa83826200041b565b506002805460ff191660ff9290921691909117905550506001600160a01b038116620000e95760405163e6c4247b60e01b815260040160405180910390fd5b620000fd6001600160a01b0382166200014f565b600680546001600160a01b0319166001600160a01b039290921691821790556040516000907f8be0079c531659141344cd1fd0a4f28419497f9722a3daafe3b4186f6b6457e0908290a35050620004ea565b600080806200015e846200019b565b91509150816200017057509192915050565b6000806200017e83620001ce565b915091508162000192575093949350505050565b95945050505050565b600080600160401b600160a01b03831660ff60981b8103620001c857600192506001600160401b03841691505b50915091565b600080826000526016600a6020600073fe000000000000000000000000000000000000025afa9150600051806001600160a01b031691508060a01c61ffff1661040a8114620002205760009350600092505b50508115806200023157503d601614155b156200024257506000928392509050565b915091565b634e487b7160e01b600052601160045260246000fd5b8082018082111562000273576200027362000247565b92915050565b60006001600160a01b03821662000273565b620002968162000279565b8114620002a257600080fd5b50565b805162000273816200028b565b600060208284031215620002c957620002c9600080fd5b6000620002d78484620002a5565b949350505050565b634e487b7160e01b600052604160045260246000fd5b634e487b7160e01b600052602260045260246000fd5b6002810460018216806200032057607f821691505b602082108103620003355762000335620002f5565b50919050565b600062000273620003498381565b90565b62000357836200033b565b815460001960089490940293841b1916921b91909117905550565b6000620003818184846200034c565b505050565b81811015620003a5576200039c60008262000372565b60010162000386565b5050565b601f82111562000381576000818152602090206020601f85010481016020851015620003d25750805b620003e66020601f86010483018262000386565b5050505050565b6000196008929092029190911c191690565b60006200040d8383620003ed565b600290930290921792915050565b81516001600160401b03811115620004375762000437620002df565b6200044382546200030b565b62000450828285620003a9565b6020601f8311600181146200048357600084156200046e5750858201515b6200047a8582620003ff565b865550620004e2565b600085815260208120601f198616915b82811015620004b5578885015182556020948501946001909201910162000493565b86831015620004d55784890151620004d1601f891682620003ed565b8355505b6001600288020188555050505b505050505050565b608051610f326200050d6000396000818161020f01526106850152610f326000f3fe6080604052600436106100d25760003560e01c806306fdde03146100e6578063095ea7b31461011157806318160ddd1461013e57806323b872dd146101615780632b968958146101815780632e1a7d4d14610196578063313ce567146101b6578063436f3b60146101dd578063670a43c4146101fd57806370a082311461023157806379ba5097146102515780638da5cb5b1461026657806395d89b4114610293578063a9059cbb146102a8578063d0e30db0146102c8578063dd62ed3e146102d0578063f2fde38b146102f057600080fd5b366100e1576100df610310565b005b600080fd5b3480156100f257600080fd5b506100fb61034b565b6040516101089190610c59565b60405180910390f35b34801561011d57600080fd5b5061013161012c366004610cb2565b6103d9565b6040516101089190610cf9565b34801561014a57600080fd5b5061015460035481565b6040516101089190610d0d565b34801561016d57600080fd5b5061013161017c366004610d1b565b61045a565b34801561018d57600080fd5b506100df610581565b3480156101a257600080fd5b506100df6101b1366004610d6b565b610601565b3480156101c257600080fd5b506002546101d09060ff1681565b6040516101089190610d9d565b3480156101e957600080fd5b506100df6101f8366004610cb2565b610659565b34801561020957600080fd5b506101547f000000000000000000000000000000000000000000000000000000000000000081565b34801561023d57600080fd5b5061015461024c366004610dab565b610735565b34801561025d57600080fd5b506100df61076d565b34801561027257600080fd5b50600654610286906001600160a01b031681565b6040516101089190610dd5565b34801561029f57600080fd5b506100fb6107e0565b3480156102b457600080fd5b506101316102c3366004610cb2565b6107ed565b6100df610310565b3480156102dc57600080fd5b506101546102eb366004610de3565b610882565b3480156102fc57600080fd5b506100df61030b366004610dab565b6108ef565b61031a3334610965565b336001600160a01b0316600080516020610e9d833981519152346040516103419190610d0d565b60405180910390a2565b6000805461035890610e2c565b80601f016020809104026020016040519081016040528092919081815260200182805461038490610e2c565b80156103d15780601f106103a6576101008083540402835291602001916103d1565b820191906000526020600020905b8154815290600101906020018083116103b457829003601f168201915b505050505081565b60006103ed836001600160a01b03166109f5565b3360008181526005602090815260408083206001600160a01b0386168085529252918290208690559051929550917f8c5be1e5ebec7d5bd14f71427d1e84f3dd0314c0f7b2291e5b200ac8c7c3b92590610448908690610d0d565b60405180910390a35060015b92915050565b600061046e846001600160a01b03166109f5565b9350610482836001600160a01b03166109f5565b6001600160a01b038516600090815260056020908152604080832033845290915290205490935060001981146104e1576104bc8382610e6e565b6001600160a01b03861660009081526005602090815260408083203384529091529020555b6001600160a01b03851660009081526004602052604081208054859290610509908490610e6e565b90915550506001600160a01b03841660009081526004602052604081208054859290610536908490610e81565b92505081905550836001600160a01b0316856001600160a01b0316600080516020610edd8339815191528560405161056e9190610d0d565b60405180910390a3506001949350505050565b6006546001600160a01b031633146105ab576040516282b42960e81b815260040160405180910390fd5b6007546001600160a01b0316156105d4576040516282b42960e81b815260040160405180910390fd5b600680546001600160a01b03191690556040516000903390600080516020610ebd833981519152908390a3565b61060b3382610a3c565b336001600160a01b03167f7fcf532c15f0a6db0bd6d0e038bea71d30d808c7d98cb3bf7268a95bf5081b65826040516106449190610d0d565b60405180910390a26106563382610ac5565b50565b6006546001600160a01b03163314610683576040516282b42960e81b815260040160405180910390fd5b7f00000000000000000000000000000000000000000000000000000000000000004210156106c457604051637d857b6760e01b815260040160405180910390fd5b6000600354476106d49190610e6e565b9050808211156106e357600080fd5b6106f5836001600160a01b03166109f5565b92506107018383610965565b826001600160a01b0316600080516020610e9d833981519152836040516107289190610d0d565b60405180910390a2505050565b60006004600061074d846001600160a01b03166109f5565b6001600160a01b0316815260208101919091526040016000205492915050565b6007546001600160a01b03163314610797576040516282b42960e81b815260040160405180910390fd5b600680546001600160a01b0319808216339081179093556007805490911690556040516001600160a01b0390911691908290600080516020610ebd83398151915290600090a350565b6001805461035890610e2c565b6000610801836001600160a01b03166109f5565b33600090815260046020526040812080549295508492909190610825908490610e6e565b90915550506001600160a01b03831660009081526004602052604081208054849290610852908490610e81565b90915550506040516001600160a01b038416903390600080516020610edd83398151915290610448908690610d0d565b60006005600061089a856001600160a01b03166109f5565b6001600160a01b03166001600160a01b0316815260200190815260200160002060006108ce846001600160a01b03166109f5565b6001600160a01b031681526020810191909152604001600020549392505050565b6006546001600160a01b03163314610919576040516282b42960e81b815260040160405180910390fd5b600780546001600160a01b0319166001600160a01b03831690811790915560405133907f3c672e6c16e239c29e969deaf4eae15d7002350bf5490175e7481155af04c83a90600090a350565b610977826001600160a01b03166109f5565b9150806003600082825461098b9190610e81565b90915550506001600160a01b038216600090815260046020526040812080548392906109b8908490610e81565b90915550506040516001600160a01b03831690600090600080516020610edd833981519152906109e9908590610d0d565b60405180910390a35050565b6000806000610a0384610b68565b9150915081610a1457509192915050565b600080610a2083610b9a565b9150915081610a33575093949350505050565b95945050505050565b610a4e826001600160a01b03166109f5565b6001600160a01b038116600090815260046020526040812080549294508392909190610a7b908490610e6e565b925050819055508060036000828254610a949190610e6e565b90915550506040516000906001600160a01b03841690600080516020610edd833981519152906109e9908590610d0d565b80471015610ae65760405163356680b760e01b815260040160405180910390fd5b6000826001600160a01b031682604051610aff90610e94565b60006040518083038185875af1925050503d8060008114610b3c576040519150601f19603f3d011682016040523d82523d6000602084013e610b41565b606091505b5050905080610b6357604051633204506f60e01b815260040160405180910390fd5b505050565b600080600160401b600160a01b03831660ff60981b8103610b9457600192506001600160401b03841691505b50915091565b600080826000526016600a602060006002607f60991b015afa9150600051806001600160a01b031691508060a01c61ffff1661040a8114610bde5760009350600092505b5050811580610bee57503d601614155b15610bfe57506000928392509050565b915091565b60005b83811015610c1e578181015183820152602001610c06565b50506000910152565b6000610c31825190565b808452602084019350610c48818560208601610c03565b601f01601f19169290920192915050565b60208082528101610c6a8184610c27565b9392505050565b60006001600160a01b038216610454565b610c8b81610c71565b811461065657600080fd5b803561045481610c82565b80610c8b565b803561045481610ca1565b60008060408385031215610cc857610cc8600080fd5b6000610cd48585610c96565b9250506020610ce585828601610ca7565b9150509250929050565b8015155b82525050565b602081016104548284610cef565b80610cf3565b602081016104548284610d07565b600080600060608486031215610d3357610d33600080fd5b6000610d3f8686610c96565b9350506020610d5086828701610c96565b9250506040610d6186828701610ca7565b9150509250925092565b600060208284031215610d8057610d80600080fd5b6000610d8c8484610ca7565b949350505050565b60ff8116610cf3565b602081016104548284610d94565b600060208284031215610dc057610dc0600080fd5b6000610d8c8484610c96565b610cf381610c71565b602081016104548284610dcc565b60008060408385031215610df957610df9600080fd5b6000610e058585610c96565b9250506020610ce585828601610c96565b634e487b7160e01b600052602260045260246000fd5b600281046001821680610e4057607f821691505b602082108103610e5257610e52610e16565b50919050565b634e487b7160e01b600052601160045260246000fd5b8181038181111561045457610454610e58565b8082018082111561045457610454610e58565b60008161045456fee1fffcc4923d04b559f4d29a8bfc6cda04eb5b0d3c460751c2402c5c5cc9109c8be0079c531659141344cd1fd0a4f28419497f9722a3daafe3b4186f6b6457e0ddf252ad1be2c89b69c2b068fc378daa952ba7f163c4a11628f55a4df523b3efa2646970667358221220eb045f85f0a7a5dd96d010e9ff9d2586ba025cbc9995bdf89417c99c26da937764736f6c63430008130033",
  "devdoc": {
    "author": "fevmate (https://github.com/wadealexc/fevmate)",
    "kind": "dev",
    "methods": {},
    "version": 1
  },
  "userdoc": {
    "kind": "user",
    "methods": {
      "acceptOwnership()": {
        "notice": "Used by the pending owner to accept the ownership transfer. Note: If this fails unexpectedly, check that the pendingOwner is not an ID address. The pending owner address should match the pending owner's msg.sender address.         "
      },
      "deposit()": {
        "notice": "Deposit Fil into the contract, and mint WFIL 1:1."
      },
      "recoverDeposit(address,uint256)": {
        "notice": "Used by owner to unstick Fil that was directly transferred to the contract without triggering the deposit/receive functions. When called, _amount stuck Fil is converted to WFIL on behalf of the passed-in _depositor. This method ONLY converts Fil that would otherwise be permanently lost. --- About --- In the event someone accidentally sends Fil to this contract via FVM method METHOD_SEND (or via selfdestruct), the Fil will be lost rather than being converted to WFIL. This is because METHOD_SEND  transfers value without invoking the recipient's code. If this occurs, the contract's Fil balance will go up, but no WFIL will be minted. Luckily, this means we can calculate the number of   stuck tokens as the contract's Fil balance minus WFIL totalSupply,  and ensure we're only touching stuck tokens with this method. Please ensure you only ever send funds to this contract using the FVM method InvokeEVM! This method is not a get-out-of-jail free card, and comes with no guarantees. (If you're a lost EVM dev, address.call uses InvokeEVM under the hood. So in a purely contract-contract context, you don't need to do anything special - use address.call, or call the WFIL.deposit method as you would normally.)"
      },
      "revokeOwnership()": {
        "notice": "Allows the current owner to revoke the owner role, locking any onlyOwner functions. Note: this method requires that there is not currently a pending owner. To revoke ownership while there is a pending owner, the current owner must first set a new pending owner to address(0). Alternatively, the pending owner can claim ownership and then revoke it."
      },
      "transferOwnership(address)": {
        "notice": "Works like most 2-step ownership transfer methods. The current owner can call this to set a new pending owner.  Note: the new owner address is NOT normalized - it is stored as-is. This is safe, because the acceptOwnership method enforces that the new owner can make a transaction as msg.sender."
      },
      "withdraw(uint256)": {
        "notice": "Burns _amount WFIL from caller's balance, and transfers them the unwrapped Fil 1:1. Note: The fund transfer used here is address.call{value: _amount}(\"\"), which does NOT work with the FVM's builtin Multisig actor. This is because, under the hood, address.call acts like a message to an actor's InvokeEVM method. The Multisig actor does not implement this method.  This is a known issue, but we've decided to keep the method as-is, because it's likely that the Multisig actor is eventually upgraded to support this method. Even though a Multisig actor cannot directly withdraw, it is still possible for Multisigs to deposit, transfer, etc WFIL. So, if your Multisig actor needs to withdraw, you can transfer your WFIL to another contract, which can perform the withdrawal for you. (Though Multisig actors are not supported, BLS/SECPK/EthAccounts and EVM contracts can use this method normally)"
      }
    },
    "notice": "Wrapped filecoin implementation, using ERC20-FEVM mixin.",
    "version": 1
  },
  "storageLayout": {
    "storage": [
      {
        "astId": 11655,
        "contract": "fevmate/contracts/token/WFIL.sol:WFIL",
        "label": "name",
        "offset": 0,
        "slot": "0",
        "type": "t_string_storage"
      },
      {
        "astId": 11657,
        "contract": "fevmate/contracts/token/WFIL.sol:WFIL",
        "label": "symbol",
        "offset": 0,
        "slot": "1",
        "type": "t_string_storage"
      },
      {
        "astId": 11659,
        "contract": "fevmate/contracts/token/WFIL.sol:WFIL",
        "label": "decimals",
        "offset": 0,
        "slot": "2",
        "type": "t_uint8"
      },
      {
        "astId": 11661,
        "contract": "fevmate/contracts/token/WFIL.sol:WFIL",
        "label": "totalSupply",
        "offset": 0,
        "slot": "3",
        "type": "t_uint256"
      },
      {
        "astId": 11665,
        "contract": "fevmate/contracts/token/WFIL.sol:WFIL",
        "label": "balances",
        "offset": 0,
        "slot": "4",
        "type": "t_mapping(t_address,t_uint256)"
      },
      {
        "astId": 11671,
        "contract": "fevmate/contracts/token/WFIL.sol:WFIL",
        "label": "allowances",
        "offset": 0,
        "slot": "5",
        "type": "t_mapping(t_address,t_mapping(t_address,t_uint256))"
      },
      {
        "astId": 11507,
        "contract": "fevmate/contracts/token/WFIL.sol:WFIL",
        "label": "owner",
        "offset": 0,
        "slot": "6",
        "type": "t_address"
      },
      {
        "astId": 11509,
        "contract": "fevmate/contracts/token/WFIL.sol:WFIL",
        "label": "pendingOwner",
        "offset": 0,
        "slot": "7",
        "type": "t_address"
      }
    ],
    "types": {
      "t_address": {
        "encoding": "inplace",
        "label": "address",
        "numberOfBytes": "20"
      },
      "t_mapping(t_address,t_mapping(t_address,t_uint256))": {
        "encoding": "mapping",
        "key": "t_address",
        "label": "mapping(address => mapping(address => uint256))",
        "numberOfBytes": "32",
        "value": "t_mapping(t_address,t_uint256)"
      },
      "t_mapping(t_address,t_uint256)": {
        "encoding": "mapping",
        "key": "t_address",
        "label": "mapping(address => uint256)",
        "numberOfBytes": "32",
        "value": "t_uint256"
      },
      "t_string_storage": {
        "encoding": "bytes",
        "label": "string",
        "numberOfBytes": "32"
      },
      "t_uint256": {
        "encoding": "inplace",
        "label": "uint256",
        "numberOfBytes": "32"
      },
      "t_uint8": {
        "encoding": "inplace",
        "label": "uint8",
        "numberOfBytes": "1"
      }
    }
  }
}