{
  "address": "0x94285F016200dFd2ea3E8CCDC1C306F74A51A1f4",
  "abi": [
    {
      "inputs": [],
      "stateMutability": "nonpayable",
      "type": "constructor"
    },
    {
      "inputs": [],
      "name": "ActorNotFound",
      "type": "error"
    },
    {
      "inputs": [],
      "name": "BigNumConversion",
      "type": "error"
    },
    {
      "inputs": [],
      "name": "FailToCallActor",
      "type": "error"
    },
    {
      "inputs": [],
      "name": "FailToCallActor",
      "type": "error"
    },
    {
      "inputs": [],
      "name": "FailToChangeOwner",
      "type": "error"
    },
    {
      "inputs": [
        {
          "internalType": "int256",
          "name": "errorCode",
          "type": "int256"
        }
      ],
      "name": "FailToGetOwner",
      "type": "error"
    },
    {
      "inputs": [],
      "name": "InactiveActor",
      "type": "error"
    },
    {
      "inputs": [],
      "name": "IncorrectWithdrawal",
      "type": "error"
    },
    {
      "inputs": [],
      "name": "IncorrectWithdrawal",
      "type": "error"
    },
    {
      "inputs": [
        {
          "internalType": "CommonTypes.FilActorId",
          "name": "actorId",
          "type": "uint64"
        }
      ],
      "name": "InvalidActorID",
      "type": "error"
    },
    {
      "inputs": [],
      "name": "InvalidAddress",
      "type": "error"
    },
    {
      "inputs": [
        {
          "internalType": "uint64",
          "name": "",
          "type": "uint64"
        }
      ],
      "name": "InvalidCodec",
      "type": "error"
    },
    {
      "inputs": [],
      "name": "InvalidProposed",
      "type": "error"
    },
    {
      "inputs": [],
      "name": "InvalidResponseLength",
      "type": "error"
    },
    {
      "inputs": [],
      "name": "NegativeValueNotAllowed",
      "type": "error"
    },
    {
      "inputs": [
        {
          "internalType": "uint256",
          "name": "",
          "type": "uint256"
        }
      ],
      "name": "NotEnoughBalance",
      "type": "error"
    },
    {
      "inputs": [
        {
          "internalType": "uint256",
          "name": "balance",
          "type": "uint256"
        },
        {
          "internalType": "uint256",
          "name": "value",
          "type": "uint256"
        }
      ],
      "name": "NotEnoughBalance",
      "type": "error"
    },
    {
      "inputs": [],
      "name": "NotOwnedMiner",
      "type": "error"
    },
    {
      "inputs": [],
      "name": "OnlyFactory",
      "type": "error"
    },
    {
      "inputs": [],
      "name": "OwedMiner",
      "type": "error"
    },
    {
      "inputs": [],
      "name": "Unauthorized",
      "type": "error"
    },
    {
      "anonymous": false,
      "inputs": [
        {
          "indexed": false,
          "internalType": "address",
          "name": "vault",
          "type": "address"
        },
        {
          "indexed": false,
          "internalType": "uint64",
          "name": "minerId",
          "type": "uint64"
        }
      ],
      "name": "AddMiner",
      "type": "event"
    },
    {
      "anonymous": false,
      "inputs": [
        {
          "indexed": false,
          "internalType": "address",
          "name": "previousAdmin",
          "type": "address"
        },
        {
          "indexed": false,
          "internalType": "address",
          "name": "newAdmin",
          "type": "address"
        }
      ],
      "name": "AdminChanged",
      "type": "event"
    },
    {
      "anonymous": false,
      "inputs": [
        {
          "indexed": true,
          "internalType": "address",
          "name": "beacon",
          "type": "address"
        }
      ],
      "name": "BeaconUpgraded",
      "type": "event"
    },
    {
      "anonymous": false,
      "inputs": [
        {
          "indexed": false,
          "internalType": "address",
          "name": "borrower",
          "type": "address"
        },
        {
          "indexed": false,
          "internalType": "uint256",
          "name": "amount",
          "type": "uint256"
        }
      ],
      "name": "Borrow",
      "type": "event"
    },
    {
      "anonymous": false,
      "inputs": [
        {
          "indexed": false,
          "internalType": "uint8",
          "name": "version",
          "type": "uint8"
        }
      ],
      "name": "Initialized",
      "type": "event"
    },
    {
      "anonymous": false,
      "inputs": [
        {
          "indexed": true,
          "internalType": "address",
          "name": "previousOwner",
          "type": "address"
        },
        {
          "indexed": true,
          "internalType": "address",
          "name": "newOwner",
          "type": "address"
        }
      ],
      "name": "OwnershipTransferred",
      "type": "event"
    },
    {
      "anonymous": false,
      "inputs": [
        {
          "indexed": false,
          "internalType": "address",
          "name": "payer",
          "type": "address"
        },
        {
          "indexed": false,
          "internalType": "uint256",
          "name": "amount",
          "type": "uint256"
        }
      ],
      "name": "Pay",
      "type": "event"
    },
    {
      "anonymous": false,
      "inputs": [
        {
          "indexed": false,
          "internalType": "uint64",
          "name": "minerId",
          "type": "uint64"
        },
        {
          "indexed": false,
          "internalType": "uint256",
          "name": "amount",
          "type": "uint256"
        }
      ],
      "name": "PullFund",
      "type": "event"
    },
    {
      "anonymous": false,
      "inputs": [
        {
          "indexed": false,
          "internalType": "uint64",
          "name": "minerId",
          "type": "uint64"
        },
        {
          "indexed": false,
          "internalType": "uint256",
          "name": "amount",
          "type": "uint256"
        }
      ],
      "name": "PushFund",
      "type": "event"
    },
    {
      "anonymous": false,
      "inputs": [
        {
          "indexed": false,
          "internalType": "address",
          "name": "vault",
          "type": "address"
        },
        {
          "indexed": false,
          "internalType": "uint64",
          "name": "minerId",
          "type": "uint64"
        }
      ],
      "name": "RemoveMiner",
      "type": "event"
    },
    {
      "anonymous": false,
      "inputs": [
        {
          "indexed": false,
          "internalType": "uint256",
          "name": "amountToPool",
          "type": "uint256"
        }
      ],
      "name": "SendPrincipal",
      "type": "event"
    },
    {
      "anonymous": false,
      "inputs": [
        {
          "indexed": false,
          "internalType": "bool",
          "name": "flag",
          "type": "bool"
        }
      ],
      "name": "SetAuthorized",
      "type": "event"
    },
    {
      "anonymous": false,
      "inputs": [
        {
          "indexed": true,
          "internalType": "address",
          "name": "implementation",
          "type": "address"
        }
      ],
      "name": "Upgraded",
      "type": "event"
    },
    {
      "anonymous": false,
      "inputs": [
        {
          "indexed": false,
          "internalType": "address",
          "name": "to",
          "type": "address"
        },
        {
          "indexed": false,
          "internalType": "uint256",
          "name": "amount",
          "type": "uint256"
        }
      ],
      "name": "Withdraw",
      "type": "event"
    },
    {
      "inputs": [],
      "name": "FilmountainPool",
      "outputs": [
        {
          "internalType": "contract IFilmountainPool",
          "name": "",
          "type": "address"
        }
      ],
      "stateMutability": "view",
      "type": "function"
    },
    {
      "inputs": [
        {
          "internalType": "uint64",
          "name": "_minerId",
          "type": "uint64"
        }
      ],
      "name": "addMiner",
      "outputs": [],
      "stateMutability": "nonpayable",
      "type": "function"
    },
    {
      "inputs": [
        {
          "internalType": "uint256",
          "name": "_amount",
          "type": "uint256"
        }
      ],
      "name": "borrow",
      "outputs": [],
      "stateMutability": "nonpayable",
      "type": "function"
    },
    {
      "inputs": [
        {
          "internalType": "address",
          "name": "_wFIL",
          "type": "address"
        },
        {
          "internalType": "address",
          "name": "_ZC",
          "type": "address"
        },
        {
          "internalType": "address",
          "name": "_owner",
          "type": "address"
        },
        {
          "internalType": "address",
          "name": "_filmountainPool",
          "type": "address"
        },
        {
          "internalType": "uint64",
          "name": "_ownerId",
          "type": "uint64"
        }
      ],
      "name": "initialize",
      "outputs": [],
      "stateMutability": "nonpayable",
      "type": "function"
    },
    {
      "inputs": [],
      "name": "minerList",
      "outputs": [
        {
          "internalType": "uint256[]",
          "name": "",
          "type": "uint256[]"
        }
      ],
      "stateMutability": "view",
      "type": "function"
    },
    {
      "inputs": [],
      "name": "owner",
      "outputs": [
        {
          "internalType": "address",
          "name": "",
          "type": "address"
        }
      ],
      "stateMutability": "view",
      "type": "function"
    },
    {
      "inputs": [
        {
          "internalType": "uint256",
          "name": "_amount",
          "type": "uint256"
        }
      ],
      "name": "pay",
      "outputs": [],
      "stateMutability": "nonpayable",
      "type": "function"
    },
    {
      "inputs": [],
      "name": "proxiableUUID",
      "outputs": [
        {
          "internalType": "bytes32",
          "name": "",
          "type": "bytes32"
        }
      ],
      "stateMutability": "view",
      "type": "function"
    },
    {
      "inputs": [
        {
          "internalType": "uint64",
          "name": "_minerId",
          "type": "uint64"
        },
        {
          "internalType": "uint256",
          "name": "_amount",
          "type": "uint256"
        }
      ],
      "name": "pullFund",
      "outputs": [],
      "stateMutability": "nonpayable",
      "type": "function"
    },
    {
      "inputs": [
        {
          "internalType": "uint64",
          "name": "_minerId",
          "type": "uint64"
        },
        {
          "internalType": "uint256",
          "name": "_amount",
          "type": "uint256"
        }
      ],
      "name": "pushFund",
      "outputs": [],
      "stateMutability": "nonpayable",
      "type": "function"
    },
    {
      "inputs": [
        {
          "internalType": "uint64",
          "name": "_minerId",
          "type": "uint64"
        }
      ],
      "name": "removeMiner",
      "outputs": [],
      "stateMutability": "nonpayable",
      "type": "function"
    },
    {
      "inputs": [],
      "name": "renounceOwnership",
      "outputs": [],
      "stateMutability": "nonpayable",
      "type": "function"
    },
    {
      "inputs": [
        {
          "internalType": "uint256",
          "name": "_amountToPool",
          "type": "uint256"
        }
      ],
      "name": "sendToPool",
      "outputs": [],
      "stateMutability": "nonpayable",
      "type": "function"
    },
    {
      "inputs": [
        {
          "internalType": "address",
          "name": "newOwner",
          "type": "address"
        }
      ],
      "name": "transferOwnership",
      "outputs": [],
      "stateMutability": "nonpayable",
      "type": "function"
    },
    {
      "inputs": [
        {
          "internalType": "address",
          "name": "newImplementation",
          "type": "address"
        }
      ],
      "name": "upgradeTo",
      "outputs": [],
      "stateMutability": "nonpayable",
      "type": "function"
    },
    {
      "inputs": [
        {
          "internalType": "address",
          "name": "newImplementation",
          "type": "address"
        },
        {
          "internalType": "bytes",
          "name": "data",
          "type": "bytes"
        }
      ],
      "name": "upgradeToAndCall",
      "outputs": [],
      "stateMutability": "payable",
      "type": "function"
    },
    {
      "inputs": [],
      "name": "wFIL",
      "outputs": [
        {
          "internalType": "contract IWFIL",
          "name": "",
          "type": "address"
        }
      ],
      "stateMutability": "view",
      "type": "function"
    },
    {
      "inputs": [
        {
          "internalType": "address",
          "name": "_to",
          "type": "address"
        },
        {
          "internalType": "uint256",
          "name": "_amount",
          "type": "uint256"
        }
      ],
      "name": "withdraw",
      "outputs": [],
      "stateMutability": "nonpayable",
      "type": "function"
    }
  ],
  "numDeployments": 45,
  "solcInputHash": "c8302acc3aad4214cc030f6552d36f5d",
  "bytecode": "0x60a0604052306080523480156200001557600080fd5b50600054610100900460ff1615808015620000375750600054600160ff909116105b8062000067575062000054306200010860201b620010441760201c565b15801562000067575060005460ff166001145b6200008f5760405162461bcd60e51b8152600401620000869062000117565b60405180910390fd5b6000805460ff191660011790558015620000b3576000805461ff0019166101001790555b801562000101576000805461ff00191690556040517f7f26b83ff96e1f2b6a682f133852f6798a09c465da95921460cefb384740249890620000f8906001906200018d565b60405180910390a15b506200019d565b6001600160a01b03163b151590565b602080825281016200016a81602e81527f496e697469616c697a61626c653a20636f6e747261637420697320616c72656160208201526d191e481a5b9a5d1a585b1a5e995960921b604082015260600190565b92915050565b600060ff82166200016a565b620001878162000170565b82525050565b602081016200016a82846200017c565b608051614197620001d5600039600081816105cc0152818161060c0152818161077b015281816107bb015261083701526141976000f3fe6080604052600436106100d85760003560e01c8062feb1d8146100dd5780630200115a146100ff5780633659cfe61461011f5780634478c3641461013f5780634f1ef2861461015f57806352d1902d146101725780635484edcd1461019d5780635dfc8f0e146101bd5780636ff4c0f8146101dd578063715018a6146101fd5780638da5cb5b14610212578063bef4425614610234578063c290d69114610261578063c5ebeaec14610281578063c958f14b146102a1578063e87f2cce146102c1578063f2fde38b146102e3578063f3fef3a314610303575b600080fd5b3480156100e957600080fd5b506100fd6100f8366004613260565b610323565b005b34801561010b57600080fd5b506100fd61011a3660046132e9565b61047a565b34801561012b57600080fd5b506100fd61013a366004613326565b6105c2565b34801561014b57600080fd5b506100fd61015a366004613347565b61068a565b6100fd61016d366004613468565b610771565b34801561017e57600080fd5b5061018761082a565b60405161019491906134bd565b60405180910390f35b3480156101a957600080fd5b506100fd6101b83660046132e9565b610887565b3480156101c957600080fd5b506100fd6101d83660046134cb565b610937565b3480156101e957600080fd5b506100fd6101f8366004613347565b610abe565b34801561020957600080fd5b506100fd610c6b565b34801561021e57600080fd5b50610227610c7f565b60405161019491906134f5565b34801561024057600080fd5b5060c954610254906001600160a01b031681565b604051610194919061353b565b34801561026d57600080fd5b506100fd61027c3660046134cb565b610c8e565b34801561028d57600080fd5b506100fd61029c3660046134cb565b610d9a565b3480156102ad57600080fd5b5060ca54610254906001600160a01b031681565b3480156102cd57600080fd5b506102d6610ec2565b604051610194919061359b565b3480156102ef57600080fd5b506100fd6102fe366004613326565b610ed3565b34801561030f57600080fd5b506100fd61031e3660046135ac565b610f0a565b600054610100900460ff16158080156103435750600054600160ff909116105b80610364575061035230611044565b158015610364575060005460ff166001145b6103895760405162461bcd60e51b81526004016103809061361c565b60405180910390fd5b6000805460ff1916600117905580156103ac576000805461ff0019166101001790555b6103b4611053565b6103bc611082565b6103c584610ed3565b60c980546001600160a01b03199081166001600160a01b038981169190911790925560ce805460cd80543390851617905560ca8054909316878516179092559187166001600160e01b031990911617600160a01b6001600160401b038516021790558015610472576000805461ff00191690556040517f7f26b83ff96e1f2b6a682f133852f6798a09c465da95921460cefb38474024989061046990600190613640565b60405180910390a15b505050505050565b6104826110a9565b60c9546040516370a0823160e01b81526000916001600160a01b0316906370a08231906104b39030906004016134f5565b602060405180830381865afa1580156104d0573d6000803e3d6000fd5b505050506040513d601f19601f820116820180604052508101906104f49190613659565b9050808211156105175760405163b4b1515760e01b815260040160405180910390fd5b60c954604051632e1a7d4d60e01b81526001600160a01b0390911690632e1a7d4d906105479085906004016134bd565b600060405180830381600087803b15801561056157600080fd5b505af1158015610575573d6000803e3d6000fd5b5050505061058383836110d8565b507ff50f16c2772bd0abb92c3623c9c7ae7a664cbdbdc340e1e75e1deb323fda84f483836040516105b5929190613683565b60405180910390a1505050565b6001600160a01b037f000000000000000000000000000000000000000000000000000000000000000016300361060a5760405162461bcd60e51b8152600401610380906136d5565b7f00000000000000000000000000000000000000000000000000000000000000006001600160a01b031661063c61112e565b6001600160a01b0316146106625760405162461bcd60e51b81526004016103809061371c565b61066b8161114a565b6040805160008082526020820190925261068791839190611152565b50565b6106926110a9565b6106a660cb6001600160401b038316611239565b6106c35760405163483622b560e01b815260040160405180910390fd5b60ce5460405182916000916106eb91600160a01b90046001600160401b031690602001613749565b604051602081830303815290604052905060006107078261124c565b905061071c6001600160401b03841682611288565b5061073160cb6001600160401b0386166112dc565b507fb9d2bc5634927c75cf1ec9264544a54f7da51cba5fe5da9185b635e8a82f3c43308560405161076392919061375e565b60405180910390a150505050565b6001600160a01b037f00000000000000000000000000000000000000000000000000000000000000001630036107b95760405162461bcd60e51b8152600401610380906136d5565b7f00000000000000000000000000000000000000000000000000000000000000006001600160a01b03166107eb61112e565b6001600160a01b0316146108115760405162461bcd60e51b81526004016103809061371c565b61081a8261114a565b61082682826001611152565b5050565b6000306001600160a01b037f000000000000000000000000000000000000000000000000000000000000000016146108745760405162461bcd60e51b8152600401610380906137ce565b5060008051602061411b83398151915290565b61088f6110a9565b600061089b83836112e8565b905060c960009054906101000a90046001600160a01b03166001600160a01b031663d0e30db0826040518263ffffffff1660e01b81526004016000604051808303818588803b1580156108ed57600080fd5b505af1158015610901573d6000803e3d6000fd5b50505050507fcd519c5ee23d4201795ec3270faf9ad0fe5dcf144a614a5e411493439d47993283836040516105b5929190613683565b61093f6110a9565b60c960009054906101000a90046001600160a01b03166001600160a01b031663d0e30db0826040518263ffffffff1660e01b81526004016000604051808303818588803b15801561098f57600080fd5b505af11580156109a3573d6000803e3d6000fd5b505060c95460ca5460405163095ea7b360e01b81526001600160a01b03928316955063095ea7b394506109de935091169085906004016137de565b6020604051808303816000875af11580156109fd573d6000803e3d6000fd5b505050506040513d601f19601f82011682018060405250810190610a2191906137ff565b5060ca5460405163c290d69160e01b81526001600160a01b039091169063c290d69190610a529084906004016134bd565b600060405180830381600087803b158015610a6c57600080fd5b505af1158015610a80573d6000803e3d6000fd5b505050507fd1a25061adfd82816add44cbdea12ba2293c9cf3e4798eb328d856efcd35c41e81604051610ab391906134bd565b60405180910390a150565b604080516101008101825260008082526020820181905291810182905260608082018390526080820183905260a0820183905260c0820183905260e082015290829080610b0a836113e8565b9150915081600014610b3157816040516311b0e6a160e11b815260040161038091906134bd565b610b3a3061144c565b6001600160401b031660408601521515602080860191909152810151610b5f906114bd565b6001600160401b0390811660808601819052604086015190911614610b9757604051635ddb948b60e11b815260040160405180910390fd5b6000610ba68560400151611567565b9050610bbb6001600160401b03851682611288565b50610bc5846113e8565b90935091508215610beb57826040516311b0e6a160e11b815260040161038091906134bd565b8151610bf6906114bd565b6001600160401b031660a08601526020850151610c255760405162f08f6760e71b815260040160405180910390fd5b610c3960cb6001600160401b0388166115b3565b507f16dc2cbf4fac6621252a619403d8f179259201c83ee0cfb9c1210f36f49e8765308760405161046992919061375e565b610c736110a9565b610c7d60006115bf565b565b6033546001600160a01b031690565b610c966110a9565b6000600a610ca5836004613836565b610caf9190613864565b90506000610cbe603283613864565b9050610ccd6101d88284613878565b60006005610cdb8486613878565b610ce59190613864565b610cef908361388b565b60c954604051632e1a7d4d60e01b81529192506001600160a01b031690632e1a7d4d90610d209084906004016134bd565b600060405180830381600087803b158015610d3a57600080fd5b505af1158015610d4e573d6000803e3d6000fd5b505060ce54610d6992506001600160a01b0316905082611611565b7f357b676c439b9e49b4410f8eb8680bee4223724802d8e3fd422e1756f87b475f33856040516107639291906137de565b610da26110a9565b60cd546040516301fd3f7760e71b81526001600160a01b039091169063fe9fbb8090610dd29030906004016134f5565b602060405180830381865afa158015610def573d6000803e3d6000fd5b505050506040513d601f19601f82011682018060405250810190610e1391906137ff565b610e2f576040516282b42960e81b815260040160405180910390fd5b60ca5460405163317afabb60e21b81526001600160a01b039091169063c5ebeaec90610e5f9084906004016134bd565b600060405180830381600087803b158015610e7957600080fd5b505af1158015610e8d573d6000803e3d6000fd5b505050507fcbc04eca7e9da35cb1393a6135a199ca52e450d5e9251cbd99f7847d33a367503382604051610ab39291906137de565b6060610ece60cb61163c565b905090565b610edb6110a9565b6001600160a01b038116610f015760405162461bcd60e51b8152600401610380906138e1565b610687816115bf565b610f126110a9565b60c9546040516370a0823160e01b81526000916001600160a01b0316906370a0823190610f439030906004016134f5565b602060405180830381865afa158015610f60573d6000803e3d6000fd5b505050506040513d601f19601f82011682018060405250810190610f849190613659565b905080821115610fa75760405163b4b1515760e01b815260040160405180910390fd5b60c954604051632e1a7d4d60e01b81526001600160a01b0390911690632e1a7d4d90610fd79085906004016134bd565b600060405180830381600087803b158015610ff157600080fd5b505af1158015611005573d6000803e3d6000fd5b505050506110138383611611565b7f884edad9ce6fa2440d8a54cc123490eb96d2768479d49ff9c7366125a942436483836040516105b59291906137de565b6001600160a01b03163b151590565b600054610100900460ff1661107a5760405162461bcd60e51b815260040161038090613939565b610c7d611649565b600054610100900460ff16610c7d5760405162461bcd60e51b815260040161038090613939565b336110b2610c7f565b6001600160a01b031614610c7d5760405162461bcd60e51b81526004016103809061397e565b60408051600080825260208201909252819081906110fe90869083908190886000611679565b91509150805160001461112457604051630e74990760e01b815260040160405180910390fd5b5090505b92915050565b60008051602061411b833981519152546001600160a01b031690565b6106876110a9565b7f4910fdfa16fed3260ed0e7147f7cc6da11a60208b5b9406d12a635614ffd91435460ff161561118a5761118583611759565b505050565b826001600160a01b03166352d1902d6040518163ffffffff1660e01b8152600401602060405180830381865afa9250505080156111e4575060408051601f3d908101601f191682019092526111e191810190613659565b60015b6112005760405162461bcd60e51b8152600401610380906139d9565b60008051602061411b833981519152811461122d5760405162461bcd60e51b815260040161038090613a2f565b506111858383836117ad565b600061124583836117d8565b9392505050565b61125461315d565b604080516020810190915282815261126b816117f0565b6111285760405163e6c4247b60e01b815260040160405180910390fd5b60008061129483611949565b90506000806112ad86633c3c5e9b605186600080611988565b9150915080516000146112d357604051630e74990760e01b815260040160405180910390fd5b50949350505050565b600061124583836119d6565b6040805160608101825260008082526020820181905291810182905283600061131082611ad0565b91505061131c81611b1b565b158015604086015290845261134457604051631adafa3960e11b815260040160405180910390fd5b82518511156113695782516040516374e0caad60e01b815261038091906004016134bd565b600061137d8761137888611b9c565b611bd5565b91505061138981611b1b565b158015604087015260208601919091526113b657604051631adafa3960e11b815260040160405180910390fd5b858460200151146113da5760405163b4b1515760e01b815260040160405180910390fd5b505050602001519392505050565b60006113f2613170565b6040805160008082526020820190925290806114148663c33a1cc68386611c3e565b915091508160000361143757600061142b82611c89565b94509450505050915091565b61143f613170565b9196919550909350505050565b60008061145883611d09565b9092509050811561146857915091565b8260501b61040a60f01b178060005260206000601660006001607f60991b015afa92506000516001600160401b03169150508115806114a857503d602014155b156114b857506000928392509050565b915091565b60008060006001607f60991b016001600160a01b031684600001516040516114e59190613a85565b600060405180830381855afa9150503d8060008114611520576040519150601f19603f3d011682016040523d82523d6000602084013e611525565b606091505b50915091508161154857604051638a7db5bf60e01b815260040160405180910390fd5b60008180602001905181019061155e9190613659565b95945050505050565b61156f61315d565b600061157a83611d3b565b60408051602081018252825192935091829161159a916000918401613aa1565b60408051601f1981840301815291905290529392505050565b60006112458383611d81565b603380546001600160a01b038381166001600160a01b0319831681179093556040519116919082907f8be0079c531659141344cd1fd0a4f28419497f9722a3daafe3b4186f6b6457e090600090a35050565b600080600080600085875af19050806111855760405162461bcd60e51b815260040161038090613ae7565b6060600061124583611dcb565b600054610100900460ff166116705760405162461bcd60e51b815260040161038090613939565b610c7d336115bf565b6000606061168e6005607f60991b0185611e27565b6000806005607f60991b018987876116a75760006116aa565b60015b8b8b8f6040516020016116c296959493929190613b4a565b60408051601f19818403018152908290526116dc91613a85565b600060405180830381855af49150503d8060008114611717576040519150601f19603f3d011682016040523d82523d6000602084013e61171c565b606091505b50915091508161173f57604051638a7db5bf60e01b815260040160405180910390fd5b61174881611e6f565b935093505050965096945050505050565b61176281611044565b61177e5760405162461bcd60e51b815260040161038090613bf5565b60008051602061411b83398151915280546001600160a01b0319166001600160a01b0392909216919091179055565b6117b683611f35565b6000825111806117c35750805b15611185576117d28383611f75565b50505050565b60009081526001919091016020526040902054151590565b805180516000918291829061180757611807613c05565b01602001516001600160f81b031916036118325781515160011080156111285750505151600b101590565b81518051600160f81b919060009061184c5761184c613c05565b01602001516001600160f81b031916148061188d575081518051600160f91b919060009061187c5761187c613c05565b01602001516001600160f81b031916145b1561189b5750515160151490565b81518051600360f81b91906000906118b5576118b5613c05565b01602001516001600160f81b031916036118d25750515160311490565b81518051600160fa1b91906000906118ec576118ec613c05565b01602001516001600160f81b031916148015611930575081518051600560f91b9190600190811061191f5761191f613c05565b01602001516001600160f81b031916145b1561193e5750515160161490565b505151610100101590565b6060600061195a8360000151611f9a565b9050600061196782611fb2565b8451909150611977908290611fd3565b61198081611fec565b949350505050565b600060606064886001600160401b031610156119b9578760405163a292827360e01b81526004016103809190613c1b565b6119c7888888888888611679565b91509150965096945050505050565b60008181526001830160205260408120548015611abf5760006119fa600183613878565b8554909150600090611a0e90600190613878565b9050818114611a73576000866000018281548110611a2e57611a2e613c05565b9060005260206000200154905080876000018481548110611a5157611a51613c05565b6000918252602080832090910192909255918252600188019052604090208390555b8554869080611a8457611a84613c29565b600190038181906000526020600020016000905590558560010160008681526020019081526020016000206000905560019350505050611128565b6000915050611128565b5092915050565b6000611ada613195565b604080516000808252602082019092529080611afc8663eff983fa8386611c3e565b9150915081600003611b1357600061142b82612018565b61143f613195565b600080826020015115611b41576040516341820e7560e11b815260040160405180910390fd5b6000611b506000196000612072565b90506000611b66856000015186602001516120a5565b9050611b7281836120b9565b15611b8557506000946001945092505050565b8051611b9090613c49565b95600095509350505050565b611ba4613195565b6000611bb1836000612072565b60408051808201909152815181526020918201511515918101919091529392505050565b6000611bdf613195565b6000611bea846120e3565b9050600080611c03876387ed0a64605186600080611988565b9150915081600003611c26576000611c1a82612018565b94509450505050611c37565b611c2e613195565b91945090925050505b9250929050565b600060606064866001600160401b03161015611c6f578560405163a292827360e01b81526004016103809190613c1b565b611c7b86868686612152565b915091505b94509492505050565b611c91613170565b600080611c9e848261217c565b9250905060028114611cb257611cb2613c86565b611cbc84836121c8565b8451919091529150611cce8483612336565b611cec57611cdc84836121c8565b6020850151919091529150611d02565b6040805160008152602080820190925290840151525b5050919050565b600080600160401b600160a01b03831660ff60981b8103611d3557600192506001600160401b03841691505b50915091565b611d436131ad565b6001600160391b03600783901c1691607f166000839003611d6857611d028282612367565b611d758260808317612367565b5050611d43565b919050565b6000611d8d83836117d8565b611dc357508154600181810184556000848152602080822090930184905584548482528286019093526040902091909155611128565b506000611128565b606081600001805480602002602001604051908101604052809291908181526020018280548015611e1b57602002820191906000526020600020905b815481526020019060010190808311611e07575b50505050509050919050565b4781811015611e4d578082604051634787a10360e11b8152600401610380929190613c9c565b823f1515806117d25760405163064d954b60e41b815260040160405180910390fd5b60006060600080600085806020019051810190611e8c9190613d0d565b919450925090506001600160401b038216611ec657805115611ec157604051630e74990760e01b815260040160405180910390fd5b611f29565b6001600160401b03821660511480611ee757506001600160401b0382166071145b15611f0e578051600003611ec157604051630e74990760e01b815260040160405180910390fd5b8160405163f1f6bced60e01b81526004016103809190613d77565b91959194509092505050565b611f3e81611759565b6040516001600160a01b038216907fbc7cd75a20ee27fd9adebab32041f755214dbc6bffa90cc0225b39da2e5c2d3b90600090a250565b6060611245838360405180606001604052806027815260200161413b602791396123c3565b60008151611fa8835161243b565b611128919061388b565b611fba6131c7565b8051611fc69083612489565b5060006020820152919050565b611fe082600283516124f3565b8151611185908261260c565b606081602001516000146120125760405162461bcd60e51b815260040161038090613da8565b50515190565b612020613195565b60606000808451111561204c5761203784826121c8565b815191935091501561204c5761198082612620565b505060408051600081830181815260608301909352918152602081019190915292915050565b61207a6131e7565b6112458360405160200161208e9190613dbe565b60405160208183030381529060405283600061276f565b6120ad6131e7565b6112458383600061276f565b6000806120c884846001612830565b9050806001146120d9576000611980565b6001949350505050565b60606000806120f184612969565b90506120fd600161243b565b612107908361388b565b915061211281611f9a565b61211c908361388b565b9150600061212983611fb2565b9050612136816001612a88565b61214961214286612969565b8290611fd3565b61155e81611fec565b600060606116798061216d8888888888600163ffffffff8816565b93509350505094509492505050565b60008060008061218c8686612a94565b96509092506001600160401b0316905060ff82166004146121bf5760405162461bcd60e51b815260040161038090613e07565b95939450505050565b606060008060006121d98686612a94565b96509092506001600160401b0316905060ff8216600614806121fe575060ff82166002145b61221a5760405162461bcd60e51b815260040161038090613e62565b60051960ff831601612253576122308686612a94565b96509092506001600160401b0316905060ff821660021461225357612253613c86565b600061225f828761388b565b90506000826001600160401b0381111561227b5761227b613372565b6040519080825280601f01601f1916602001820160405280156122a5576020820181803683370190505b5090506000875b8381101561231a578981815181106122c6576122c6613c05565b602001015160f81c60f81b8383815181106122e3576122e3613c05565b60200101906001600160f81b031916908160001a9053508161230481613e72565b925050808061231290613e72565b9150506122ac565b5081612326858a61388b565b9650965050505050509250929050565b600082828151811061234a5761234a613c05565b6020910101516001600160f81b031916607b60f91b149392505050565b61236f6131ad565b825151600061237f82600161388b565b9050846020015182106123a0576123a08561239b836002613836565b612c11565b845160208382010185815381518311156123b8578282525b509495945050505050565b6060600080856001600160a01b0316856040516123e09190613a85565b600060405180830381855af49150503d806000811461241b576040519150601f19603f3d011682016040523d82523d6000602084013e612420565b606091505b509150915061243186838387612c28565b9695505050505050565b60006017821161244d57506001919050565b60ff821161245d57506002919050565b61ffff821161246e57506003919050565b63ffffffff821161248157506005919050565b506009919050565b6124916131ad565b61249c602083613e8c565b156124c4576124ac602083613e8c565b6124b7906020613878565b6124c1908361388b565b91505b6020808401839052604051808552600081529081840101818110156124e857600080fd5b604052509192915050565b6017816001600160401b0316116125195782516117d29060e0600585901b168317612367565b60ff816001600160401b031611612559578251612541906018611fe0600586901b1617612367565b5082516117d2906001600160401b0383166001612c6f565b61ffff816001600160401b03161161259a578251612582906019611fe0600586901b1617612367565b5082516117d2906001600160401b0383166002612c6f565b63ffffffff816001600160401b0316116125dd5782516125c590601a611fe0600586901b1617612367565b5082516117d2906001600160401b0383166004612c6f565b82516125f490601b611fe0600586901b1617612367565b5082516117d2906001600160401b0383166008612c6f565b6126146131ad565b61124583838451612ce7565b612628613195565b815160000361265c575050604080516080810182526001918101918252600060608201819052918152602081019190915290565b60006001835161266c9190613878565b6001600160401b0381111561268357612683613372565b6040519080825280601f01601f1916602001820160405280156126ad576020820181803683370190505b5090506000836000815181106126c5576126c5613c05565b01602001516001600160f81b031916600160f81b036126e2575060015b60015b84518110156127545784818151811061270057612700613c05565b01602001516001600160f81b0319168361271b600184613878565b8151811061272b5761272b613c05565b60200101906001600160f81b031916908160001a9053508061274c81613e72565b9150506126e5565b50604080518082019091529182521515602082015292915050565b6127776131e7565b602084018451600060405160006020840614600181146127a957601f84166020908103808601845283010192506127b3565b6020820192508382525b50600060208201528282848660046101c2fa506020815101810160405280515b602081146127ff57602082015115600181146127ef57506127ff565b60208301925050601f19016127d3565b815284525050506020810183905281156128195781612824565b805161282490612dab565b60408201529392505050565b6000600182156128a9578460200151801561284c575083602001515b1561285a57506000196128a9565b60208501511580156128725750602084015115156001145b15612881576001915050611245565b60208501511515600114801561289957506020840151155b156128a957600019915050611245565b8360400151856040015111156128c0579050611245565b8460400151846040015111156128e4576128dc81600019613ea0565b915050611245565b84518051855160209283019201906000908190815b8181101561295857808601519350808501519250828411156129245786975050505050505050611245565b838311156129465761293887600019613ea0565b975050505050505050611245565b61295160208261388b565b90506128f9565b5060009a9950505050505050505050565b80515160609060009061297d90600161388b565b6001600160401b0381111561299457612994613372565b6040519080825280601f01601f1916602001820160405280156129be576020820181803683370190505b5090508260200151151560011515146129d85760006129de565b600160f81b5b816000815181106129f1576129f1613c05565b60200101906001600160f81b031916908160001a905350600160005b845151811015612a7f578451805182908110612a2b57612a2b613c05565b602001015160f81c60f81b838381518110612a4857612a48613c05565b60200101906001600160f81b031916908160001a90535081612a6981613e72565b9250508080612a7790613e72565b915050612a0d565b50909392505050565b61082682600483612de3565b600080600080612aa48686612dee565b9050612ab160018661388b565b94506007600582901c16601f8216601c8110612adf5760405162461bcd60e51b815260040161038090613f13565b60188160ff161015612afd5790945060ff169250849150612c0a9050565b8060ff16601803612b5a576000612b148989612dee565b9050612b2160018961388b565b975060188160ff161015612b475760405162461bcd60e51b815260040161038090613f46565b9195505060ff169250849150612c0a9050565b8060ff16601903612b94576000612b718989612e3d565b9050612b7e60028961388b565b97509195505061ffff169250849150612c0a9050565b8060ff16601a03612bd0576000612bab8989612e76565b9050612bb860048961388b565b97509195505063ffffffff169250849150612c0a9050565b8060ff16601b14612be357612be3613c86565b6000612bef8989612eaf565b9050612bfc60088961388b565b975091955090935085925050505b9250925092565b8151612c1d8383612489565b506117d2838261260c565b60608315612c65578251600003612c5e57612c4285611044565b612c5e5760405162461bcd60e51b815260040161038090613f8a565b5081611980565b6119808383612ee8565b612c776131ad565b8351516000612c86828561388b565b90508560200151811115612ca357612ca38661239b836002613836565b60006001612cb38661010061409f565b612cbd9190613878565b905086518281018783198251161781528151841115612cda578382525b5096979650505050505050565b612cef6131ad565b8251821115612cfd57600080fd5b8351516000612d0c848361388b565b90508560200151811115612d2957612d298661239b836002613836565b855180518382016020019160009180851115612d43578482525b505050602086015b60208610612d835780518252612d6260208361388b565b9150612d6f60208261388b565b9050612d7c602087613878565b9550612d4b565b51815160001960208890036101000a0190811690199190911617905250849150509392505050565b6000612db682612f12565b15612dc357506000919050565b6020820151612dd181612f5b565b9251601f190160080290920192915050565b6111858383836124f3565b6000612dfb82600161388b565b83511015612e1b5760405162461bcd60e51b8152600401610380906140d9565b828281518110612e2d57612e2d613c05565b016020015160f81c905092915050565b6000612e4a82600261388b565b83511015612e6a5760405162461bcd60e51b8152600401610380906140d9565b50016020015160f01c90565b6000612e8382600461388b565b83511015612ea35760405162461bcd60e51b8152600401610380906140d9565b50016020015160e01c90565b6000612ebc82600861388b565b83511015612edc5760405162461bcd60e51b8152600401610380906140d9565b50016020015160c01c90565b815115612ef85781518083602001fd5b8060405162461bcd60e51b815260040161038091906140e9565b60008060208301815b8451811015612f5057815192508215612f3957506000949350505050565b602091820191612f49908261388b565b9050612f1b565b506001949350505050565b600081156001811461315257604080517ff8f9cbfae6cc78fbefe7cdc3a1793dfcf4f0e8bbd8cec470b6a28a7a5a3e1efd81527ff5ecf1b3e9debc68e1d9cfabc5997135bfb7a7a3938b7b606b5b4b3f2f1f0ffe60208201527ff6e4ed9ff2d6b458eadcdf97bd91692de2d4da8fd2d0ac50c6ae9a8272523616818301527fc8c0b887b0a8a4489c948c7f847c6125746c645c544c444038302820181008ff60608201527ff7cae577eec2a03cf3bad76fb589591debb2dd67e0aa9834bea6925f6a4a2e0e60808201527fe39ed557db96902cd38ed14fad815115c786af479b7e8324736353433727170760a08201527fc976c13bb96e881cb166a933a55e490d9d56952b8d4e801485467d236242260660c08201527f753a6d1b65325d0c552a4d1345224105391a310b29122104190a11030902010060e0820152610100818101909252600160f81b7e818283848586878898a8b8c8d8e8f929395969799a9b9d9e9faaeb6bedeeff600160801b600160401b600160201b620100006010600460026000198e0190810481179182049091179182049091178981041791820490911791820490911791820490911791820490911760010182810284900460ff8190038601519199600160ff1b811190970291859004919091019750919291908516613148576001870196505b5050505050613157565b600091505b50919050565b6040518060200160405280606081525090565b604051806040016040528061318361315d565b815260200161319061315d565b905290565b60408051808201909152606081526000602082015290565b604051806040016040528060608152602001600081525090565b60405180604001604052806131da6131ad565b8152602001600081525090565b604051806060016040528060608152602001600015158152602001600081525090565b6001600160a01b031690565b60006111288261320a565b61322a81613216565b811461068757600080fd5b803561112881613221565b6001600160401b031690565b61322a81613240565b80356111288161324c565b600080600080600060a0868803121561327b5761327b600080fd5b60006132878888613235565b955050602061329888828901613235565b94505060406132a988828901613235565b93505060606132ba88828901613235565b92505060806132cb88828901613255565b9150509295509295909350565b8061322a565b8035611128816132d8565b600080604083850312156132ff576132ff600080fd5b600061330b8585613255565b925050602061331c858286016132de565b9150509250929050565b60006020828403121561333b5761333b600080fd5b60006119808484613235565b60006020828403121561335c5761335c600080fd5b60006119808484613255565b601f01601f191690565b634e487b7160e01b600052604160045260246000fd5b61339182613368565b81018181106001600160401b03821117156133ae576133ae613372565b6040525050565b60006133c060405190565b9050611d7c8282613388565b60006001600160401b038211156133e5576133e5613372565b6133ee82613368565b60200192915050565b82818337506000910152565b6000613416613411846133cc565b6133b5565b90508281526020810184848401111561343157613431600080fd5b61343c8482856133f7565b509392505050565b600082601f83011261345857613458600080fd5b8135611980848260208601613403565b6000806040838503121561347e5761347e600080fd5b600061348a8585613235565b92505060208301356001600160401b038111156134a9576134a9600080fd5b61331c85828601613444565b805b82525050565b6020810161112882846134b5565b6000602082840312156134e0576134e0600080fd5b600061198084846132de565b6134b781613216565b6020810161112882846134ec565b60006111286135176135148461320a565b90565b61320a565b600061112882613503565b60006111288261351c565b6134b781613527565b602081016111288284613532565b600061355583836134b5565b505060200190565b6000613567825190565b80845260209384019383018060005b838110156123b857815161358a8882613549565b975060208301925050600101613576565b60208082528101611245818461355d565b600080604083850312156135c2576135c2600080fd5b600061330b8585613235565b602e81526000602082017f496e697469616c697a61626c653a20636f6e747261637420697320616c72656181526d191e481a5b9a5d1a585b1a5e995960921b602082015291505b5060400190565b60208082528101611128816135ce565b600060ff8216611128565b6134b78161362c565b602081016111288284613637565b8051611128816132d8565b60006020828403121561366e5761366e600080fd5b6000611980848461364e565b6134b781613240565b60408101613691828561367a565b61124560208301846134b5565b602c81526000602082016000805160206140fb83398151915281526b19195b1959d85d1958d85b1b60a21b60208201529150613615565b602080825281016111288161369e565b602c81526000602082016000805160206140fb83398151915281526b6163746976652070726f787960a01b60208201529150613615565b60208082528101611128816136e5565b60006111288260c01b90565b6134b761374482613240565b61372c565b60006137558284613738565b50600801919050565b6040810161376c82856134ec565b611245602083018461367a565b603881526000602082017f555550535570677261646561626c653a206d757374206e6f742062652063616c8152771b1959081d1a1c9bdd59da0819195b1959d85d1958d85b1b60421b60208201529150613615565b6020808252810161112881613779565b6040810161369182856134ec565b80151561322a565b8051611128816137ec565b60006020828403121561381457613814600080fd5b600061198084846137f4565b634e487b7160e01b600052601160045260246000fd5b818102808215838204851417611ac957611ac9613820565b634e487b7160e01b600052601260045260246000fd5b6000826138735761387361384e565b500490565b8181038181111561112857611128613820565b8082018082111561112857611128613820565b602681526000602082017f4f776e61626c653a206e6577206f776e657220697320746865207a65726f206181526564647265737360d01b60208201529150613615565b602080825281016111288161389e565b602b81526000602082017f496e697469616c697a61626c653a20636f6e7472616374206973206e6f74206981526a6e697469616c697a696e6760a81b60208201529150613615565b60208082528101611128816138f1565b60208082527f4f776e61626c653a2063616c6c6572206973206e6f7420746865206f776e6572910190815260005b5060200190565b6020808252810161112881613949565b602e81526000602082017f45524331393637557067726164653a206e657720696d706c656d656e7461746981526d6f6e206973206e6f74205555505360901b60208201529150613615565b602080825281016111288161398e565b602981526000602082017f45524331393637557067726164653a20756e737570706f727465642070726f788152681a58589b195555525160ba1b60208201529150613615565b60208082528101611128816139e9565b60005b83811015613a5a578181015183820152602001613a42565b50506000910152565b6000613a6d825190565b613a7b818560208601613a3f565b9290920192915050565b60006112458284613a63565b6001600160f81b031981166134b7565b6000613aad8285613a91565b6001820191506119808284613a63565b601381526000602082017211551217d514905394d1915497d19052531151606a1b81529150613977565b6020808252810161112881613abd565b6000613b01825190565b808452602084019350613b18818560208601613a3f565b613b2181613368565b9093019392505050565b6000611128613b3c61351484613240565b613240565b6134b781613b2b565b60c08101613b58828961367a565b613b6560208301886134b5565b613b72604083018761367a565b613b7f606083018661367a565b8181036080830152613b918185613af7565b9050613ba060a0830184613b41565b979650505050505050565b602d81526000602082017f455243313936373a206e657720696d706c656d656e746174696f6e206973206e81526c1bdd08184818dbdb9d1c9858dd609a1b60208201529150613615565b6020808252810161112881613bab565b634e487b7160e01b600052603260045260246000fd5b602081016111288284613b41565b634e487b7160e01b600052603160045260246000fd5b6000611128825190565b6000613c53825190565b60208301613c6081613c3f565b92506020821015611d0257613c7c600019836020036008021b90565b9092169392505050565b634e487b7160e01b600052600160045260246000fd5b6040810161369182856134b5565b80516111288161324c565b6000613cc3613411846133cc565b905082815260208101848484011115613cde57613cde600080fd5b61343c848285613a3f565b600082601f830112613cfd57613cfd600080fd5b8151611980848260208601613cb5565b600080600060608486031215613d2557613d25600080fd5b6000613d31868661364e565b9350506020613d4286828701613caa565b92505060408401516001600160401b03811115613d6157613d61600080fd5b613d6d86828701613ce9565b9150509250925092565b60208101611128828461367a565b600c81526000602082016b24b73b30b634b21021a127a960a11b81529150613977565b6020808252810161112881613d85565b806134b7565b6000613dca8284613db8565b50602001919050565b601f81526000602082017f696e76616c6964206d616a20286578706563746564204d616a4172726179290081529150613977565b6020808252810161112881613dd3565b602e81526000602082017f696e76616c6964206d616a20286578706563746564204d616a546167206f722081526d4d616a42797465537472696e672960901b60208201529150613615565b6020808252810161112881613e17565b60006000198203613e8557613e85613820565b5060010190565b600082613e9b57613e9b61384e565b500690565b8181028060008312600160ff1b85141615613ebd57613ebd613820565b8282058414831517611ac957611ac9613820565b602581526000602082017f63616e6e6f742068616e646c6520686561646572732077697468206578747261815264203e20323760d81b60208201529150613615565b6020808252810161112881613ed1565b600c81526000602082016b34b73b30b634b21031b137b960a11b81529150613977565b6020808252810161112881613f23565b601d81526000602082017f416464726573733a2063616c6c20746f206e6f6e2d636f6e747261637400000081529150613977565b6020808252810161112881613f56565b80825b6001851115611c8057808604811115613fb857613fb8613820565b6001851615613fc657908102905b8002613fd28560011c90565b9450613f9d565b600082613fe857506001611245565b81613ff557506000611245565b816001811461400b576002811461401557614042565b6001915050611245565b60ff84111561402657614026613820565b8360020a91508482111561403c5761403c613820565b50611245565b5060208310610133831016604e8410600b8410161715614075575081810a8381111561407057614070613820565b611245565b6140828484846001613f9a565b9250905081840481111561409857614098613820565b0292915050565b60006112456000198484613fd9565b6014815260006020820173736c6963696e67206f7574206f662072616e676560601b81529150613977565b60208082528101611128816140ae565b602080825281016112458184613af756fe46756e6374696f6e206d7573742062652063616c6c6564207468726f75676820360894a13ba1a3210667c828492db98dca3e2076cc3735a920a3ca505d382bbc416464726573733a206c6f772d6c6576656c2064656c65676174652063616c6c206661696c6564a26469706673582212204aae6d5b8dd8124ab527e84e5778b9d0e90e93806ea0259afa6ba9bad874497264736f6c63430008120033",
  "devdoc": {
    "events": {
      "AdminChanged(address,address)": {
        "details": "Emitted when the admin account has changed."
      },
      "BeaconUpgraded(address)": {
        "details": "Emitted when the beacon is changed."
      },
      "Initialized(uint8)": {
        "details": "Triggered when the contract has been initialized or reinitialized."
      },
      "Upgraded(address)": {
        "details": "Emitted when the implementation is upgraded."
      }
    },
    "kind": "dev",
    "methods": {
      "owner()": {
        "details": "Returns the address of the current owner."
      },
      "proxiableUUID()": {
        "details": "Implementation of the ERC1822 {proxiableUUID} function. This returns the storage slot used by the implementation. It is used to validate the implementation's compatibility when performing an upgrade. IMPORTANT: A proxy pointing at a proxiable contract should not be considered proxiable itself, because this risks bricking a proxy that upgrades to it, by delegating to itself until out of gas. Thus it is critical that this function revert if invoked through a proxy. This is guaranteed by the `notDelegated` modifier."
      },
      "renounceOwnership()": {
        "details": "Leaves the contract without owner. It will not be possible to call `onlyOwner` functions. Can only be called by the current owner. NOTE: Renouncing ownership will leave the contract without an owner, thereby disabling any functionality that is only available to the owner."
      },
      "transferOwnership(address)": {
        "details": "Transfers ownership of the contract to a new account (`newOwner`). Can only be called by the current owner."
      },
      "upgradeTo(address)": {
        "custom:oz-upgrades-unsafe-allow-reachable": "delegatecall",
        "details": "Upgrade the implementation of the proxy to `newImplementation`. Calls {_authorizeUpgrade}. Emits an {Upgraded} event."
      },
      "upgradeToAndCall(address,bytes)": {
        "custom:oz-upgrades-unsafe-allow-reachable": "delegatecall",
        "details": "Upgrade the implementation of the proxy to `newImplementation`, and subsequently execute the function call encoded in `data`. Calls {_authorizeUpgrade}. Emits an {Upgraded} event."
      }
    },
    "version": 1
  },
  "userdoc": {
    "errors": {
      "ActorNotFound()": [
        {
          "notice": "the actor is not found"
        }
      ],
      "FailToCallActor()": [
        {
          "notice": "an error happened trying to call the actor"
        },
        {
          "notice": "an error happened trying to call the actor"
        }
      ],
      "InvalidActorID(uint64)": [
        {
          "notice": "the provided actor id is not valid"
        }
      ],
      "InvalidCodec(uint64)": [
        {
          "notice": "the codec received is not valid"
        }
      ],
      "InvalidResponseLength()": [
        {
          "notice": "the response received is not correct. In some case no response is expected and we received one, or a response was indeed expected and we received none."
        }
      ],
      "NotEnoughBalance(uint256,uint256)": [
        {
          "notice": "the smart contract has no enough balance to transfer"
        }
      ]
    },
    "kind": "user",
    "methods": {},
    "version": 1
  },
  "storageLayout": {
    "storage": [
      {
        "astId": 926,
        "contract": "contracts/sp/SPVault.sol:SPVault",
        "label": "_initialized",
        "offset": 0,
        "slot": "0",
        "type": "t_uint8"
      },
      {
        "astId": 929,
        "contract": "contracts/sp/SPVault.sol:SPVault",
        "label": "_initializing",
        "offset": 1,
        "slot": "0",
        "type": "t_bool"
      },
      {
        "astId": 1605,
        "contract": "contracts/sp/SPVault.sol:SPVault",
        "label": "__gap",
        "offset": 0,
        "slot": "1",
        "type": "t_array(t_uint256)50_storage"
      },
      {
        "astId": 432,
        "contract": "contracts/sp/SPVault.sol:SPVault",
        "label": "_owner",
        "offset": 0,
        "slot": "51",
        "type": "t_address"
      },
      {
        "astId": 552,
        "contract": "contracts/sp/SPVault.sol:SPVault",
        "label": "__gap",
        "offset": 0,
        "slot": "52",
        "type": "t_array(t_uint256)49_storage"
      },
      {
        "astId": 908,
        "contract": "contracts/sp/SPVault.sol:SPVault",
        "label": "__gap",
        "offset": 0,
        "slot": "101",
        "type": "t_array(t_uint256)50_storage"
      },
      {
        "astId": 1224,
        "contract": "contracts/sp/SPVault.sol:SPVault",
        "label": "__gap",
        "offset": 0,
        "slot": "151",
        "type": "t_array(t_uint256)50_storage"
      },
      {
        "astId": 3510,
        "contract": "contracts/sp/SPVault.sol:SPVault",
        "label": "wFIL",
        "offset": 0,
        "slot": "201",
        "type": "t_contract(IWFIL)3343"
      },
      {
        "astId": 3513,
        "contract": "contracts/sp/SPVault.sol:SPVault",
        "label": "FilmountainPool",
        "offset": 0,
        "slot": "202",
        "type": "t_contract(IFilmountainPool)3226"
      },
      {
        "astId": 3516,
        "contract": "contracts/sp/SPVault.sol:SPVault",
        "label": "ownedMinerSet",
        "offset": 0,
        "slot": "203",
        "type": "t_struct(UintSet)3083_storage"
      },
      {
        "astId": 3519,
        "contract": "contracts/sp/SPVault.sol:SPVault",
        "label": "FACTORY",
        "offset": 0,
        "slot": "205",
        "type": "t_contract(ISPVaultFactory)3324"
      },
      {
        "astId": 3521,
        "contract": "contracts/sp/SPVault.sol:SPVault",
        "label": "ZC",
        "offset": 0,
        "slot": "206",
        "type": "t_address"
      },
      {
        "astId": 3523,
        "contract": "contracts/sp/SPVault.sol:SPVault",
        "label": "ownerId",
        "offset": 20,
        "slot": "206",
        "type": "t_uint64"
      }
    ],
    "types": {
      "t_address": {
        "encoding": "inplace",
        "label": "address",
        "numberOfBytes": "20"
      },
      "t_array(t_bytes32)dyn_storage": {
        "base": "t_bytes32",
        "encoding": "dynamic_array",
        "label": "bytes32[]",
        "numberOfBytes": "32"
      },
      "t_array(t_uint256)49_storage": {
        "base": "t_uint256",
        "encoding": "inplace",
        "label": "uint256[49]",
        "numberOfBytes": "1568"
      },
      "t_array(t_uint256)50_storage": {
        "base": "t_uint256",
        "encoding": "inplace",
        "label": "uint256[50]",
        "numberOfBytes": "1600"
      },
      "t_bool": {
        "encoding": "inplace",
        "label": "bool",
        "numberOfBytes": "1"
      },
      "t_bytes32": {
        "encoding": "inplace",
        "label": "bytes32",
        "numberOfBytes": "32"
      },
      "t_contract(IFilmountainPool)3226": {
        "encoding": "inplace",
        "label": "contract IFilmountainPool",
        "numberOfBytes": "20"
      },
      "t_contract(ISPVaultFactory)3324": {
        "encoding": "inplace",
        "label": "contract ISPVaultFactory",
        "numberOfBytes": "20"
      },
      "t_contract(IWFIL)3343": {
        "encoding": "inplace",
        "label": "contract IWFIL",
        "numberOfBytes": "20"
      },
      "t_mapping(t_bytes32,t_uint256)": {
        "encoding": "mapping",
        "key": "t_bytes32",
        "label": "mapping(bytes32 => uint256)",
        "numberOfBytes": "32",
        "value": "t_uint256"
      },
      "t_struct(Set)2625_storage": {
        "encoding": "inplace",
        "label": "struct EnumerableSet.Set",
        "members": [
          {
            "astId": 2620,
            "contract": "contracts/sp/SPVault.sol:SPVault",
            "label": "_values",
            "offset": 0,
            "slot": "0",
            "type": "t_array(t_bytes32)dyn_storage"
          },
          {
            "astId": 2624,
            "contract": "contracts/sp/SPVault.sol:SPVault",
            "label": "_indexes",
            "offset": 0,
            "slot": "1",
            "type": "t_mapping(t_bytes32,t_uint256)"
          }
        ],
        "numberOfBytes": "64"
      },
      "t_struct(UintSet)3083_storage": {
        "encoding": "inplace",
        "label": "struct EnumerableSet.UintSet",
        "members": [
          {
            "astId": 3082,
            "contract": "contracts/sp/SPVault.sol:SPVault",
            "label": "_inner",
            "offset": 0,
            "slot": "0",
            "type": "t_struct(Set)2625_storage"
          }
        ],
        "numberOfBytes": "64"
      },
      "t_uint256": {
        "encoding": "inplace",
        "label": "uint256",
        "numberOfBytes": "32"
      },
      "t_uint64": {
        "encoding": "inplace",
        "label": "uint64",
        "numberOfBytes": "8"
      },
      "t_uint8": {
        "encoding": "inplace",
        "label": "uint8",
        "numberOfBytes": "1"
      }
    }
  }
}