{
  "address": "0xfFbDBE284855de09E05d1ea51efFe39B51302098",
  "abi": [
    {
      "anonymous": false,
      "inputs": [
        {
          "indexed": false,
          "internalType": "address",
          "name": "target",
          "type": "address"
        }
      ],
      "name": "AddUser",
      "type": "event"
    },
    {
      "anonymous": false,
      "inputs": [
        {
          "indexed": true,
          "internalType": "address",
          "name": "previousOwner",
          "type": "address"
        },
        {
          "indexed": true,
          "internalType": "address",
          "name": "newOwner",
          "type": "address"
        }
      ],
      "name": "OwnershipTransferred",
      "type": "event"
    },
    {
      "anonymous": false,
      "inputs": [
        {
          "indexed": false,
          "internalType": "address",
          "name": "traget",
          "type": "address"
        }
      ],
      "name": "RemoveUser",
      "type": "event"
    },
    {
      "inputs": [
        {
          "internalType": "address",
          "name": "_target",
          "type": "address"
        }
      ],
      "name": "addUser",
      "outputs": [],
      "stateMutability": "nonpayable",
      "type": "function"
    },
    {
      "inputs": [
        {
          "internalType": "address",
          "name": "_target",
          "type": "address"
        }
      ],
      "name": "isUser",
      "outputs": [
        {
          "internalType": "bool",
          "name": "",
          "type": "bool"
        }
      ],
      "stateMutability": "view",
      "type": "function"
    },
    {
      "inputs": [],
      "name": "owner",
      "outputs": [
        {
          "internalType": "address",
          "name": "",
          "type": "address"
        }
      ],
      "stateMutability": "view",
      "type": "function"
    },
    {
      "inputs": [
        {
          "internalType": "address",
          "name": "_target",
          "type": "address"
        }
      ],
      "name": "removeUser",
      "outputs": [],
      "stateMutability": "nonpayable",
      "type": "function"
    },
    {
      "inputs": [],
      "name": "renounceOwnership",
      "outputs": [],
      "stateMutability": "nonpayable",
      "type": "function"
    },
    {
      "inputs": [
        {
          "internalType": "address",
          "name": "newOwner",
          "type": "address"
        }
      ],
      "name": "transferOwnership",
      "outputs": [],
      "stateMutability": "nonpayable",
      "type": "function"
    },
    {
      "inputs": [],
      "name": "userList",
      "outputs": [
        {
          "internalType": "address[]",
          "name": "",
          "type": "address[]"
        }
      ],
      "stateMutability": "view",
      "type": "function"
    }
  ],
  "numDeployments": 2,
  "solcInputHash": "ced3ce5840b224ce6bcd430b8b2a9844",
  "bytecode": "0x608060405234801561001057600080fd5b5061001a3361001f565b61006f565b600080546001600160a01b038381166001600160a01b0319831681178455604051919092169283917f8be0079c531659141344cd1fd0a4f28419497f9722a3daafe3b4186f6b6457e09190a35050565b61071c8061007e6000396000f3fe608060405234801561001057600080fd5b506004361061006d5760003560e01c80630e0f785f146100725780634209fff114610090578063421b2d8b146100b0578063715018a6146100c55780638da5cb5b146100cd57806398575188146100e2578063f2fde38b146100f5575b600080fd5b61007a610108565b6040516100879190610590565b60405180910390f35b6100a361009e3660046105c0565b610119565b60405161008791906105f1565b6100c36100be3660046105c0565b61012c565b005b6100c36101aa565b6100d56101e5565b60405161008791906105ff565b6100c36100f03660046105c0565b6101f4565b6100c36101033660046105c0565b61025e565b606061011460016102bf565b905090565b60006101266001836102d3565b92915050565b336101356101e5565b6001600160a01b0316146101645760405162461bcd60e51b815260040161015b9061060d565b60405180910390fd5b61016f6001826102e8565b507f93e8ef53fa1762269961bdc02811e560fa10787f7f2f9c13f74ddad8221614d28160405161019f91906105ff565b60405180910390a150565b336101b36101e5565b6001600160a01b0316146101d95760405162461bcd60e51b815260040161015b9061060d565b6101e360006102fd565b565b6000546001600160a01b031690565b336101fd6101e5565b6001600160a01b0316146102235760405162461bcd60e51b815260040161015b9061060d565b61022e60018261034d565b507f0ad8e54ac59bf2d8a7a1474c1af503b593553cf4fcaaffdef04ab5249f89762b8160405161019f91906105ff565b336102676101e5565b6001600160a01b03161461028d5760405162461bcd60e51b815260040161015b9061060d565b6001600160a01b0381166102b35760405162461bcd60e51b815260040161015b90610647565b6102bc816102fd565b50565b606060006102cc83610362565b9392505050565b60006102cc836001600160a01b0384166103be565b60006102cc836001600160a01b0384166103d6565b600080546001600160a01b038381166001600160a01b0319831681178455604051919092169283917f8be0079c531659141344cd1fd0a4f28419497f9722a3daafe3b4186f6b6457e09190a35050565b60006102cc836001600160a01b038416610420565b6060816000018054806020026020016040519081016040528092919081815260200182805480156103b257602002820191906000526020600020905b81548152602001906001019080831161039e575b50505050509050919050565b60009081526001919091016020526040902054151590565b60006103e283836103be565b61041857508154600181810184556000848152602080822090930184905584548482528286019093526040902091909155610126565b506000610126565b600081815260018301602052604081205480156105095760006104446001836106a7565b8554909150600090610458906001906106a7565b90508181146104bd576000866000018281548110610478576104786106ba565b906000526020600020015490508087600001848154811061049b5761049b6106ba565b6000918252602080832090910192909255918252600188019052604090208390555b85548690806104ce576104ce6106d0565b600190038181906000526020600020016000905590558560010160008681526020019081526020016000206000905560019350505050610126565b6000915050610126565b60006001600160a01b038216610126565b61052d81610513565b82525050565b600061053f8383610524565b505060200190565b6000610551825190565b80845260209384019383018060005b838110156105855781516105748882610533565b975060208301925050600101610560565b509495945050505050565b602080825281016102cc8184610547565b6105aa81610513565b81146102bc57600080fd5b8035610126816105a1565b6000602082840312156105d5576105d5600080fd5b60006105e184846105b5565b949350505050565b80151561052d565b6020810161012682846105e9565b602081016101268284610524565b60208082528181019081527f4f776e61626c653a2063616c6c6572206973206e6f7420746865206f776e6572604083015260608201610126565b6020808252810161012681602681527f4f776e61626c653a206e6577206f776e657220697320746865207a65726f206160208201526564647265737360d01b604082015260600190565b634e487b7160e01b600052601160045260246000fd5b8181038181111561012657610126610691565b634e487b7160e01b600052603260045260246000fd5b634e487b7160e01b600052603160045260246000fdfea26469706673582212206c3c7443762145ec129e408a0db148a3da1547c4b77e431afe0cc99336aabbc064736f6c63430008120033",
  "devdoc": {
    "kind": "dev",
    "methods": {
      "owner()": {
        "details": "Returns the address of the current owner."
      },
      "renounceOwnership()": {
        "details": "Leaves the contract without owner. It will not be possible to call `onlyOwner` functions anymore. Can only be called by the current owner. NOTE: Renouncing ownership will leave the contract without an owner, thereby removing any functionality that is only available to the owner."
      },
      "transferOwnership(address)": {
        "details": "Transfers ownership of the contract to a new account (`newOwner`). Can only be called by the current owner."
      }
    },
    "version": 1
  },
  "userdoc": {
    "kind": "user",
    "methods": {},
    "version": 1
  },
  "storageLayout": {
    "storage": [
      {
        "astId": 7,
        "contract": "contracts/pool/UserRegistry.sol:UserRegistry",
        "label": "_owner",
        "offset": 0,
        "slot": "0",
        "type": "t_address"
      },
      {
        "astId": 748,
        "contract": "contracts/pool/UserRegistry.sol:UserRegistry",
        "label": "userSet",
        "offset": 0,
        "slot": "1",
        "type": "t_struct(AddressSet)438_storage"
      }
    ],
    "types": {
      "t_address": {
        "encoding": "inplace",
        "label": "address",
        "numberOfBytes": "20"
      },
      "t_array(t_bytes32)dyn_storage": {
        "base": "t_bytes32",
        "encoding": "dynamic_array",
        "label": "bytes32[]",
        "numberOfBytes": "32"
      },
      "t_bytes32": {
        "encoding": "inplace",
        "label": "bytes32",
        "numberOfBytes": "32"
      },
      "t_mapping(t_bytes32,t_uint256)": {
        "encoding": "mapping",
        "key": "t_bytes32",
        "label": "mapping(bytes32 => uint256)",
        "numberOfBytes": "32",
        "value": "t_uint256"
      },
      "t_struct(AddressSet)438_storage": {
        "encoding": "inplace",
        "label": "struct EnumerableSet.AddressSet",
        "members": [
          {
            "astId": 437,
            "contract": "contracts/pool/UserRegistry.sol:UserRegistry",
            "label": "_inner",
            "offset": 0,
            "slot": "0",
            "type": "t_struct(Set)137_storage"
          }
        ],
        "numberOfBytes": "64"
      },
      "t_struct(Set)137_storage": {
        "encoding": "inplace",
        "label": "struct EnumerableSet.Set",
        "members": [
          {
            "astId": 132,
            "contract": "contracts/pool/UserRegistry.sol:UserRegistry",
            "label": "_values",
            "offset": 0,
            "slot": "0",
            "type": "t_array(t_bytes32)dyn_storage"
          },
          {
            "astId": 136,
            "contract": "contracts/pool/UserRegistry.sol:UserRegistry",
            "label": "_indexes",
            "offset": 0,
            "slot": "1",
            "type": "t_mapping(t_bytes32,t_uint256)"
          }
        ],
        "numberOfBytes": "64"
      },
      "t_uint256": {
        "encoding": "inplace",
        "label": "uint256",
        "numberOfBytes": "32"
      }
    }
  }
}